Archive member included to satisfy reference by file (symbol)

d:/st/stm32cubeide_1.0.2/stm32cubeide/plugins/com.st.stm32cube.ide.mcu.externaltools.gnu-tools-for-stm32.7-2018-q2-update.win32_1.0.0.201904181610/tools/bin/../lib/gcc/arm-none-eabi/7.3.1/../../../../arm-none-eabi/lib/thumb/v7e-m/fpv4-sp/hard\libc_nano.a(lib_a-atoi.o)
                              Core/Src/User_Parametri.o (atoi)
d:/st/stm32cubeide_1.0.2/stm32cubeide/plugins/com.st.stm32cube.ide.mcu.externaltools.gnu-tools-for-stm32.7-2018-q2-update.win32_1.0.0.201904181610/tools/bin/../lib/gcc/arm-none-eabi/7.3.1/../../../../arm-none-eabi/lib/thumb/v7e-m/fpv4-sp/hard\libc_nano.a(lib_a-errno.o)
                              Core/Src/syscalls.o (__errno)
d:/st/stm32cubeide_1.0.2/stm32cubeide/plugins/com.st.stm32cube.ide.mcu.externaltools.gnu-tools-for-stm32.7-2018-q2-update.win32_1.0.0.201904181610/tools/bin/../lib/gcc/arm-none-eabi/7.3.1/../../../../arm-none-eabi/lib/thumb/v7e-m/fpv4-sp/hard\libc_nano.a(lib_a-exit.o)
                              d:/st/stm32cubeide_1.0.2/stm32cubeide/plugins/com.st.stm32cube.ide.mcu.externaltools.gnu-tools-for-stm32.7-2018-q2-update.win32_1.0.0.201904181610/tools/bin/../lib/gcc/arm-none-eabi/7.3.1/../../../../arm-none-eabi/lib/thumb/v7e-m/fpv4-sp/hard/crt0.o (exit)
d:/st/stm32cubeide_1.0.2/stm32cubeide/plugins/com.st.stm32cube.ide.mcu.externaltools.gnu-tools-for-stm32.7-2018-q2-update.win32_1.0.0.201904181610/tools/bin/../lib/gcc/arm-none-eabi/7.3.1/../../../../arm-none-eabi/lib/thumb/v7e-m/fpv4-sp/hard\libc_nano.a(lib_a-impure.o)
                              d:/st/stm32cubeide_1.0.2/stm32cubeide/plugins/com.st.stm32cube.ide.mcu.externaltools.gnu-tools-for-stm32.7-2018-q2-update.win32_1.0.0.201904181610/tools/bin/../lib/gcc/arm-none-eabi/7.3.1/../../../../arm-none-eabi/lib/thumb/v7e-m/fpv4-sp/hard\libc_nano.a(lib_a-exit.o) (_global_impure_ptr)
d:/st/stm32cubeide_1.0.2/stm32cubeide/plugins/com.st.stm32cube.ide.mcu.externaltools.gnu-tools-for-stm32.7-2018-q2-update.win32_1.0.0.201904181610/tools/bin/../lib/gcc/arm-none-eabi/7.3.1/../../../../arm-none-eabi/lib/thumb/v7e-m/fpv4-sp/hard\libc_nano.a(lib_a-init.o)
                              d:/st/stm32cubeide_1.0.2/stm32cubeide/plugins/com.st.stm32cube.ide.mcu.externaltools.gnu-tools-for-stm32.7-2018-q2-update.win32_1.0.0.201904181610/tools/bin/../lib/gcc/arm-none-eabi/7.3.1/../../../../arm-none-eabi/lib/thumb/v7e-m/fpv4-sp/hard/crt0.o (__libc_init_array)
d:/st/stm32cubeide_1.0.2/stm32cubeide/plugins/com.st.stm32cube.ide.mcu.externaltools.gnu-tools-for-stm32.7-2018-q2-update.win32_1.0.0.201904181610/tools/bin/../lib/gcc/arm-none-eabi/7.3.1/../../../../arm-none-eabi/lib/thumb/v7e-m/fpv4-sp/hard\libc_nano.a(lib_a-memcmp.o)
                              Core/Src/DataFlash.o (memcmp)
d:/st/stm32cubeide_1.0.2/stm32cubeide/plugins/com.st.stm32cube.ide.mcu.externaltools.gnu-tools-for-stm32.7-2018-q2-update.win32_1.0.0.201904181610/tools/bin/../lib/gcc/arm-none-eabi/7.3.1/../../../../arm-none-eabi/lib/thumb/v7e-m/fpv4-sp/hard\libc_nano.a(lib_a-memcpy-stub.o)
                              Core/Src/DynSizeVector.o (memcpy)
d:/st/stm32cubeide_1.0.2/stm32cubeide/plugins/com.st.stm32cube.ide.mcu.externaltools.gnu-tools-for-stm32.7-2018-q2-update.win32_1.0.0.201904181610/tools/bin/../lib/gcc/arm-none-eabi/7.3.1/../../../../arm-none-eabi/lib/thumb/v7e-m/fpv4-sp/hard\libc_nano.a(lib_a-memset.o)
                              d:/st/stm32cubeide_1.0.2/stm32cubeide/plugins/com.st.stm32cube.ide.mcu.externaltools.gnu-tools-for-stm32.7-2018-q2-update.win32_1.0.0.201904181610/tools/bin/../lib/gcc/arm-none-eabi/7.3.1/../../../../arm-none-eabi/lib/thumb/v7e-m/fpv4-sp/hard/crt0.o (memset)
d:/st/stm32cubeide_1.0.2/stm32cubeide/plugins/com.st.stm32cube.ide.mcu.externaltools.gnu-tools-for-stm32.7-2018-q2-update.win32_1.0.0.201904181610/tools/bin/../lib/gcc/arm-none-eabi/7.3.1/../../../../arm-none-eabi/lib/thumb/v7e-m/fpv4-sp/hard\libc_nano.a(lib_a-strcat.o)
                              Core/Src/User_Parametri.o (strcat)
d:/st/stm32cubeide_1.0.2/stm32cubeide/plugins/com.st.stm32cube.ide.mcu.externaltools.gnu-tools-for-stm32.7-2018-q2-update.win32_1.0.0.201904181610/tools/bin/../lib/gcc/arm-none-eabi/7.3.1/../../../../arm-none-eabi/lib/thumb/v7e-m/fpv4-sp/hard\libc_nano.a(lib_a-strcpy.o)
                              Core/Src/User_Parametri.o (strcpy)
d:/st/stm32cubeide_1.0.2/stm32cubeide/plugins/com.st.stm32cube.ide.mcu.externaltools.gnu-tools-for-stm32.7-2018-q2-update.win32_1.0.0.201904181610/tools/bin/../lib/gcc/arm-none-eabi/7.3.1/../../../../arm-none-eabi/lib/thumb/v7e-m/fpv4-sp/hard\libc_nano.a(lib_a-strlen.o)
                              Core/Src/FT_Gpu_Hal.o (strlen)
d:/st/stm32cubeide_1.0.2/stm32cubeide/plugins/com.st.stm32cube.ide.mcu.externaltools.gnu-tools-for-stm32.7-2018-q2-update.win32_1.0.0.201904181610/tools/bin/../lib/gcc/arm-none-eabi/7.3.1/../../../../arm-none-eabi/lib/thumb/v7e-m/fpv4-sp/hard\libc_nano.a(lib_a-strncpy.o)
                              Core/Src/User_Parametri.o (strncpy)
d:/st/stm32cubeide_1.0.2/stm32cubeide/plugins/com.st.stm32cube.ide.mcu.externaltools.gnu-tools-for-stm32.7-2018-q2-update.win32_1.0.0.201904181610/tools/bin/../lib/gcc/arm-none-eabi/7.3.1/../../../../arm-none-eabi/lib/thumb/v7e-m/fpv4-sp/hard\libc_nano.a(lib_a-strtol.o)
                              d:/st/stm32cubeide_1.0.2/stm32cubeide/plugins/com.st.stm32cube.ide.mcu.externaltools.gnu-tools-for-stm32.7-2018-q2-update.win32_1.0.0.201904181610/tools/bin/../lib/gcc/arm-none-eabi/7.3.1/../../../../arm-none-eabi/lib/thumb/v7e-m/fpv4-sp/hard\libc_nano.a(lib_a-atoi.o) (_strtol_r)
d:/st/stm32cubeide_1.0.2/stm32cubeide/plugins/com.st.stm32cube.ide.mcu.externaltools.gnu-tools-for-stm32.7-2018-q2-update.win32_1.0.0.201904181610/tools/bin/../lib/gcc/arm-none-eabi/7.3.1/../../../../arm-none-eabi/lib/thumb/v7e-m/fpv4-sp/hard\libc_nano.a(lib_a-locale.o)
                              d:/st/stm32cubeide_1.0.2/stm32cubeide/plugins/com.st.stm32cube.ide.mcu.externaltools.gnu-tools-for-stm32.7-2018-q2-update.win32_1.0.0.201904181610/tools/bin/../lib/gcc/arm-none-eabi/7.3.1/../../../../arm-none-eabi/lib/thumb/v7e-m/fpv4-sp/hard\libc_nano.a(lib_a-strtol.o) (__locale_ctype_ptr_l)
d:/st/stm32cubeide_1.0.2/stm32cubeide/plugins/com.st.stm32cube.ide.mcu.externaltools.gnu-tools-for-stm32.7-2018-q2-update.win32_1.0.0.201904181610/tools/bin/../lib/gcc/arm-none-eabi/7.3.1/../../../../arm-none-eabi/lib/thumb/v7e-m/fpv4-sp/hard\libc_nano.a(lib_a-mbtowc_r.o)
                              d:/st/stm32cubeide_1.0.2/stm32cubeide/plugins/com.st.stm32cube.ide.mcu.externaltools.gnu-tools-for-stm32.7-2018-q2-update.win32_1.0.0.201904181610/tools/bin/../lib/gcc/arm-none-eabi/7.3.1/../../../../arm-none-eabi/lib/thumb/v7e-m/fpv4-sp/hard\libc_nano.a(lib_a-locale.o) (__ascii_mbtowc)
d:/st/stm32cubeide_1.0.2/stm32cubeide/plugins/com.st.stm32cube.ide.mcu.externaltools.gnu-tools-for-stm32.7-2018-q2-update.win32_1.0.0.201904181610/tools/bin/../lib/gcc/arm-none-eabi/7.3.1/../../../../arm-none-eabi/lib/thumb/v7e-m/fpv4-sp/hard\libc_nano.a(lib_a-strcmp.o)
                              d:/st/stm32cubeide_1.0.2/stm32cubeide/plugins/com.st.stm32cube.ide.mcu.externaltools.gnu-tools-for-stm32.7-2018-q2-update.win32_1.0.0.201904181610/tools/bin/../lib/gcc/arm-none-eabi/7.3.1/../../../../arm-none-eabi/lib/thumb/v7e-m/fpv4-sp/hard\libc_nano.a(lib_a-locale.o) (strcmp)
d:/st/stm32cubeide_1.0.2/stm32cubeide/plugins/com.st.stm32cube.ide.mcu.externaltools.gnu-tools-for-stm32.7-2018-q2-update.win32_1.0.0.201904181610/tools/bin/../lib/gcc/arm-none-eabi/7.3.1/../../../../arm-none-eabi/lib/thumb/v7e-m/fpv4-sp/hard\libc_nano.a(lib_a-wctomb_r.o)
                              d:/st/stm32cubeide_1.0.2/stm32cubeide/plugins/com.st.stm32cube.ide.mcu.externaltools.gnu-tools-for-stm32.7-2018-q2-update.win32_1.0.0.201904181610/tools/bin/../lib/gcc/arm-none-eabi/7.3.1/../../../../arm-none-eabi/lib/thumb/v7e-m/fpv4-sp/hard\libc_nano.a(lib_a-locale.o) (__ascii_wctomb)
d:/st/stm32cubeide_1.0.2/stm32cubeide/plugins/com.st.stm32cube.ide.mcu.externaltools.gnu-tools-for-stm32.7-2018-q2-update.win32_1.0.0.201904181610/tools/bin/../lib/gcc/arm-none-eabi/7.3.1/../../../../arm-none-eabi/lib/thumb/v7e-m/fpv4-sp/hard\libc_nano.a(lib_a-ctype_.o)
                              d:/st/stm32cubeide_1.0.2/stm32cubeide/plugins/com.st.stm32cube.ide.mcu.externaltools.gnu-tools-for-stm32.7-2018-q2-update.win32_1.0.0.201904181610/tools/bin/../lib/gcc/arm-none-eabi/7.3.1/../../../../arm-none-eabi/lib/thumb/v7e-m/fpv4-sp/hard\libc_nano.a(lib_a-locale.o) (_ctype_)
d:/st/stm32cubeide_1.0.2/stm32cubeide/plugins/com.st.stm32cube.ide.mcu.externaltools.gnu-tools-for-stm32.7-2018-q2-update.win32_1.0.0.201904181610/tools/bin/../lib/gcc/arm-none-eabi/7.3.1/thumb/v7e-m/fpv4-sp/hard\libgcc.a(_aeabi_uldivmod.o)
                              Drivers/STM32F4xx_HAL_Driver/Src/stm32f4xx_hal_rcc.o (__aeabi_uldivmod)
d:/st/stm32cubeide_1.0.2/stm32cubeide/plugins/com.st.stm32cube.ide.mcu.externaltools.gnu-tools-for-stm32.7-2018-q2-update.win32_1.0.0.201904181610/tools/bin/../lib/gcc/arm-none-eabi/7.3.1/thumb/v7e-m/fpv4-sp/hard\libgcc.a(_udivmoddi4.o)
                              d:/st/stm32cubeide_1.0.2/stm32cubeide/plugins/com.st.stm32cube.ide.mcu.externaltools.gnu-tools-for-stm32.7-2018-q2-update.win32_1.0.0.201904181610/tools/bin/../lib/gcc/arm-none-eabi/7.3.1/thumb/v7e-m/fpv4-sp/hard\libgcc.a(_aeabi_uldivmod.o) (__udivmoddi4)
d:/st/stm32cubeide_1.0.2/stm32cubeide/plugins/com.st.stm32cube.ide.mcu.externaltools.gnu-tools-for-stm32.7-2018-q2-update.win32_1.0.0.201904181610/tools/bin/../lib/gcc/arm-none-eabi/7.3.1/thumb/v7e-m/fpv4-sp/hard\libgcc.a(_dvmd_tls.o)
                              d:/st/stm32cubeide_1.0.2/stm32cubeide/plugins/com.st.stm32cube.ide.mcu.externaltools.gnu-tools-for-stm32.7-2018-q2-update.win32_1.0.0.201904181610/tools/bin/../lib/gcc/arm-none-eabi/7.3.1/thumb/v7e-m/fpv4-sp/hard\libgcc.a(_aeabi_uldivmod.o) (__aeabi_ldiv0)

Allocating common symbols
Common symbol       size              file

TWaitPB             0x2               Core/Src/DatiStufa.o
NumFan              0x1               Core/Src/DatiStufa.o
TimeSec             0x4               Core/Src/main.o
OssigenoResiduo     0x1               Core/Src/DatiStufa.o
Anain               0x4               Core/Src/adc.o
Pot3_TOffFan1       0x2               Core/Src/DatiStufa.o
Pot7_TOnFan1        0x2               Core/Src/DatiStufa.o
LinguaDef           0x1               Core/Src/DatiStufa.o
AccC_AttuaFan1      0x2               Core/Src/DatiStufa.o
SpeC_TOnCoclea      0x2               Core/Src/DatiStufa.o
Pot6_AttuaFan3      0x2               Core/Src/DatiStufa.o
AccC                0x2               Core/Src/DatiStufa.o
PortataAriaSet      0x2               Core/Src/DatiStufa.o
Pot4_TOnCoclea      0x2               Core/Src/DatiStufa.o
ScuotDurataCiclo    0x2               Core/Src/DatiStufa.o
AccB_AttuaFan1      0x2               Core/Src/DatiStufa.o
TPreAccCaldo        0x2               Core/Src/DatiStufa.o
RaffB_TOnCoclea     0x2               Core/Src/DatiStufa.o
PreAcc2_AttuaFan1   0x2               Core/Src/DatiStufa.o
PreAcc1             0x2               Core/Src/DatiStufa.o
Pot1_AttuaFan3      0x2               Core/Src/DatiStufa.o
iTempAmbPAN         0x2               Core/Src/DatiStufa.o
TPreAlmPorta        0x2               Core/Src/DatiStufa.o
PuliziaB_Esp        0x2               Core/Src/DatiStufa.o
H2O_Temp            0x2               Core/Src/DatiStufa.o
EspRitardoDec       0x2               Core/Src/DatiStufa.o
AccB_AttuaFan3      0x2               Core/Src/DatiStufa.o
TPreAcc2            0x2               Core/Src/DatiStufa.o
SpeA_TOffFan1       0x2               Core/Src/DatiStufa.o
Pot3_TOnFan1        0x2               Core/Src/DatiStufa.o
IstTempAcqua        0x1               Core/Src/DatiStufa.o
StDownload          0x1               Core/Src/user.o
WaitSetResult       0x20              Core/Src/user.o
InpBMap25           0x2               Core/Src/DatiStufa.o
RaffA_TOffFan1      0x2               Core/Src/DatiStufa.o
PreAccCaldo_Giri2   0x2               Core/Src/DatiStufa.o
AccC_TOffCoclea     0x2               Core/Src/DatiStufa.o
ServNumber          0x8               Core/Src/DatiStufa.o
PuliziaB_AttuaFan3  0x2               Core/Src/DatiStufa.o
GiriMinEspSet       0x2               Core/Src/DatiStufa.o
TempFumi            0x2               Core/Src/DatiStufa.o
hspi2               0x58              Core/Src/main.o
TBlackout           0x2               Core/Src/DatiStufa.o
FireOnA_AttuaFan2   0x2               Core/Src/DatiStufa.o
SpeA_TOnFan1        0x2               Core/Src/DatiStufa.o
FireOnA_TOffFan1    0x2               Core/Src/DatiStufa.o
PwrMode             0x1               Core/Src/OT_Plus_ph_layer.o
LedTimerHandle      0x4               Core/Src/main.o
SpeC_TOnFan1        0x2               Core/Src/DatiStufa.o
Fan3Set             0x2               Core/Src/DatiStufa.o
iCronoPrg           0x1               Core/Src/user.o
PreTempAmbPAN       0x2               Core/Src/OT_Plus.o
GainSanitari        0x2               Core/Src/DatiStufa.o
Pot7_AttuaFan2      0x2               Core/Src/DatiStufa.o
Pot2_Esp            0x2               Core/Src/DatiStufa.o
PreAccCaldo_TOnFan1
                    0x2               Core/Src/DatiStufa.o
RicEspAcc           0x2               Core/Src/DatiStufa.o
DeltaSanitari       0x1               Core/Src/DatiStufa.o
AccC_AttuaFan3      0x2               Core/Src/DatiStufa.o
Pot6_AttuaFan1      0x2               Core/Src/DatiStufa.o
host                0x14              Core/Src/user.o
FotoresThresOn      0x2               Core/Src/DatiStufa.o
Local_ISO3166_1_Code
                    0x3               Core/Src/DatiStufa.o
Pot7_TOffFan1       0x2               Core/Src/DatiStufa.o
InpBMap24           0x2               Core/Src/DatiStufa.o
RaffB_AttuaFan3     0x2               Core/Src/DatiStufa.o
Pot4_Giri2          0x2               Core/Src/DatiStufa.o
PreAcc2_TOffFan1    0x2               Core/Src/DatiStufa.o
TempAlarmFumi       0x2               Core/Src/DatiStufa.o
TempPreAlarmFumi    0x2               Core/Src/DatiStufa.o
SecCounter          0x4               Core/Src/rtc.o
Pulizia_Portata     0x2               Core/Src/DatiStufa.o
SpeB_TOnFan1        0x2               Core/Src/DatiStufa.o
PotMaxGiri          0x2               Core/Src/DatiStufa.o
ResRevision         0x1               Core/Src/res.o
PanEnab3            0x1               Core/Src/DatiStufa.o
Pulizia             0x2               Core/Src/DatiStufa.o
PreAccCaldo_TOffCoclea
                    0x2               Core/Src/DatiStufa.o
GradienteECO        0x1               Core/Src/DatiStufa.o
Pulizia_TOnCoclea   0x2               Core/Src/DatiStufa.o
pChLogo             0x10              Core/Src/languages.o
hi2c1               0x54              Core/Src/main.o
PuliziaB_Giri2      0x2               Core/Src/DatiStufa.o
FireOnB_Giri2       0x2               Core/Src/DatiStufa.o
PotRitardoInc       0x2               Core/Src/DatiStufa.o
gBySchedaBuild      0x1               Core/Src/DatiStufa.o
PotMaxPortata       0x2               Core/Src/DatiStufa.o
hiwdg               0xc               Core/Src/main.o
TPB                 0x2               Core/Src/DatiStufa.o
MinOrologio         0x1               Core/Src/DatiStufa.o
Pot5_Giri2          0x2               Core/Src/DatiStufa.o
RaffA_Giri2         0x2               Core/Src/DatiStufa.o
PreAcc2_Esp         0x2               Core/Src/DatiStufa.o
MAINHandle          0x4               Core/Src/main.o
CoilBMap0           0x2               Core/Src/DatiStufa.o
Pot8_Giri2          0x2               Core/Src/DatiStufa.o
DurataPreAllPellet  0x2               Core/Src/DatiStufa.o
Pulizia_AttuaFan1   0x2               Core/Src/DatiStufa.o
FotoresThresOff     0x2               Core/Src/DatiStufa.o
RaffB_TOffCoclea    0x2               Core/Src/DatiStufa.o
TSpeA               0x2               Core/Src/DatiStufa.o
Spenta_AttuaFan3    0x2               Core/Src/DatiStufa.o
iLivMenu            0x1               Core/Src/userMenu.o
userSubState        0x1               Core/Src/user.o
TOffCocleaSet       0x2               Core/Src/DatiStufa.o
RaffB_Esp           0x2               Core/Src/DatiStufa.o
Pot5_TOffFan1       0x2               Core/Src/DatiStufa.o
FireOnB_TOffCoclea  0x2               Core/Src/DatiStufa.o
Fan2Set             0x2               Core/Src/DatiStufa.o
AccA_Giri2          0x2               Core/Src/DatiStufa.o
FireOnB_Esp         0x2               Core/Src/DatiStufa.o
Pot5_TOnFan1        0x2               Core/Src/DatiStufa.o
PreAcc2_AttuaFan2   0x2               Core/Src/DatiStufa.o
SpeB_Portata        0x2               Core/Src/DatiStufa.o
TAlarmPorta         0x2               Core/Src/DatiStufa.o
gBySicurezzaVers    0x1               Core/Src/DatiStufa.o
TempSogliaFumi      0x2               Core/Src/DatiStufa.o
DriverRev           0x1               Core/Src/DatiStufa.o
SpeB_AttuaFan3      0x2               Core/Src/DatiStufa.o
PortaIP             0x2               Core/Src/DatiStufa.o
Pot6_Esp            0x2               Core/Src/DatiStufa.o
Pot6                0x2               Core/Src/DatiStufa.o
SpeA_AttuaFan3      0x2               Core/Src/DatiStufa.o
ContaPID            0x1               Core/Src/DatiStufa.o
PreAcc2NumExec      0x1               Core/Src/DatiStufa.o
PreAcc1_Giri2       0x2               Core/Src/DatiStufa.o
Pot6_TOffCoclea     0x2               Core/Src/DatiStufa.o
TipoStufa           0x1               Core/Src/DatiStufa.o
TSetOnPompa         0x1               Core/Src/DatiStufa.o
Pot7_Giri2          0x2               Core/Src/DatiStufa.o
uwTick              0x4               Drivers/STM32F4xx_HAL_Driver/Src/stm32f4xx_hal.o
AccB_TOffCoclea     0x2               Core/Src/DatiStufa.o
xQueueRegistry      0x40              Middlewares/Third_Party/FreeRTOS/Source/queue.o
Pot5_AttuaFan3      0x2               Core/Src/DatiStufa.o
Dns                 0x4               Core/Src/DatiStufa.o
userCounterTime     0x4               Core/Src/user.o
CtrlArea            0x10              Core/Src/res.o
TempOnFumi          0x2               Core/Src/DatiStufa.o
PreAcc1_TOnFan1     0x2               Core/Src/DatiStufa.o
PotIdro             0x1               Core/Src/DatiStufa.o
TWaitScuot          0x2               Core/Src/DatiStufa.o
Pot3_AttuaFan2      0x2               Core/Src/DatiStufa.o
Pot4_AttuaFan3      0x2               Core/Src/DatiStufa.o
SpeC_Portata        0x2               Core/Src/DatiStufa.o
pFlash              0x20              Drivers/STM32F4xx_HAL_Driver/Src/stm32f4xx_hal_flash.o
ContaDurataEco      0x2               Core/Src/DatiStufa.o
Pot2                0x2               Core/Src/DatiStufa.o
TempP3              0x2               Core/Src/DatiStufa.o
PuliziaB_TOffCoclea
                    0x2               Core/Src/DatiStufa.o
InpBMap21           0x2               Core/Src/DatiStufa.o
RAMFontTableAddr    0x3c              Core/Src/fonts.o
OT_Stat             0x1               Core/Src/OT_Plus.o
Pulizia_TOffFan1    0x2               Core/Src/DatiStufa.o
Pot6_TOnFan1        0x2               Core/Src/DatiStufa.o
Pot1_TOffCoclea     0x2               Core/Src/DatiStufa.o
Pot1_AttuaFan2      0x2               Core/Src/DatiStufa.o
SpeC_TOffFan1       0x2               Core/Src/DatiStufa.o
MinSetFan3          0x1               Core/Src/DatiStufa.o
SpeC_TOffCoclea     0x2               Core/Src/DatiStufa.o
Pot8_Esp            0x2               Core/Src/DatiStufa.o
Pot7_AttuaFan1      0x2               Core/Src/DatiStufa.o
HoldBMap8194        0x2               Core/Src/DatiStufa.o
Pot3_Portata        0x2               Core/Src/DatiStufa.o
SpeA_Portata        0x2               Core/Src/DatiStufa.o
SpeB_TOnCoclea      0x2               Core/Src/DatiStufa.o
StatoStufa          0x1               Core/Src/DatiStufa.o
fontTitle           0x1               Core/Src/res.o
Pot5_AttuaFan2      0x2               Core/Src/DatiStufa.o
Pot3                0x2               Core/Src/DatiStufa.o
SpeB_Giri2          0x2               Core/Src/DatiStufa.o
AccA_TOnFan1        0x2               Core/Src/DatiStufa.o
SpeB_AttuaFan1      0x2               Core/Src/DatiStufa.o
AccB                0x2               Core/Src/DatiStufa.o
Pot2_TOffCoclea     0x2               Core/Src/DatiStufa.o
Spenta_AttuaFan1    0x2               Core/Src/DatiStufa.o
PotMaxCoclea        0x1               Core/Src/DatiStufa.o
PeriodoFan1         0x2               Core/Src/DatiStufa.o
SpeA_TOnCoclea      0x2               Core/Src/DatiStufa.o
iVoceMenu           0x6               Core/Src/userMenu.o
gunTemp             0x1               Core/Src/DatiStufa.o
Spenta_TOffCoclea   0x2               Core/Src/DatiStufa.o
Pulizia_TOffCoclea  0x2               Core/Src/DatiStufa.o
SetpSanitari        0x2               Core/Src/DatiStufa.o
cntRetry            0x1               Core/Src/OT_Plus_data_layer.o
Pot2_TOnCoclea      0x2               Core/Src/DatiStufa.o
FireOnB_AttuaFan2   0x2               Core/Src/DatiStufa.o
DurataMaxPreAllFumi
                    0x2               Core/Src/DatiStufa.o
VBatt               0x2               Core/Src/DecodInput.o
iLimReq             0x1               Core/Src/OT_Plus.o
FireOnA_TOnCoclea   0x2               Core/Src/DatiStufa.o
Pot6_AttuaFan2      0x2               Core/Src/DatiStufa.o
OT_Result           0x1               Core/Src/OT_Plus.o
PuliziaB_Portata    0x2               Core/Src/DatiStufa.o
HoldBMap8315        0x2               Core/Src/DatiStufa.o
DeltaPortata        0x1               Core/Src/DatiStufa.o
AccB_AttuaFan2      0x2               Core/Src/DatiStufa.o
DigInput            0x1               Core/Src/DecodInput.o
PreAccCaldo_AttuaFan1
                    0x2               Core/Src/DatiStufa.o
Pot4_TOffFan1       0x2               Core/Src/DatiStufa.o
PreAccCaldo         0x2               Core/Src/DatiStufa.o
PuliziaB_AttuaFan2  0x2               Core/Src/DatiStufa.o
PreAccCaldo_TOnCoclea
                    0x2               Core/Src/DatiStufa.o
hadc1               0x48              Core/Src/main.o
iFontGroup          0x1               Core/Src/res.o
WPSPin              0x5               Core/Src/DatiStufa.o
Pot4_Portata        0x2               Core/Src/DatiStufa.o
GradienteAlmFumi    0x1               Core/Src/DatiStufa.o
PreAcc1_AttuaFan3   0x2               Core/Src/DatiStufa.o
Pot8_TOnCoclea      0x2               Core/Src/DatiStufa.o
AccA_TOffCoclea     0x2               Core/Src/DatiStufa.o
Pot2_TOnFan1        0x2               Core/Src/DatiStufa.o
Sleep               0x2               Core/Src/crono.o
tmpRFid             0x1               Core/Src/user.o
PreAcc1_TOnCoclea   0x2               Core/Src/DatiStufa.o
SpeC_AttuaFan1      0x2               Core/Src/DatiStufa.o
ResMaintenance      0x1               Core/Src/res.o
Consumo             0x2               Core/Src/DatiStufa.o
AccA_AttuaFan1      0x2               Core/Src/DatiStufa.o
StatoLogicoPassato  0x1               Core/Src/DatiStufa.o
Pot8_Portata        0x2               Core/Src/DatiStufa.o
StructSPI_2         0x4               Core/Src/DatiStufa.o
printfMutexHandle   0x4               Core/Src/main.o
userCurrentState    0x1               Core/Src/user.o
DurataBlkoutRecovery
                    0x2               Core/Src/DatiStufa.o
Spenta_Esp          0x2               Core/Src/DatiStufa.o
fontValue           0x1               Core/Src/res.o
PortataCritica      0x2               Core/Src/DatiStufa.o
AccC_AttuaFan2      0x2               Core/Src/DatiStufa.o
RaffA               0x2               Core/Src/DatiStufa.o
FireOnB_TOffFan1    0x2               Core/Src/DatiStufa.o
FireOnB_AttuaFan1   0x2               Core/Src/DatiStufa.o
SpeC                0x2               Core/Src/DatiStufa.o
PercVBatt           0x2               Core/Src/DecodInput.o
Pot8_TOffFan1       0x2               Core/Src/DatiStufa.o
CryptoKey           0x41              Core/Src/DatiStufa.o
fontMax             0x1               Core/Src/res.o
Pot8                0x2               Core/Src/DatiStufa.o
Pot8_AttuaFan2      0x2               Core/Src/DatiStufa.o
sDescPar            0x5               Core/Src/userMenu.o
Pot1_TOnFan1        0x2               Core/Src/DatiStufa.o
gBySchedaRev        0x1               Core/Src/DatiStufa.o
Pulizia_Giri2       0x2               Core/Src/DatiStufa.o
Pot1_TOnCoclea      0x2               Core/Src/DatiStufa.o
PuliziaB_TOnFan1    0x2               Core/Src/DatiStufa.o
DateTime            0x8               Core/Src/rtc.o
ADCxConvertedValue  0x4               Core/Src/adc.o
PreAcc1NumExec      0x1               Core/Src/DatiStufa.o
TSpeC               0x2               Core/Src/DatiStufa.o
RaffB_AttuaFan2     0x2               Core/Src/DatiStufa.o
Pot2_TOffFan1       0x2               Core/Src/DatiStufa.o
SpeA_TOffCoclea     0x2               Core/Src/DatiStufa.o
TPreAlmAriaCombust  0x2               Core/Src/DatiStufa.o
RicEsp              0x2               Core/Src/DatiStufa.o
Pot7_Portata        0x2               Core/Src/DatiStufa.o
RaffA_TOnFan1       0x2               Core/Src/DatiStufa.o
H2O_TSet            0x1               Core/Src/DatiStufa.o
AccC_TOffFan1       0x2               Core/Src/DatiStufa.o
OT_DL_RFFilter      0x1               Core/Src/OT_Plus_data_layer.o
RaffB_Giri2         0x2               Core/Src/DatiStufa.o
Pot6_TOffFan1       0x2               Core/Src/DatiStufa.o
gBySchedaVers       0x1               Core/Src/DatiStufa.o
FireOnB_AttuaFan3   0x2               Core/Src/DatiStufa.o
AccA_Esp            0x2               Core/Src/DatiStufa.o
SpeC_AttuaFan3      0x2               Core/Src/DatiStufa.o
Pot7_TOnCoclea      0x2               Core/Src/DatiStufa.o
Giri2Set            0x2               Core/Src/DatiStufa.o
VelocitaEspulsore2  0x2               Core/Src/DatiStufa.o
CntSenseBat         0x1               Core/Src/DecodInput.o
ContaDurata2        0x2               Core/Src/DatiStufa.o
cntPausa            0x1               Core/Src/OT_Plus_data_layer.o
TFireOn             0x2               Core/Src/DatiStufa.o
TRaffA              0x2               Core/Src/DatiStufa.o
TempSogliaScamb     0x2               Core/Src/DatiStufa.o
BattUp              0x1               Core/Src/DecodInput.o
H2O_Flow            0x1               Core/Src/DatiStufa.o
RaffB_TOffFan1      0x2               Core/Src/DatiStufa.o
TipoFrenataCoclea   0x1               Core/Src/DatiStufa.o
hdma_adc1           0x60              Core/Src/main.o
AccA_TOnCoclea      0x2               Core/Src/DatiStufa.o
TipoMotoreEsp2      0x1               Core/Src/DatiStufa.o
DriverCod           0x1               Core/Src/DatiStufa.o
RaffB_Portata       0x2               Core/Src/DatiStufa.o
HoldBMap6           0x2               Core/Src/DatiStufa.o
OpeMode             0x1               Core/Src/main.o
TempP0              0x2               Core/Src/DatiStufa.o
Pot6_Giri2          0x2               Core/Src/DatiStufa.o
Ossigeno            0x1               Core/Src/DatiStufa.o
TOffFan1Set         0x2               Core/Src/DatiStufa.o
hrtc                0x20              Core/Src/main.o
DataFan3            0x4               Core/Src/DatiStufa.o
Spenta_AttuaFan2    0x2               Core/Src/DatiStufa.o
iPageMenu           0x6               Core/Src/userMenu.o
EVEMutexHandle      0x4               Core/Src/main.o
RaffA_Portata       0x2               Core/Src/DatiStufa.o
str1                0x10f             Core/Src/Utils.o
TAccB               0x2               Core/Src/DatiStufa.o
FireOnA             0x2               Core/Src/DatiStufa.o
PreAcc1_TOffCoclea  0x2               Core/Src/DatiStufa.o
AccB_TOffFan1       0x2               Core/Src/DatiStufa.o
AccC_Portata        0x2               Core/Src/DatiStufa.o
userNextPointer     0x4               Core/Src/user.o
PotAttuata          0x1               Core/Src/DatiStufa.o
USERHandle          0x4               Core/Src/main.o
NVRam               0x50              Core/Src/nvram.o
userParValue        0x4               Core/Src/user.o
RicPelletAcc        0x2               Core/Src/DatiStufa.o
PreAcc2             0x2               Core/Src/DatiStufa.o
Pot7_Esp            0x2               Core/Src/DatiStufa.o
Pot4_Esp            0x2               Core/Src/DatiStufa.o
DataSPI0            0x4               Core/Src/DatiStufa.o
Ssid                0x21              Core/Src/DatiStufa.o
AccC_TOnFan1        0x2               Core/Src/DatiStufa.o
IdRF                0x1               Core/Src/DatiStufa.o
Pot2_Portata        0x2               Core/Src/DatiStufa.o
AccB_Esp            0x2               Core/Src/DatiStufa.o
PotRitardoDec       0x2               Core/Src/DatiStufa.o
RaffB_AttuaFan1     0x2               Core/Src/DatiStufa.o
Pot2_AttuaFan2      0x2               Core/Src/DatiStufa.o
AccA_TOffFan1       0x2               Core/Src/DatiStufa.o
StatoLogico         0x1               Core/Src/DatiStufa.o
TempAmb             0x2               Core/Src/DecodInput.o
Pot4_TOnFan1        0x2               Core/Src/DatiStufa.o
SpeB_TOffCoclea     0x2               Core/Src/DatiStufa.o
PreAcc1_TOffFan1    0x2               Core/Src/DatiStufa.o
Pot5_TOnCoclea      0x2               Core/Src/DatiStufa.o
Pot1_Giri2          0x2               Core/Src/DatiStufa.o
TSwitchOnECO        0x2               Core/Src/DatiStufa.o
ParamCode           0x2               Core/Src/DatiStufa.o
gBySicurezzaCod     0x1               Core/Src/DatiStufa.o
Pot4_AttuaFan2      0x2               Core/Src/DatiStufa.o
Pot5                0x2               Core/Src/DatiStufa.o
SpeA_AttuaFan2      0x2               Core/Src/DatiStufa.o
InpBMap23           0x2               Core/Src/DatiStufa.o
Pot1_TOffFan1       0x2               Core/Src/DatiStufa.o
ConfigIdro          0x1               Core/Src/DatiStufa.o
K_Sonda             0x1               Core/Src/DatiStufa.o
AccA_AttuaFan3      0x2               Core/Src/DatiStufa.o
MinSetFan2          0x1               Core/Src/DatiStufa.o
OreSAT              0x2               Core/Src/DatiStufa.o
MinSetFan1          0x1               Core/Src/DatiStufa.o
PreAcc1_Esp         0x2               Core/Src/DatiStufa.o
gStrCmdMB           0x4               Core/Src/DatiStufa.o
FireOnA_AttuaFan1   0x2               Core/Src/DatiStufa.o
SecOrologio         0x1               Core/Src/DatiStufa.o
MinPowerPB          0x1               Core/Src/DatiStufa.o
maxLen              0x1               Core/Src/userMenu.o
Pot3_Giri2          0x2               Core/Src/DatiStufa.o
TAccC               0x2               Core/Src/DatiStufa.o
SpeA_Esp            0x2               Core/Src/DatiStufa.o
FireOnB_TOnCoclea   0x2               Core/Src/DatiStufa.o
Pot5_AttuaFan1      0x2               Core/Src/DatiStufa.o
H2O_TSetSan         0x1               Core/Src/DatiStufa.o
Pot1                0x2               Core/Src/DatiStufa.o
PotCalc             0x1               Core/Src/DatiStufa.o
TShutDownECO        0x2               Core/Src/DatiStufa.o
Spenta_TOnFan1      0x2               Core/Src/DatiStufa.o
TempP2              0x2               Core/Src/DatiStufa.o
AccB_Giri2          0x2               Core/Src/DatiStufa.o
ScuotNCicli         0x1               Core/Src/DatiStufa.o
FireOnB_Portata     0x2               Core/Src/DatiStufa.o
FireOnA_Giri2       0x2               Core/Src/DatiStufa.o
Pot1_Esp            0x2               Core/Src/DatiStufa.o
AccA                0x2               Core/Src/DatiStufa.o
TWarmUp             0x2               Core/Src/DatiStufa.o
PreAcc1_AttuaFan2   0x2               Core/Src/DatiStufa.o
Pot8_TOnFan1        0x2               Core/Src/DatiStufa.o
PuliziaB_TOffFan1   0x2               Core/Src/DatiStufa.o
pByPassCodice       0x1               Core/Src/DatiStufa.o
DeltaTempCaldo      0x1               Core/Src/DatiStufa.o
Pot7_TOffCoclea     0x2               Core/Src/DatiStufa.o
Pot1_AttuaFan1      0x2               Core/Src/DatiStufa.o
PreAcc2_Giri2       0x2               Core/Src/DatiStufa.o
PuliziaB_AttuaFan1  0x2               Core/Src/DatiStufa.o
PuliziaB_TOnCoclea  0x2               Core/Src/DatiStufa.o
pByPassLettera      0x1               Core/Src/DatiStufa.o
cntExit4Alarm       0x1               Core/Src/user.o
RaffA_AttuaFan3     0x2               Core/Src/DatiStufa.o
RaffA_AttuaFan1     0x2               Core/Src/DatiStufa.o
TPreAcc1            0x2               Core/Src/DatiStufa.o
PortataAria         0x2               Core/Src/DatiStufa.o
OreFunz             0x4               Core/Src/DatiStufa.o
CTPHandle           0x4               Core/Src/main.o
Pot7_AttuaFan3      0x2               Core/Src/DatiStufa.o
Ip                  0x4               Core/Src/DatiStufa.o
Pot5_Portata        0x2               Core/Src/DatiStufa.o
GainRisc            0x2               Core/Src/DatiStufa.o
Pot2_Giri2          0x2               Core/Src/DatiStufa.o
SpeA_AttuaFan1      0x2               Core/Src/DatiStufa.o
pStringSet_RawData_Header
                    0x4               Core/Src/languages.o
PuliziaB            0x2               Core/Src/DatiStufa.o
HoldBMap286         0x2               Core/Src/DatiStufa.o
huart6              0x40              Core/Src/main.o
UserRequest         0x1               Core/Src/main.o
PreAcc1_AttuaFan1   0x2               Core/Src/DatiStufa.o
AccB_Portata        0x2               Core/Src/DatiStufa.o
Spenta_Portata      0x2               Core/Src/DatiStufa.o
HoldBMap305         0x2               Core/Src/DatiStufa.o
SetIdroPompaOff     0x1               Core/Src/DatiStufa.o
Pulizia_AttuaFan3   0x2               Core/Src/DatiStufa.o
PreAcc2_TOnFan1     0x2               Core/Src/DatiStufa.o
InpBMap115          0x2               Core/Src/DatiStufa.o
Spenta_TOffFan1     0x2               Core/Src/DatiStufa.o
Pot1_Portata        0x2               Core/Src/DatiStufa.o
TOnAux              0x1               Core/Src/DatiStufa.o
LivAccesso          0x1               Core/Src/userMenu.o
StatoAttuazioni     0x1               Core/Src/DatiStufa.o
hspi1               0x58              Core/Src/main.o
Font_RawData_Header
                    0xa2              Core/Src/fonts.o
Pot3_Esp            0x2               Core/Src/DatiStufa.o
FireOnA_Esp         0x2               Core/Src/DatiStufa.o
HoldBMap8316        0x2               Core/Src/DatiStufa.o
gBySicurezzaBuild   0x1               Core/Src/DatiStufa.o
TempoOn             0x2               Core/Src/DatiStufa.o
SpeB_TOffFan1       0x2               Core/Src/DatiStufa.o
rfID                0x1               Core/Src/OT_Plus_ph_layer.o
TFireOnB            0x2               Core/Src/DatiStufa.o
AccB_TOnCoclea      0x2               Core/Src/DatiStufa.o
PreAcc2_AttuaFan3   0x2               Core/Src/DatiStufa.o
OTdelay             0x1               Core/Src/DatiStufa.o
TPBB                0x2               Core/Src/DatiStufa.o
Pot6_TOnCoclea      0x2               Core/Src/DatiStufa.o
Pot4_TOffCoclea     0x2               Core/Src/DatiStufa.o
SigleStati          0xc               Core/Src/res.o
VelocitaEspulsore   0x2               Core/Src/DatiStufa.o
TOnCocleaSet        0x2               Core/Src/DatiStufa.o
pChTipoDesc         0x48              Core/Src/languages.o
RicPellet           0x2               Core/Src/DatiStufa.o
Pot3_AttuaFan1      0x2               Core/Src/DatiStufa.o
Pot2_AttuaFan3      0x2               Core/Src/DatiStufa.o
AttEsp              0x2               Core/Src/DatiStufa.o
FireOnB             0x2               Core/Src/DatiStufa.o
RaffA_TOnCoclea     0x2               Core/Src/DatiStufa.o
huart2              0x40              Core/Src/main.o
RaffA_TOffCoclea    0x2               Core/Src/DatiStufa.o
Pot5_Esp            0x2               Core/Src/DatiStufa.o
PreAccCaldo_AttuaFan2
                    0x2               Core/Src/DatiStufa.o
NumFontGroup        0x1               Core/Src/fonts.o
ResVersion          0x1               Core/Src/res.o
I2CMutexHandle      0x4               Core/Src/main.o
Pot3_TOnCoclea      0x2               Core/Src/DatiStufa.o
RaffB               0x2               Core/Src/DatiStufa.o
AccA_Portata        0x2               Core/Src/DatiStufa.o
SpeA                0x2               Core/Src/DatiStufa.o
str                 0x10f             Core/Src/Utils.o
SpeC_Esp            0x2               Core/Src/DatiStufa.o
Fan1Set             0x2               Core/Src/DatiStufa.o
Spenta              0x2               Core/Src/DatiStufa.o
TOnFan1Set          0x2               Core/Src/DatiStufa.o
Pot8_AttuaFan3      0x2               Core/Src/DatiStufa.o
LivFotores          0x2               Core/Src/DatiStufa.o
OT_DL_Stat          0x1               Core/Src/OT_Plus_data_layer.o
PreAcc2_TOffCoclea  0x2               Core/Src/DatiStufa.o
Pulizia_TOnFan1     0x2               Core/Src/DatiStufa.o
strTab              0x27e             Core/Src/userMenu.o
PesataPellet        0x2               Core/Src/DatiStufa.o
TempOnScamb         0x2               Core/Src/DatiStufa.o
NumLanguage         0x1               Core/Src/DatiStufa.o
PreAccCaldo_Esp     0x2               Core/Src/DatiStufa.o
SystemFlags         0x4               Core/Src/main.o
DeltaTAssenzaFiamma
                    0x1               Core/Src/DatiStufa.o
AccC_TOnCoclea      0x2               Core/Src/DatiStufa.o
NumAcc              0x2               Core/Src/DatiStufa.o
AccC_Giri2          0x2               Core/Src/DatiStufa.o
StatoAllBlack       0x1               Core/Src/DatiStufa.o
SpeB                0x2               Core/Src/DatiStufa.o
gBySicurezzaRev     0x1               Core/Src/DatiStufa.o
HoldBMap23          0x2               Core/Src/DatiStufa.o
SpeC_AttuaFan2      0x2               Core/Src/DatiStufa.o
gBySchedaCod        0x1               Core/Src/DatiStufa.o
OT_NextStat         0x1               Core/Src/OT_Plus.o
Pot7                0x2               Core/Src/DatiStufa.o
TRaffB              0x2               Core/Src/DatiStufa.o
TempP4              0x2               Core/Src/DatiStufa.o
AccB_TOnFan1        0x2               Core/Src/DatiStufa.o
TempOffFumi         0x2               Core/Src/DatiStufa.o
RaffB_TOnFan1       0x2               Core/Src/DatiStufa.o
PreAccCaldo_TOffFan1
                    0x2               Core/Src/DatiStufa.o
FireOnA_TOffCoclea  0x2               Core/Src/DatiStufa.o
str2                0x10f             Core/Src/Utils.o
AlarmRecord         0x32              Core/Src/userAllarmi.o
SpeB_Esp            0x2               Core/Src/DatiStufa.o
RaffA_Esp           0x2               Core/Src/DatiStufa.o
Pot8_TOffCoclea     0x2               Core/Src/DatiStufa.o
Spenta_Giri2        0x2               Core/Src/DatiStufa.o
TempP1              0x2               Core/Src/DatiStufa.o
InpBMap22           0x2               Core/Src/DatiStufa.o
PreAccCaldo_AttuaFan3
                    0x2               Core/Src/DatiStufa.o
OT_DL_Pausa         0x2               Core/Src/OT_Plus_data_layer.o
FireOnA_AttuaFan3   0x2               Core/Src/DatiStufa.o
RaffA_AttuaFan2     0x2               Core/Src/DatiStufa.o
Spenta_TOnCoclea    0x2               Core/Src/DatiStufa.o
Pot5_TOffCoclea     0x2               Core/Src/DatiStufa.o
TempAmbMB           0x2               Core/Src/DatiStufa.o
TipoAllarme         0x1               Core/Src/DatiStufa.o
Gateway             0x4               Core/Src/DatiStufa.o
PreAcc2_Portata     0x2               Core/Src/DatiStufa.o
EspRitardoInc       0x2               Core/Src/DatiStufa.o
OreSATLimite        0x2               Core/Src/DatiStufa.o
PeriodoCoclea       0x2               Core/Src/DatiStufa.o
PressH2OMax         0x1               Core/Src/DatiStufa.o
ContaDurata1        0x1               Core/Src/DatiStufa.o
TouchQueueHandle    0x4               Core/Src/user.o
TSpeB               0x2               Core/Src/DatiStufa.o
Pot2_AttuaFan1      0x2               Core/Src/DatiStufa.o
OT_LimitStep_Requested
                    0x2a              Core/Src/OT_Plus.o
Subnet              0x4               Core/Src/DatiStufa.o
SpeC_Giri2          0x2               Core/Src/DatiStufa.o
Pulizia_AttuaFan2   0x2               Core/Src/DatiStufa.o
TipoFrenataFan1     0x1               Core/Src/DatiStufa.o
FireOnB_TOnFan1     0x2               Core/Src/DatiStufa.o
Pulizia_Esp         0x2               Core/Src/DatiStufa.o
Pot6_Portata        0x2               Core/Src/DatiStufa.o
HoldBMap306         0x2               Core/Src/DatiStufa.o
DriverBuild         0x1               Core/Src/DatiStufa.o
Pot3_AttuaFan3      0x2               Core/Src/DatiStufa.o
PreAcc1_Portata     0x2               Core/Src/DatiStufa.o
fontDesc            0x1               Core/Src/res.o
Pot4_AttuaFan1      0x2               Core/Src/DatiStufa.o
CntChargeBat        0x1               Core/Src/DecodInput.o
Pot4                0x2               Core/Src/DatiStufa.o
FireOnA_Portata     0x2               Core/Src/DatiStufa.o
iLanguage           0x1               Core/Src/DatiStufa.o
AccC_Esp            0x2               Core/Src/DatiStufa.o
DriverVers          0x1               Core/Src/DatiStufa.o
TipoMotoreEsp       0x1               Core/Src/DatiStufa.o
Pot8_AttuaFan1      0x2               Core/Src/DatiStufa.o
Flag                0x1               Core/Src/user.o
PreAccCaldo_Portata
                    0x2               Core/Src/DatiStufa.o
PreAcc2_TOnCoclea   0x2               Core/Src/DatiStufa.o
IndexVisItem        0x19              Core/Src/userMenu.o
SpeA_Giri2          0x2               Core/Src/DatiStufa.o
SpeB_AttuaFan2      0x2               Core/Src/DatiStufa.o
ParamRel            0x2               Core/Src/DatiStufa.o
Pot3_TOffCoclea     0x2               Core/Src/DatiStufa.o
FireOnA_TOnFan1     0x2               Core/Src/DatiStufa.o
AccA_AttuaFan2      0x2               Core/Src/DatiStufa.o

Discarded input sections

 .text          0x0000000000000000        0x0 d:/st/stm32cubeide_1.0.2/stm32cubeide/plugins/com.st.stm32cube.ide.mcu.externaltools.gnu-tools-for-stm32.7-2018-q2-update.win32_1.0.0.201904181610/tools/bin/../lib/gcc/arm-none-eabi/7.3.1/thumb/v7e-m/fpv4-sp/hard/crti.o
 .data          0x0000000000000000        0x0 d:/st/stm32cubeide_1.0.2/stm32cubeide/plugins/com.st.stm32cube.ide.mcu.externaltools.gnu-tools-for-stm32.7-2018-q2-update.win32_1.0.0.201904181610/tools/bin/../lib/gcc/arm-none-eabi/7.3.1/thumb/v7e-m/fpv4-sp/hard/crti.o
 .bss           0x0000000000000000        0x0 d:/st/stm32cubeide_1.0.2/stm32cubeide/plugins/com.st.stm32cube.ide.mcu.externaltools.gnu-tools-for-stm32.7-2018-q2-update.win32_1.0.0.201904181610/tools/bin/../lib/gcc/arm-none-eabi/7.3.1/thumb/v7e-m/fpv4-sp/hard/crti.o
 .data          0x0000000000000000        0x4 d:/st/stm32cubeide_1.0.2/stm32cubeide/plugins/com.st.stm32cube.ide.mcu.externaltools.gnu-tools-for-stm32.7-2018-q2-update.win32_1.0.0.201904181610/tools/bin/../lib/gcc/arm-none-eabi/7.3.1/thumb/v7e-m/fpv4-sp/hard/crtbegin.o
 .text          0x0000000000000000       0x74 d:/st/stm32cubeide_1.0.2/stm32cubeide/plugins/com.st.stm32cube.ide.mcu.externaltools.gnu-tools-for-stm32.7-2018-q2-update.win32_1.0.0.201904181610/tools/bin/../lib/gcc/arm-none-eabi/7.3.1/../../../../arm-none-eabi/lib/thumb/v7e-m/fpv4-sp/hard/crt0.o
 .data          0x0000000000000000        0x0 d:/st/stm32cubeide_1.0.2/stm32cubeide/plugins/com.st.stm32cube.ide.mcu.externaltools.gnu-tools-for-stm32.7-2018-q2-update.win32_1.0.0.201904181610/tools/bin/../lib/gcc/arm-none-eabi/7.3.1/../../../../arm-none-eabi/lib/thumb/v7e-m/fpv4-sp/hard/crt0.o
 .bss           0x0000000000000000        0x0 d:/st/stm32cubeide_1.0.2/stm32cubeide/plugins/com.st.stm32cube.ide.mcu.externaltools.gnu-tools-for-stm32.7-2018-q2-update.win32_1.0.0.201904181610/tools/bin/../lib/gcc/arm-none-eabi/7.3.1/../../../../arm-none-eabi/lib/thumb/v7e-m/fpv4-sp/hard/crt0.o
 .ARM.extab     0x0000000000000000        0x0 d:/st/stm32cubeide_1.0.2/stm32cubeide/plugins/com.st.stm32cube.ide.mcu.externaltools.gnu-tools-for-stm32.7-2018-q2-update.win32_1.0.0.201904181610/tools/bin/../lib/gcc/arm-none-eabi/7.3.1/../../../../arm-none-eabi/lib/thumb/v7e-m/fpv4-sp/hard/crt0.o
 .ARM.exidx     0x0000000000000000        0x8 d:/st/stm32cubeide_1.0.2/stm32cubeide/plugins/com.st.stm32cube.ide.mcu.externaltools.gnu-tools-for-stm32.7-2018-q2-update.win32_1.0.0.201904181610/tools/bin/../lib/gcc/arm-none-eabi/7.3.1/../../../../arm-none-eabi/lib/thumb/v7e-m/fpv4-sp/hard/crt0.o
 .ARM.attributes
                0x0000000000000000       0x20 d:/st/stm32cubeide_1.0.2/stm32cubeide/plugins/com.st.stm32cube.ide.mcu.externaltools.gnu-tools-for-stm32.7-2018-q2-update.win32_1.0.0.201904181610/tools/bin/../lib/gcc/arm-none-eabi/7.3.1/../../../../arm-none-eabi/lib/thumb/v7e-m/fpv4-sp/hard/crt0.o
 .group         0x0000000000000000        0xc Core/Src/DataFlash.o
 .group         0x0000000000000000        0xc Core/Src/DataFlash.o
 .group         0x0000000000000000        0xc Core/Src/DataFlash.o
 .group         0x0000000000000000        0xc Core/Src/DataFlash.o
 .group         0x0000000000000000        0xc Core/Src/DataFlash.o
 .group         0x0000000000000000        0xc Core/Src/DataFlash.o
 .group         0x0000000000000000        0xc Core/Src/DataFlash.o
Memory Configuration

Name             Origin             Length             Attributes
RAM              0x0000000020000000 0x0000000000020000 xrw
FLASH            0x0000000008000000 0x0000000000080000 xr
*default*        0x0000000000000000 0xffffffffffffffff

Linker script and memory map

LOAD d:/st/stm32cubeide_1.0.2/stm32cubeide/plugins/com.st.stm32cube.ide.mcu.externaltools.gnu-tools-for-stm32.7-2018-q2-update.win32_1.0.0.201904181610/tools/bin/../lib/gcc/arm-none-eabi/7.3.1/thumb/v7e-m/fpv4-sp/hard/crti.o
LOAD d:/st/stm32cubeide_1.0.2/stm32cubeide/plugins/com.st.stm32cube.ide.mcu.externaltools.gnu-tools-for-stm32.7-2018-q2-update.win32_1.0.0.201904181610/tools/bin/../lib/gcc/arm-none-eabi/7.3.1/thumb/v7e-m/fpv4-sp/hard/crtbegin.o
LOAD d:/st/stm32cubeide_1.0.2/stm32cubeide/plugins/com.st.stm32cube.ide.mcu.externaltools.gnu-tools-for-stm32.7-2018-q2-update.win32_1.0.0.201904181610/tools/bin/../lib/gcc/arm-none-eabi/7.3.1/../../../../arm-none-eabi/lib/thumb/v7e-m/fpv4-sp/hard/crt0.o
LOAD Core/Src/DataFlash.o
LOAD Core/Src/DatiStufa.o
LOAD Core/Src/DecodInput.o
LOAD Core/Src/DynSizeVector.o
LOAD Core/Src/FT_CoPro_Cmds.o
LOAD Core/Src/FT_Gpu_Hal.o
LOAD Core/Src/Led.o
LOAD Core/Src/OT_Plus.o
LOAD Core/Src/OT_Plus_data_layer.o
LOAD Core/Src/OT_Plus_ph_layer.o
LOAD Core/Src/OT_Plus_tabelle.o
LOAD Core/Src/TimeBase.o
LOAD Core/Src/User_Parametri.o
LOAD Core/Src/Utils.o
LOAD Core/Src/adc.o
LOAD Core/Src/crono.o
LOAD Core/Src/ctp.o
LOAD Core/Src/dwt_stm32_delay.o
LOAD Core/Src/fonts.o
LOAD Core/Src/freertos.o
LOAD Core/Src/i2cm_drv.o
LOAD Core/Src/languages.o
LOAD Core/Src/lis2de12_reg.o
LOAD Core/Src/main.o
LOAD Core/Src/mbcrc.o
LOAD Core/Src/nvram.o
LOAD Core/Src/printf-stdarg.o
LOAD Core/Src/res.o
LOAD Core/Src/rtc.o
LOAD Core/Src/stm32f4xx_hal_msp.o
LOAD Core/Src/stm32f4xx_it.o
LOAD Core/Src/stringhe_ENG.o
LOAD Core/Src/stringhe_ITA.o
LOAD Core/Src/syscalls.o
LOAD Core/Src/system_stm32f4xx.o
LOAD Core/Src/user.o
LOAD Core/Src/userAllarmi.o
LOAD Core/Src/userAvvio.o
LOAD Core/Src/userCrono.o
LOAD Core/Src/userInit.o
LOAD Core/Src/userMenu.o
LOAD Core/Src/userParamCode.o
LOAD Core/Src/userReset.o
LOAD Core/Src/userResources.o
LOAD Drivers/STM32F4xx_HAL_Driver/Src/stm32f4xx_hal.o
LOAD Drivers/STM32F4xx_HAL_Driver/Src/stm32f4xx_hal_adc.o
LOAD Drivers/STM32F4xx_HAL_Driver/Src/stm32f4xx_hal_adc_ex.o
LOAD Drivers/STM32F4xx_HAL_Driver/Src/stm32f4xx_hal_cortex.o
LOAD Drivers/STM32F4xx_HAL_Driver/Src/stm32f4xx_hal_dma.o
LOAD Drivers/STM32F4xx_HAL_Driver/Src/stm32f4xx_hal_dma_ex.o
LOAD Drivers/STM32F4xx_HAL_Driver/Src/stm32f4xx_hal_flash.o
LOAD Drivers/STM32F4xx_HAL_Driver/Src/stm32f4xx_hal_flash_ex.o
LOAD Drivers/STM32F4xx_HAL_Driver/Src/stm32f4xx_hal_flash_ramfunc.o
LOAD Drivers/STM32F4xx_HAL_Driver/Src/stm32f4xx_hal_gpio.o
LOAD Drivers/STM32F4xx_HAL_Driver/Src/stm32f4xx_hal_i2c.o
LOAD Drivers/STM32F4xx_HAL_Driver/Src/stm32f4xx_hal_i2c_ex.o
LOAD Drivers/STM32F4xx_HAL_Driver/Src/stm32f4xx_hal_iwdg.o
LOAD Drivers/STM32F4xx_HAL_Driver/Src/stm32f4xx_hal_pwr.o
LOAD Drivers/STM32F4xx_HAL_Driver/Src/stm32f4xx_hal_pwr_ex.o
LOAD Drivers/STM32F4xx_HAL_Driver/Src/stm32f4xx_hal_rcc.o
LOAD Drivers/STM32F4xx_HAL_Driver/Src/stm32f4xx_hal_rcc_ex.o
LOAD Drivers/STM32F4xx_HAL_Driver/Src/stm32f4xx_hal_rtc.o
LOAD Drivers/STM32F4xx_HAL_Driver/Src/stm32f4xx_hal_rtc_ex.o
LOAD Drivers/STM32F4xx_HAL_Driver/Src/stm32f4xx_hal_spi.o
LOAD Drivers/STM32F4xx_HAL_Driver/Src/stm32f4xx_hal_tim.o
LOAD Drivers/STM32F4xx_HAL_Driver/Src/stm32f4xx_hal_tim_ex.o
LOAD Drivers/STM32F4xx_HAL_Driver/Src/stm32f4xx_hal_uart.o
LOAD Middlewares/Third_Party/FreeRTOS/Source/CMSIS_RTOS/cmsis_os.o
LOAD Middlewares/Third_Party/FreeRTOS/Source/croutine.o
LOAD Middlewares/Third_Party/FreeRTOS/Source/event_groups.o
LOAD Middlewares/Third_Party/FreeRTOS/Source/list.o
LOAD Middlewares/Third_Party/FreeRTOS/Source/queue.o
LOAD Middlewares/Third_Party/FreeRTOS/Source/tasks.o
LOAD Middlewares/Third_Party/FreeRTOS/Source/timers.o
LOAD Middlewares/Third_Party/FreeRTOS/Source/portable/GCC/ARM_CM4F/port.o
LOAD Middlewares/Third_Party/FreeRTOS/Source/portable/MemMang/heap_4.o
LOAD startup/startup_stm32f411xe.o
START GROUP
LOAD d:/st/stm32cubeide_1.0.2/stm32cubeide/plugins/com.st.stm32cube.ide.mcu.externaltools.gnu-tools-for-stm32.7-2018-q2-update.win32_1.0.0.201904181610/tools/bin/../lib/gcc/arm-none-eabi/7.3.1/../../../../arm-none-eabi/lib/thumb/v7e-m/fpv4-sp/hard\libc_nano.a
LOAD d:/st/stm32cubeide_1.0.2/stm32cubeide/plugins/com.st.stm32cube.ide.mcu.externaltools.gnu-tools-for-stm32.7-2018-q2-update.win32_1.0.0.201904181610/tools/bin/../lib/gcc/arm-none-eabi/7.3.1/../../../../arm-none-eabi/lib/thumb/v7e-m/fpv4-sp/hard\libm.a
END GROUP
START GROUP
LOAD d:/st/stm32cubeide_1.0.2/stm32cubeide/plugins/com.st.stm32cube.ide.mcu.externaltools.gnu-tools-for-stm32.7-2018-q2-update.win32_1.0.0.201904181610/tools/bin/../lib/gcc/arm-none-eabi/7.3.1/thumb/v7e-m/fpv4-sp/hard\libgcc.a
LOAD d:/st/stm32cubeide_1.0.2/stm32cubeide/plugins/com.st.stm32cube.ide.mcu.externaltools.gnu-tools-for-stm32.7-2018-q2-update.win32_1.0.0.201904181610/tools/bin/../lib/gcc/arm-none-eabi/7.3.1/../../../../arm-none-eabi/lib/thumb/v7e-m/fpv4-sp/hard\libc_nano.a
END GROUP
START GROUP
LOAD d:/st/stm32cubeide_1.0.2/stm32cubeide/plugins/com.st.stm32cube.ide.mcu.externaltools.gnu-tools-for-stm32.7-2018-q2-update.win32_1.0.0.201904181610/tools/bin/../lib/gcc/arm-none-eabi/7.3.1/thumb/v7e-m/fpv4-sp/hard\libgcc.a
LOAD d:/st/stm32cubeide_1.0.2/stm32cubeide/plugins/com.st.stm32cube.ide.mcu.externaltools.gnu-tools-for-stm32.7-2018-q2-update.win32_1.0.0.201904181610/tools/bin/../lib/gcc/arm-none-eabi/7.3.1/../../../../arm-none-eabi/lib/thumb/v7e-m/fpv4-sp/hard\libc_nano.a
LOAD d:/st/stm32cubeide_1.0.2/stm32cubeide/plugins/com.st.stm32cube.ide.mcu.externaltools.gnu-tools-for-stm32.7-2018-q2-update.win32_1.0.0.201904181610/tools/bin/../lib/gcc/arm-none-eabi/7.3.1/../../../../arm-none-eabi/lib/thumb/v7e-m/fpv4-sp/hard\libnosys.a
END GROUP
START GROUP
LOAD d:/st/stm32cubeide_1.0.2/stm32cubeide/plugins/com.st.stm32cube.ide.mcu.externaltools.gnu-tools-for-stm32.7-2018-q2-update.win32_1.0.0.201904181610/tools/bin/../lib/gcc/arm-none-eabi/7.3.1/thumb/v7e-m/fpv4-sp/hard\libgcc.a
LOAD d:/st/stm32cubeide_1.0.2/stm32cubeide/plugins/com.st.stm32cube.ide.mcu.externaltools.gnu-tools-for-stm32.7-2018-q2-update.win32_1.0.0.201904181610/tools/bin/../lib/gcc/arm-none-eabi/7.3.1/../../../../arm-none-eabi/lib/thumb/v7e-m/fpv4-sp/hard\libc_nano.a
LOAD d:/st/stm32cubeide_1.0.2/stm32cubeide/plugins/com.st.stm32cube.ide.mcu.externaltools.gnu-tools-for-stm32.7-2018-q2-update.win32_1.0.0.201904181610/tools/bin/../lib/gcc/arm-none-eabi/7.3.1/../../../../arm-none-eabi/lib/thumb/v7e-m/fpv4-sp/hard\libnosys.a
END GROUP
LOAD d:/st/stm32cubeide_1.0.2/stm32cubeide/plugins/com.st.stm32cube.ide.mcu.externaltools.gnu-tools-for-stm32.7-2018-q2-update.win32_1.0.0.201904181610/tools/bin/../lib/gcc/arm-none-eabi/7.3.1/thumb/v7e-m/fpv4-sp/hard/crtend.o
LOAD d:/st/stm32cubeide_1.0.2/stm32cubeide/plugins/com.st.stm32cube.ide.mcu.externaltools.gnu-tools-for-stm32.7-2018-q2-update.win32_1.0.0.201904181610/tools/bin/../lib/gcc/arm-none-eabi/7.3.1/thumb/v7e-m/fpv4-sp/hard/crtn.o
                0x0000000020020000                _estack = 0x20020000
                0x0000000000000000                _Min_Heap_Size = 0x0
                0x0000000000000400                _Min_Stack_Size = 0x400

.isr_vector     0x0000000008000000      0x198
                0x0000000008000000                . = ALIGN (0x4)
 *(.isr_vector)
 .isr_vector    0x0000000008000000      0x198 startup/startup_stm32f411xe.o
                0x0000000008000000                g_pfnVectors
                0x0000000008000198                . = ALIGN (0x4)

.text           0x00000000080001a0    0x25318
                0x00000000080001a0                . = ALIGN (0x4)
 *(.text)
 .text          0x00000000080001a0       0x40 d:/st/stm32cubeide_1.0.2/stm32cubeide/plugins/com.st.stm32cube.ide.mcu.externaltools.gnu-tools-for-stm32.7-2018-q2-update.win32_1.0.0.201904181610/tools/bin/../lib/gcc/arm-none-eabi/7.3.1/thumb/v7e-m/fpv4-sp/hard/crtbegin.o
 .text          0x00000000080001e0       0x10 d:/st/stm32cubeide_1.0.2/stm32cubeide/plugins/com.st.stm32cube.ide.mcu.externaltools.gnu-tools-for-stm32.7-2018-q2-update.win32_1.0.0.201904181610/tools/bin/../lib/gcc/arm-none-eabi/7.3.1/../../../../arm-none-eabi/lib/thumb/v7e-m/fpv4-sp/hard\libc_nano.a(lib_a-strlen.o)
                0x00000000080001e0                strlen
 .text          0x00000000080001f0       0x30 d:/st/stm32cubeide_1.0.2/stm32cubeide/plugins/com.st.stm32cube.ide.mcu.externaltools.gnu-tools-for-stm32.7-2018-q2-update.win32_1.0.0.201904181610/tools/bin/../lib/gcc/arm-none-eabi/7.3.1/thumb/v7e-m/fpv4-sp/hard\libgcc.a(_aeabi_uldivmod.o)
                0x00000000080001f0                __aeabi_uldivmod
 .text          0x0000000008000220      0x2cc d:/st/stm32cubeide_1.0.2/stm32cubeide/plugins/com.st.stm32cube.ide.mcu.externaltools.gnu-tools-for-stm32.7-2018-q2-update.win32_1.0.0.201904181610/tools/bin/../lib/gcc/arm-none-eabi/7.3.1/thumb/v7e-m/fpv4-sp/hard\libgcc.a(_udivmoddi4.o)
                0x0000000008000220                __udivmoddi4
 .text          0x00000000080004ec        0x4 d:/st/stm32cubeide_1.0.2/stm32cubeide/plugins/com.st.stm32cube.ide.mcu.externaltools.gnu-tools-for-stm32.7-2018-q2-update.win32_1.0.0.201904181610/tools/bin/../lib/gcc/arm-none-eabi/7.3.1/thumb/v7e-m/fpv4-sp/hard\libgcc.a(_dvmd_tls.o)
                0x00000000080004ec                __aeabi_idiv0
                0x00000000080004ec                __aeabi_ldiv0
 *(.text*)
 .text.dfDelay  0x00000000080004f0        0xe Core/Src/DataFlash.o
 .text.BSP_CS_FLASH
                0x00000000080004fe       0x1e Core/Src/DataFlash.o
 .text.dfWREN   0x000000000800051c       0x38 Core/Src/DataFlash.o
 .text.dfWRDI   0x0000000008000554       0x38 Core/Src/DataFlash.o
 .text.dfWaitBusy
                0x000000000800058c       0x5c Core/Src/DataFlash.o
 .text.df_Init  0x00000000080005e8       0xf4 Core/Src/DataFlash.o
                0x00000000080005e8                df_Init
 .text.df_Deinit
                0x00000000080006dc       0x18 Core/Src/DataFlash.o
                0x00000000080006dc                df_Deinit
 .text.df_Read  0x00000000080006f4       0x8c Core/Src/DataFlash.o
                0x00000000080006f4                df_Read
 .text.TAFilter
                0x0000000008000780       0x20 Core/Src/DecodInput.o
 .text.LIS2DE12_read
                0x00000000080007a0       0x70 Core/Src/DecodInput.o
 .text.GetTempAmb
                0x0000000008000810       0xc4 Core/Src/DecodInput.o
 .text.LIS2DE12_write
                0x00000000080008d4       0x70 Core/Src/DecodInput.o
 .text.MCP9800_SetConfig
                0x0000000008000944       0x60 Core/Src/DecodInput.o
 .text.inpInit  0x00000000080009a4      0x200 Core/Src/DecodInput.o
                0x00000000080009a4                inpInit
 .text.inpHandler
                0x0000000008000ba4      0x260 Core/Src/DecodInput.o
                0x0000000008000ba4                inpHandler
 .text.inpMonitor
                0x0000000008000e04      0x128 Core/Src/DecodInput.o
                0x0000000008000e04                inpMonitor
 .text.DecodSenseCharge
                0x0000000008000f2c       0x68 Core/Src/DecodInput.o
                0x0000000008000f2c                DecodSenseCharge
 .text.INT2_Acc_irq
                0x0000000008000f94       0x34 Core/Src/DecodInput.o
                0x0000000008000f94                INT2_Acc_irq
 .text.inpRestart
                0x0000000008000fc8       0x80 Core/Src/DecodInput.o
                0x0000000008000fc8                inpRestart
 .text.inpSuspend
                0x0000000008001048       0x3c Core/Src/DecodInput.o
                0x0000000008001048                inpSuspend
 .text.vector_init
                0x0000000008001084       0x1c Core/Src/DynSizeVector.o
                0x0000000008001084                vector_init
 .text.vector_get
                0x00000000080010a0       0x14 Core/Src/DynSizeVector.o
                0x00000000080010a0                vector_get
 .text.vector_increment_capacity_if_full
                0x00000000080010b4       0x5e Core/Src/DynSizeVector.o
                0x00000000080010b4                vector_increment_capacity_if_full
 .text.vector_append
                0x0000000008001112       0x2e Core/Src/DynSizeVector.o
                0x0000000008001112                vector_append
 .text.vector_set
                0x0000000008001140       0x5e Core/Src/DynSizeVector.o
                0x0000000008001140                vector_set
 .text.vector_free
                0x000000000800119e        0xa Core/Src/DynSizeVector.o
                0x000000000800119e                vector_free
 .text.Ft_Gpu_CoCmd_SendStr
                0x00000000080011a8        0x8 Core/Src/FT_CoPro_Cmds.o
 .text.Ft_Gpu_Copro_SendCmd
                0x00000000080011b0        0x8 Core/Src/FT_CoPro_Cmds.o
                0x00000000080011b0                Ft_Gpu_Copro_SendCmd
 .text.Ft_Gpu_CoCmd_Text
                0x00000000080011b8       0x38 Core/Src/FT_CoPro_Cmds.o
                0x00000000080011b8                Ft_Gpu_CoCmd_Text
 .text.Ft_Gpu_CoCmd_LoadIdentity
                0x00000000080011f0        0xc Core/Src/FT_CoPro_Cmds.o
                0x00000000080011f0                Ft_Gpu_CoCmd_LoadIdentity
 .text.Ft_Gpu_CoCmd_Spinner
                0x00000000080011fc       0x2e Core/Src/FT_CoPro_Cmds.o
                0x00000000080011fc                Ft_Gpu_CoCmd_Spinner
 .text.Ft_Gpu_CoCmd_BgColor
                0x000000000800122a       0x18 Core/Src/FT_CoPro_Cmds.o
                0x000000000800122a                Ft_Gpu_CoCmd_BgColor
 .text.Ft_Gpu_CoCmd_Swap
                0x0000000008001242        0xc Core/Src/FT_CoPro_Cmds.o
                0x0000000008001242                Ft_Gpu_CoCmd_Swap
 .text.Ft_Gpu_CoCmd_Slider
                0x000000000800124e       0x4c Core/Src/FT_CoPro_Cmds.o
                0x000000000800124e                Ft_Gpu_CoCmd_Slider
 .text.Ft_Gpu_CoCmd_FgColor
                0x000000000800129a       0x18 Core/Src/FT_CoPro_Cmds.o
                0x000000000800129a                Ft_Gpu_CoCmd_FgColor
 .text.Ft_Gpu_CoCmd_Button
                0x00000000080012b2       0x4a Core/Src/FT_CoPro_Cmds.o
                0x00000000080012b2                Ft_Gpu_CoCmd_Button
 .text.Ft_Gpu_CoCmd_Scrollbar
                0x00000000080012fc       0x54 Core/Src/FT_CoPro_Cmds.o
                0x00000000080012fc                Ft_Gpu_CoCmd_Scrollbar
 .text.Ft_Gpu_CoCmd_SetFont
                0x0000000008001350       0x22 Core/Src/FT_CoPro_Cmds.o
                0x0000000008001350                Ft_Gpu_CoCmd_SetFont
 .text.Ft_Gpu_CoCmd_Scale
                0x0000000008001372       0x22 Core/Src/FT_CoPro_Cmds.o
                0x0000000008001372                Ft_Gpu_CoCmd_Scale
 .text.Ft_Gpu_CoCmd_SetMatrix
                0x0000000008001394        0xc Core/Src/FT_CoPro_Cmds.o
                0x0000000008001394                Ft_Gpu_CoCmd_SetMatrix
 .text.Ft_Gpu_CoCmd_Keys
                0x00000000080013a0       0x4a Core/Src/FT_CoPro_Cmds.o
                0x00000000080013a0                Ft_Gpu_CoCmd_Keys
 .text.Ft_Gpu_CoCmd_Dlstart
                0x00000000080013ea        0xc Core/Src/FT_CoPro_Cmds.o
                0x00000000080013ea                Ft_Gpu_CoCmd_Dlstart
 *fill*         0x00000000080013f6        0x2 
 .text.Ft_Gpu_Hal_Init
                0x00000000080013f8       0x24 Core/Src/FT_Gpu_Hal.o
                0x00000000080013f8                Ft_Gpu_Hal_Init
 .text.Ft_Gpu_Hal_Open
                0x000000000800141c        0xc Core/Src/FT_Gpu_Hal.o
                0x000000000800141c                Ft_Gpu_Hal_Open
 .text.Ft_Gpu_Hal_StartTransfer
                0x0000000008001428       0x9c Core/Src/FT_Gpu_Hal.o
                0x0000000008001428                Ft_Gpu_Hal_StartTransfer
 .text.Ft_Gpu_Hal_StartCmdTransfer
                0x00000000080014c4        0xe Core/Src/FT_Gpu_Hal.o
                0x00000000080014c4                Ft_Gpu_Hal_StartCmdTransfer
 *fill*         0x00000000080014d2        0x2 
 .text.Ft_Gpu_Hal_Transfer8
                0x00000000080014d4       0x60 Core/Src/FT_Gpu_Hal.o
                0x00000000080014d4                Ft_Gpu_Hal_Transfer8
 .text.Ft_Gpu_Hal_Transfer16
                0x0000000008001534       0x36 Core/Src/FT_Gpu_Hal.o
                0x0000000008001534                Ft_Gpu_Hal_Transfer16
 .text.Ft_Gpu_Hal_Transfer32
                0x000000000800156a       0x34 Core/Src/FT_Gpu_Hal.o
                0x000000000800156a                Ft_Gpu_Hal_Transfer32
 *fill*         0x000000000800159e        0x2 
 .text.Ft_Gpu_Hal_EndTransfer
                0x00000000080015a0       0x2c Core/Src/FT_Gpu_Hal.o
                0x00000000080015a0                Ft_Gpu_Hal_EndTransfer
 .text.Ft_Gpu_Hal_Rd8
                0x00000000080015cc       0x20 Core/Src/FT_Gpu_Hal.o
                0x00000000080015cc                Ft_Gpu_Hal_Rd8
 .text.Ft_Gpu_Hal_Rd16
                0x00000000080015ec       0x20 Core/Src/FT_Gpu_Hal.o
                0x00000000080015ec                Ft_Gpu_Hal_Rd16
 .text.Ft_Gpu_Hal_Rd32
                0x000000000800160c       0x20 Core/Src/FT_Gpu_Hal.o
                0x000000000800160c                Ft_Gpu_Hal_Rd32
 .text.Ft_Gpu_Hal_Wr8
                0x000000000800162c       0x1e Core/Src/FT_Gpu_Hal.o
                0x000000000800162c                Ft_Gpu_Hal_Wr8
 .text.Ft_Gpu_Hal_Wr16
                0x000000000800164a       0x1e Core/Src/FT_Gpu_Hal.o
                0x000000000800164a                Ft_Gpu_Hal_Wr16
 .text.Ft_Gpu_Hal_Wr32
                0x0000000008001668       0x1e Core/Src/FT_Gpu_Hal.o
                0x0000000008001668                Ft_Gpu_Hal_Wr32
 *fill*         0x0000000008001686        0x2 
 .text.Ft_Gpu_HostCommand
                0x0000000008001688       0xac Core/Src/FT_Gpu_Hal.o
                0x0000000008001688                Ft_Gpu_HostCommand
 .text.Ft_Gpu_PLL_FreqSelect
                0x0000000008001734        0x8 Core/Src/FT_Gpu_Hal.o
                0x0000000008001734                Ft_Gpu_PLL_FreqSelect
 .text.Ft_Gpu_PowerModeSwitch
                0x000000000800173c        0x8 Core/Src/FT_Gpu_Hal.o
                0x000000000800173c                Ft_Gpu_PowerModeSwitch
 .text.Ft_Gpu_CoreReset
                0x0000000008001744        0xa Core/Src/FT_Gpu_Hal.o
                0x0000000008001744                Ft_Gpu_CoreReset
 *fill*         0x000000000800174e        0x2 
 .text.Ft_Gpu_Hal_Updatecmdfifo
                0x0000000008001750       0x24 Core/Src/FT_Gpu_Hal.o
                0x0000000008001750                Ft_Gpu_Hal_Updatecmdfifo
 .text.Ft_Gpu_Cmdfifo_Freespace
                0x0000000008001774       0x20 Core/Src/FT_Gpu_Hal.o
                0x0000000008001774                Ft_Gpu_Cmdfifo_Freespace
 .text.Ft_Gpu_Hal_CheckCmdBuffer
                0x0000000008001794       0x12 Core/Src/FT_Gpu_Hal.o
                0x0000000008001794                Ft_Gpu_Hal_CheckCmdBuffer
 .text.Ft_Gpu_Hal_WrCmd32
                0x00000000080017a6       0x24 Core/Src/FT_Gpu_Hal.o
                0x00000000080017a6                Ft_Gpu_Hal_WrCmd32
 *fill*         0x00000000080017ca        0x2 
 .text.Ft_Gpu_Hal_Powercycle
                0x00000000080017cc       0x50 Core/Src/FT_Gpu_Hal.o
                0x00000000080017cc                Ft_Gpu_Hal_Powercycle
 .text.Ft_Gpu_Hal_WrMem
                0x000000000800181c       0x2c Core/Src/FT_Gpu_Hal.o
                0x000000000800181c                Ft_Gpu_Hal_WrMem
 .text.Ft_Gpu_Hal_RdMem
                0x0000000008001848       0x2e Core/Src/FT_Gpu_Hal.o
                0x0000000008001848                Ft_Gpu_Hal_RdMem
 .text.Ft_Gpu_Hal_Sleep
                0x0000000008001876        0xa Core/Src/FT_Gpu_Hal.o
                0x0000000008001876                Ft_Gpu_Hal_Sleep
 .text.Ft_Gpu_Hal_WaitCmdfifo_empty
                0x0000000008001880       0x38 Core/Src/FT_Gpu_Hal.o
                0x0000000008001880                Ft_Gpu_Hal_WaitCmdfifo_empty
 .text.Ft_Gpu_Hal_WrCmdBuf
                0x00000000080018b8       0x76 Core/Src/FT_Gpu_Hal.o
                0x00000000080018b8                Ft_Gpu_Hal_WrCmdBuf
 .text.DriveLed
                0x000000000800192e       0x1e Core/Src/Led.o
 .text.ToggleLed
                0x000000000800194c       0x18 Core/Src/Led.o
 .text.led_Init
                0x0000000008001964       0x28 Core/Src/Led.o
                0x0000000008001964                led_Init
 .text.led_Handler
                0x000000000800198c      0x13c Core/Src/Led.o
                0x000000000800198c                led_Handler
 .text.led_Set  0x0000000008001ac8       0x1c Core/Src/Led.o
                0x0000000008001ac8                led_Set
 .text.SetHoldingReg
                0x0000000008001ae4       0x8c Core/Src/OT_Plus.o
 .text.SetLimits
                0x0000000008001b70       0x60 Core/Src/OT_Plus.o
 .text.SetCoil  0x0000000008001bd0       0x7c Core/Src/OT_Plus.o
 .text.SetInputReg
                0x0000000008001c4c      0x184 Core/Src/OT_Plus.o
 .text.OT_Init  0x0000000008001dd0       0x68 Core/Src/OT_Plus.o
                0x0000000008001dd0                OT_Init
 .text.OT_Send  0x0000000008001e38       0x58 Core/Src/OT_Plus.o
                0x0000000008001e38                OT_Send
 .text.ReqLimits
                0x0000000008001e90       0x80 Core/Src/OT_Plus.o
 .text.SendTembAmb
                0x0000000008001f10       0xa4 Core/Src/OT_Plus.o
 .text.OT_Send_SetReq
                0x0000000008001fb4       0x44 Core/Src/OT_Plus.o
                0x0000000008001fb4                OT_Send_SetReq
 .text.OT_RxPkt
                0x0000000008001ff8      0x7f8 Core/Src/OT_Plus.o
 .text.OT_Handler
                0x00000000080027f0      0x3d4 Core/Src/OT_Plus.o
                0x00000000080027f0                OT_Handler
 .text.OT_ReqSound
                0x0000000008002bc4       0x48 Core/Src/OT_Plus.o
                0x0000000008002bc4                OT_ReqSound
 .text.OT_GetResult
                0x0000000008002c0c       0x14 Core/Src/OT_Plus.o
                0x0000000008002c0c                OT_GetResult
 .text.OT_RestartRequests
                0x0000000008002c20       0xd0 Core/Src/OT_Plus.o
                0x0000000008002c20                OT_RestartRequests
 .text.SendVerFW
                0x0000000008002cf0       0xc8 Core/Src/OT_Plus.o
                0x0000000008002cf0                SendVerFW
 .text.OT_ExitStandby
                0x0000000008002db8       0x6c Core/Src/OT_Plus.o
                0x0000000008002db8                OT_ExitStandby
 .text.OT_PH_RxPkt
                0x0000000008002e24       0x14 Core/Src/OT_Plus_data_layer.o
 .text.NextPkt  0x0000000008002e38       0x6c Core/Src/OT_Plus_data_layer.o
 .text.PeekPkt  0x0000000008002ea4       0x64 Core/Src/OT_Plus_data_layer.o
                0x0000000008002ea4                PeekPkt
 .text.OT_DL_Init
                0x0000000008002f08       0x98 Core/Src/OT_Plus_data_layer.o
                0x0000000008002f08                OT_DL_Init
 .text.OT_DL_SetLimitReqFunc
                0x0000000008002fa0        0xc Core/Src/OT_Plus_data_layer.o
                0x0000000008002fa0                OT_DL_SetLimitReqFunc
 .text.OT_DL_Send
                0x0000000008002fac       0xc8 Core/Src/OT_Plus_data_layer.o
                0x0000000008002fac                OT_DL_Send
 .text.OT_DL_FlushOneShotQueue
                0x0000000008003074       0x10 Core/Src/OT_Plus_data_layer.o
                0x0000000008003074                OT_DL_FlushOneShotQueue
 .text.OT_DL_FlushCycleQueue
                0x0000000008003084       0x10 Core/Src/OT_Plus_data_layer.o
                0x0000000008003084                OT_DL_FlushCycleQueue
 .text.OT_DL_Restart
                0x0000000008003094       0x1c Core/Src/OT_Plus_data_layer.o
                0x0000000008003094                OT_DL_Restart
 .text.OT_DL_Handler
                0x00000000080030b0      0x6d0 Core/Src/OT_Plus_data_layer.o
                0x00000000080030b0                OT_DL_Handler
 .text.OT_PH_RxCfg
                0x0000000008003780       0x10 Core/Src/OT_Plus_ph_layer.o
 .text.OT_ResetRX
                0x0000000008003790       0x34 Core/Src/OT_Plus_ph_layer.o
                0x0000000008003790                OT_ResetRX
 .text.OT_ResetRXTX
                0x00000000080037c4       0x3c Core/Src/OT_Plus_ph_layer.o
                0x00000000080037c4                OT_ResetRXTX
 .text.OT_PH_Init
                0x0000000008003800       0x8c Core/Src/OT_Plus_ph_layer.o
                0x0000000008003800                OT_PH_Init
 .text.HAL_UART_RxCpltCallback
                0x000000000800388c       0x50 Core/Src/OT_Plus_ph_layer.o
                0x000000000800388c                HAL_UART_RxCpltCallback
 .text.HAL_UART_TxCpltCallback
                0x00000000080038dc       0x60 Core/Src/OT_Plus_ph_layer.o
                0x00000000080038dc                HAL_UART_TxCpltCallback
 .text.HAL_UART_ErrorCallback
                0x000000000800393c       0x2a Core/Src/OT_Plus_ph_layer.o
                0x000000000800393c                HAL_UART_ErrorCallback
 *fill*         0x0000000008003966        0x2 
 .text.OT_PH_Send
                0x0000000008003968       0xec Core/Src/OT_Plus_ph_layer.o
                0x0000000008003968                OT_PH_Send
 .text.OT_RxTimeout
                0x0000000008003a54       0x84 Core/Src/OT_Plus_ph_layer.o
                0x0000000008003a54                OT_RxTimeout
 .text.OT_PH_GetRCQ2Cfg
                0x0000000008003ad8      0x1fc Core/Src/OT_Plus_ph_layer.o
                0x0000000008003ad8                OT_PH_GetRCQ2Cfg
 .text.OT_PH_SetRCQ2Cfg
                0x0000000008003cd4      0x234 Core/Src/OT_Plus_ph_layer.o
                0x0000000008003cd4                OT_PH_SetRCQ2Cfg
 .text.OT_PH_SetLowPower
                0x0000000008003f08       0x34 Core/Src/OT_Plus_ph_layer.o
                0x0000000008003f08                OT_PH_SetLowPower
 .text.OT_PH_SetFullPower
                0x0000000008003f3c       0x14 Core/Src/OT_Plus_ph_layer.o
                0x0000000008003f3c                OT_PH_SetFullPower
 .text.starttimer
                0x0000000008003f50       0x34 Core/Src/TimeBase.o
                0x0000000008003f50                starttimer
 .text.checktimer
                0x0000000008003f84       0x48 Core/Src/TimeBase.o
                0x0000000008003f84                checktimer
 .text.readtimer
                0x0000000008003fcc       0x48 Core/Src/TimeBase.o
                0x0000000008003fcc                readtimer
 .text.userDelLeadingZero
                0x0000000008004014       0x56 Core/Src/User_Parametri.o
                0x0000000008004014                userDelLeadingZero
 *fill*         0x000000000800406a        0x2 
 .text.SearchParam
                0x000000000800406c       0x88 Core/Src/User_Parametri.o
                0x000000000800406c                SearchParam
 .text.userGetParCode
                0x00000000080040f4       0xac Core/Src/User_Parametri.o
                0x00000000080040f4                userGetParCode
 .text.userSetPar
                0x00000000080041a0      0xa80 Core/Src/User_Parametri.o
                0x00000000080041a0                userSetPar
 .text.userEscPar
                0x0000000008004c20        0x2 Core/Src/User_Parametri.o
                0x0000000008004c20                userEscPar
 *fill*         0x0000000008004c22        0x2 
 .text.userIsReadOnlyVar
                0x0000000008004c24       0x24 Core/Src/User_Parametri.o
                0x0000000008004c24                userIsReadOnlyVar
 .text.userIsFlagVar
                0x0000000008004c48       0x34 Core/Src/User_Parametri.o
                0x0000000008004c48                userIsFlagVar
 .text.userReqPar
                0x0000000008004c7c      0x3d4 Core/Src/User_Parametri.o
                0x0000000008004c7c                userReqPar
 .text.userGetMinMaxStep
                0x0000000008005050      0x15c Core/Src/User_Parametri.o
                0x0000000008005050                userGetMinMaxStep
 .text.userIncPar
                0x00000000080051ac      0x13c Core/Src/User_Parametri.o
                0x00000000080051ac                userIncPar
 .text.userDecPar
                0x00000000080052e8      0x154 Core/Src/User_Parametri.o
                0x00000000080052e8                userDecPar
 .text.userScriviOraSleep
                0x000000000800543c      0x158 Core/Src/User_Parametri.o
                0x000000000800543c                userScriviOraSleep
 .text.userVisPar
                0x0000000008005594     0x1a00 Core/Src/User_Parametri.o
                0x0000000008005594                userVisPar
 .text.userGetOraSleep
                0x0000000008006f94       0xec Core/Src/User_Parametri.o
                0x0000000008006f94                userGetOraSleep
 .text.userGetPar
                0x0000000008007080      0x17c Core/Src/User_Parametri.o
                0x0000000008007080                userGetPar
 .text.userVisEPar
                0x00000000080071fc       0x98 Core/Src/User_Parametri.o
                0x00000000080071fc                userVisEPar
 .text.UpdateSleepTime
                0x0000000008007294       0x6c Core/Src/User_Parametri.o
                0x0000000008007294                UpdateSleepTime
 .text.userSetNetworkFlags
                0x0000000008007300       0x60 Core/Src/User_Parametri.o
                0x0000000008007300                userSetNetworkFlags
 .text.Ascii2Hex
                0x0000000008007360       0x34 Core/Src/Utils.o
                0x0000000008007360                Ascii2Hex
 .text.Hex2Ascii
                0x0000000008007394       0x1a Core/Src/Utils.o
                0x0000000008007394                Hex2Ascii
 .text.itoa     0x00000000080073ae       0x74 Core/Src/Utils.o
                0x00000000080073ae                itoa
 .text.SetBitBMap
                0x0000000008007422       0x14 Core/Src/Utils.o
                0x0000000008007422                SetBitBMap
 .text.ResBitBMap
                0x0000000008007436       0x14 Core/Src/Utils.o
                0x0000000008007436                ResBitBMap
 .text.GetBitBMap
                0x000000000800744a       0x16 Core/Src/Utils.o
                0x000000000800744a                GetBitBMap
 .text.DWordLittle2BigEndian
                0x0000000008007460       0x20 Core/Src/Utils.o
                0x0000000008007460                DWordLittle2BigEndian
 .text.VisHexMsg
                0x0000000008007480       0x68 Core/Src/Utils.o
                0x0000000008007480                VisHexMsg
 .text.CalcChecksum
                0x00000000080074e8       0x18 Core/Src/Utils.o
                0x00000000080074e8                CalcChecksum
 .text.adcFiltro4Ana
                0x0000000008007500       0x24 Core/Src/adc.o
 .text.adcInit  0x0000000008007524       0x24 Core/Src/adc.o
                0x0000000008007524                adcInit
 .text.HAL_ADC_ErrorCallback
                0x0000000008007548       0x18 Core/Src/adc.o
                0x0000000008007548                HAL_ADC_ErrorCallback
 .text.adcStart
                0x0000000008007560       0x24 Core/Src/adc.o
                0x0000000008007560                adcStart
 .text.HAL_ADC_ConvCpltCallback
                0x0000000008007584       0x70 Core/Src/adc.o
                0x0000000008007584                HAL_ADC_ConvCpltCallback
 .text.GestSleep
                0x00000000080075f4       0xe4 Core/Src/crono.o
 .text.IsCronoON
                0x00000000080076d8       0xe4 Core/Src/crono.o
 .text.GestCronoSleep
                0x00000000080077bc      0x4a0 Core/Src/crono.o
                0x00000000080077bc                GestCronoSleep
 .text.AllineaStatoCrono
                0x0000000008007c5c       0xc0 Core/Src/crono.o
                0x0000000008007c5c                AllineaStatoCrono
 .text.AttuaStatoCrono
                0x0000000008007d1c      0x24c Core/Src/crono.o
                0x0000000008007d1c                AttuaStatoCrono
 .text.IsCronoProfile
                0x0000000008007f68       0x68 Core/Src/crono.o
                0x0000000008007f68                IsCronoProfile
 .text.LoadCronoProfile
                0x0000000008007fd0       0xa4 Core/Src/crono.o
                0x0000000008007fd0                LoadCronoProfile
 .text.search_in_list
                0x0000000008008074       0x34 Core/Src/ctp.o
 .text.create_list
                0x00000000080080a8       0x38 Core/Src/ctp.o
 .text.add_to_list_end
                0x00000000080080e0       0x44 Core/Src/ctp.o
 .text.delete_list
                0x0000000008008124       0x24 Core/Src/ctp.o
 .text.HAL_GPIO_EXTI_Callback
                0x0000000008008148       0x38 Core/Src/ctp.o
                0x0000000008008148                HAL_GPIO_EXTI_Callback
 .text.CTP_Task
                0x0000000008008180      0x198 Core/Src/ctp.o
                0x0000000008008180                CTP_Task
 .text.CTP_TagRegister
                0x0000000008008318       0x1c Core/Src/ctp.o
                0x0000000008008318                CTP_TagRegister
 .text.CTP_TagDeregisterAll
                0x0000000008008334        0x8 Core/Src/ctp.o
                0x0000000008008334                CTP_TagDeregisterAll
 .text.CTP_SetTag
                0x000000000800833c       0x2e Core/Src/ctp.o
                0x000000000800833c                CTP_SetTag
 *fill*         0x000000000800836a        0x2 
 .text.DWT_Delay_Init
                0x000000000800836c       0x44 Core/Src/dwt_stm32_delay.o
                0x000000000800836c                DWT_Delay_Init
 .text.DWT_Delay_us
                0x00000000080083b0       0x38 Core/Src/dwt_stm32_delay.o
                0x00000000080083b0                DWT_Delay_us
 .text.vApplicationIdleHook
                0x00000000080083e8       0xec Core/Src/freertos.o
                0x00000000080083e8                vApplicationIdleHook
 .text.vApplicationTickHook
                0x00000000080084d4       0x30 Core/Src/freertos.o
                0x00000000080084d4                vApplicationTickHook
 .text.vApplicationStackOverflowHook
                0x0000000008008504       0x10 Core/Src/freertos.o
                0x0000000008008504                vApplicationStackOverflowHook
 .text.vApplicationMallocFailedHook
                0x0000000008008514       0x10 Core/Src/freertos.o
                0x0000000008008514                vApplicationMallocFailedHook
 .text.i2cInit  0x0000000008008524        0xc Core/Src/i2cm_drv.o
                0x0000000008008524                i2cInit
 .text.i2cWriteBuffer
                0x0000000008008530       0xa0 Core/Src/i2cm_drv.o
                0x0000000008008530                i2cWriteBuffer
 .text.i2cWriteReadBuffer
                0x00000000080085d0       0x88 Core/Src/i2cm_drv.o
                0x00000000080085d0                i2cWriteReadBuffer
 .text.lis2de12_read_reg
                0x0000000008008658        0xa Core/Src/lis2de12_reg.o
                0x0000000008008658                lis2de12_read_reg
 .text.lis2de12_write_reg
                0x0000000008008662        0xa Core/Src/lis2de12_reg.o
                0x0000000008008662                lis2de12_write_reg
 .text.lis2de12_filter_reference_get
                0x000000000800866c        0xe Core/Src/lis2de12_reg.o
                0x000000000800866c                lis2de12_filter_reference_get
 .text.lis2de12_device_id_get
                0x000000000800867a        0xe Core/Src/lis2de12_reg.o
                0x000000000800867a                lis2de12_device_id_get
 .text.lis2de12_int2_gen_source_get
                0x0000000008008688        0xe Core/Src/lis2de12_reg.o
                0x0000000008008688                lis2de12_int2_gen_source_get
 *fill*         0x0000000008008696        0x2 
 .text.MX_GPIO_Init
                0x0000000008008698      0x1dc Core/Src/main.o
 .text.MX_DMA_Init
                0x0000000008008874       0x34 Core/Src/main.o
 .text.LedTimer_Callback
                0x00000000080088a8       0x24 Core/Src/main.o
                0x00000000080088a8                LedTimer_Callback
 .text.CreateMutex
                0x00000000080088cc       0x3c Core/Src/main.o
                0x00000000080088cc                CreateMutex
 .text.DeleteMutex
                0x0000000008008908       0x30 Core/Src/main.o
                0x0000000008008908                DeleteMutex
 .text.SystemReset
                0x0000000008008938        0xa Core/Src/main.o
                0x0000000008008938                SystemReset
 *fill*         0x0000000008008942        0x2 
 .text.SystemRestart
                0x0000000008008944       0xa0 Core/Src/main.o
                0x0000000008008944                SystemRestart
 .text.outbyte  0x00000000080089e4       0x18 Core/Src/main.o
                0x00000000080089e4                outbyte
 .text.SleepOnBatteryCharge
                0x00000000080089fc      0x2ec Core/Src/main.o
                0x00000000080089fc                SleepOnBatteryCharge
 .text.Check4StandbyPause
                0x0000000008008ce8      0x4a8 Core/Src/main.o
 .text.Main_Task
                0x0000000008009190       0xc4 Core/Src/main.o
                0x0000000008009190                Main_Task
 .text.LOCKprintf
                0x0000000008009254       0x2c Core/Src/main.o
                0x0000000008009254                LOCKprintf
 .text.UNLOCKprintf
                0x0000000008009280       0x28 Core/Src/main.o
                0x0000000008009280                UNLOCKprintf
 .text.Error_Handler
                0x00000000080092a8       0x10 Core/Src/main.o
                0x00000000080092a8                Error_Handler
 .text.MX_USART6_UART_Init
                0x00000000080092b8       0x34 Core/Src/main.o
 .text.SystemOff
                0x00000000080092ec      0x380 Core/Src/main.o
                0x00000000080092ec                SystemOff
 .text.MX_RTC_Init
                0x000000000800966c       0x44 Core/Src/main.o
 .text.MX_USART2_UART_Init
                0x00000000080096b0       0x34 Core/Src/main.o
 .text.MX_ADC1_Init
                0x00000000080096e4       0x88 Core/Src/main.o
 .text.MX_SPI2_Init
                0x000000000800976c       0x40 Core/Src/main.o
 .text.MX_I2C1_Init
                0x00000000080097ac       0x3c Core/Src/main.o
 .text.SystemClock_Config
                0x00000000080097e8       0xd4 Core/Src/main.o
                0x00000000080097e8                SystemClock_Config
 .text.MX_SPI1_Init
                0x00000000080098bc       0x54 Core/Src/main.o
                0x00000000080098bc                MX_SPI1_Init
 .text.main     0x0000000008009910      0x144 Core/Src/main.o
                0x0000000008009910                main
 .text.assert_failed
                0x0000000008009a54       0x14 Core/Src/main.o
                0x0000000008009a54                assert_failed
 .text.CalcCrcBuff
                0x0000000008009a68       0x34 Core/Src/mbcrc.o
                0x0000000008009a68                CalcCrcBuff
 .text.ResetStatSec
                0x0000000008009a9c       0x54 Core/Src/nvram.o
 .text.CheckPar
                0x0000000008009af0      0x180 Core/Src/nvram.o
 .text.nvramUpdate
                0x0000000008009c70       0x38 Core/Src/nvram.o
                0x0000000008009c70                nvramUpdate
 .text.CronoDef
                0x0000000008009ca8       0x48 Core/Src/nvram.o
                0x0000000008009ca8                CronoDef
 .text.CfgDef   0x0000000008009cf0       0x18 Core/Src/nvram.o
                0x0000000008009cf0                CfgDef
 .text.nvramInit
                0x0000000008009d08       0x78 Core/Src/nvram.o
                0x0000000008009d08                nvramInit
 .text.RecConfig
                0x0000000008009d80        0x2 Core/Src/nvram.o
                0x0000000008009d80                RecConfig
 *fill*         0x0000000008009d82        0x2 
 .text.ScriviCrono
                0x0000000008009d84       0x18 Core/Src/nvram.o
                0x0000000008009d84                ScriviCrono
 .text.ScriviCronoProfile
                0x0000000008009d9c       0x20 Core/Src/nvram.o
                0x0000000008009d9c                ScriviCronoProfile
 .text.ScriviCronoProgWeekStart
                0x0000000008009dbc       0x28 Core/Src/nvram.o
                0x0000000008009dbc                ScriviCronoProgWeekStart
 .text.ScriviCronoProgWeekStop
                0x0000000008009de4       0x2c Core/Src/nvram.o
                0x0000000008009de4                ScriviCronoProgWeekStop
 .text.ScriviCronoProgWeekAbil
                0x0000000008009e10       0x1c Core/Src/nvram.o
                0x0000000008009e10                ScriviCronoProgWeekAbil
 .text.ScriviCronoProgWeekTempAria
                0x0000000008009e2c       0x1c Core/Src/nvram.o
                0x0000000008009e2c                ScriviCronoProgWeekTempAria
 .text.ScriviCronoProgWeekTempH2O
                0x0000000008009e48       0x1c Core/Src/nvram.o
                0x0000000008009e48                ScriviCronoProgWeekTempH2O
 .text.ScriviCronoProgWeekFire
                0x0000000008009e64       0x1c Core/Src/nvram.o
                0x0000000008009e64                ScriviCronoProgWeekFire
 .text.ScriviRFid
                0x0000000008009e80       0x1c Core/Src/nvram.o
                0x0000000008009e80                ScriviRFid
 .text.printchar
                0x0000000008009e9c       0x18 Core/Src/printf-stdarg.o
 .text.prints   0x0000000008009eb4       0x80 Core/Src/printf-stdarg.o
 .text.printi   0x0000000008009f34       0xa2 Core/Src/printf-stdarg.o
 *fill*         0x0000000008009fd6        0x2 
 .text.print    0x0000000008009fd8      0x144 Core/Src/printf-stdarg.o
 .text.myprintf
                0x000000000800a11c       0x2e Core/Src/printf-stdarg.o
                0x000000000800a11c                myprintf
 .text.mysprintf
                0x000000000800a14a       0x20 Core/Src/printf-stdarg.o
                0x000000000800a14a                mysprintf
 *fill*         0x000000000800a16a        0x2 
 .text.bm_search_in_list
                0x000000000800a16c       0x34 Core/Src/res.o
 .text.DefaultFont
                0x000000000800a1a0       0x40 Core/Src/res.o
 .text.InitSetMsg
                0x000000000800a1e0      0x110 Core/Src/res.o
 .text.CheckSetMsg
                0x000000000800a2f0       0x90 Core/Src/res.o
 .text.bm_create_list
                0x000000000800a380       0x38 Core/Src/res.o
 .text.bm_add_to_list_end
                0x000000000800a3b8       0x44 Core/Src/res.o
 .text.bm_delete_from_list
                0x000000000800a3fc       0x60 Core/Src/res.o
 .text.bm_delete_list
                0x000000000800a45c       0x24 Core/Src/res.o
 .text.res_bm_Load
                0x000000000800a480       0xd0 Core/Src/res.o
                0x000000000800a480                res_bm_Load
 .text.res_bm_Release
                0x000000000800a550       0x10 Core/Src/res.o
                0x000000000800a550                res_bm_Release
 .text.res_bm_GetHeader
                0x000000000800a560       0x1c Core/Src/res.o
                0x000000000800a560                res_bm_GetHeader
 .text.res_bm_GetGRAM
                0x000000000800a57c        0xc Core/Src/res.o
                0x000000000800a57c                res_bm_GetGRAM
 .text.res_bm_ReleaseAll
                0x000000000800a588       0x14 Core/Src/res.o
                0x000000000800a588                res_bm_ReleaseAll
 .text.res_bm_Reset
                0x000000000800a59c       0x48 Core/Src/res.o
                0x000000000800a59c                res_bm_Reset
 .text.GetMsg   0x000000000800a5e4      0x148 Core/Src/res.o
                0x000000000800a5e4                GetMsg
 .text.LoadFonts
                0x000000000800a72c      0x338 Core/Src/res.o
                0x000000000800a72c                LoadFonts
 .text.res_Init
                0x000000000800aa64      0x118 Core/Src/res.o
                0x000000000800aa64                res_Init
 .text.HAL_RTCEx_WakeUpTimerEventCallback
                0x000000000800ab7c       0x1c Core/Src/rtc.o
                0x000000000800ab7c                HAL_RTCEx_WakeUpTimerEventCallback
 .text.rtcRd    0x000000000800ab98       0x84 Core/Src/rtc.o
                0x000000000800ab98                rtcRd
 .text.rtcCheckDateTime
                0x000000000800ac1c      0x11c Core/Src/rtc.o
                0x000000000800ac1c                rtcCheckDateTime
 .text.DateTime2Sec
                0x000000000800ad38      0x110 Core/Src/rtc.o
                0x000000000800ad38                DateTime2Sec
 .text.rtcInit  0x000000000800ae48      0x138 Core/Src/rtc.o
                0x000000000800ae48                rtcInit
 .text.rtcWr    0x000000000800af80       0xa4 Core/Src/rtc.o
                0x000000000800af80                rtcWr
 .text.Sec2DateTime
                0x000000000800b024      0x16c Core/Src/rtc.o
                0x000000000800b024                Sec2DateTime
 .text.rtcStrMakeDate
                0x000000000800b190       0x6c Core/Src/rtc.o
                0x000000000800b190                rtcStrMakeDate
 .text.rtcStrMakeTime
                0x000000000800b1fc       0x8c Core/Src/rtc.o
                0x000000000800b1fc                rtcStrMakeTime
 .text.ScriviData
                0x000000000800b288       0x10 Core/Src/rtc.o
                0x000000000800b288                ScriviData
 .text.ScriviOra
                0x000000000800b298       0x10 Core/Src/rtc.o
                0x000000000800b298                ScriviOra
 .text.rtcGetWeekDay
                0x000000000800b2a8       0x70 Core/Src/rtc.o
                0x000000000800b2a8                rtcGetWeekDay
 .text.i2cReset
                0x000000000800b318       0xc0 Core/Src/stm32f4xx_hal_msp.o
                0x000000000800b318                i2cReset
 .text.HAL_MspInit
                0x000000000800b3d8       0x44 Core/Src/stm32f4xx_hal_msp.o
                0x000000000800b3d8                HAL_MspInit
 .text.HAL_ADC_MspInit
                0x000000000800b41c       0xa8 Core/Src/stm32f4xx_hal_msp.o
                0x000000000800b41c                HAL_ADC_MspInit
 .text.HAL_ADC_MspDeInit
                0x000000000800b4c4       0x40 Core/Src/stm32f4xx_hal_msp.o
                0x000000000800b4c4                HAL_ADC_MspDeInit
 .text.HAL_I2C_MspInit
                0x000000000800b504       0x78 Core/Src/stm32f4xx_hal_msp.o
                0x000000000800b504                HAL_I2C_MspInit
 .text.HAL_I2C_MspDeInit
                0x000000000800b57c       0x2c Core/Src/stm32f4xx_hal_msp.o
                0x000000000800b57c                HAL_I2C_MspDeInit
 .text.HAL_RTC_MspInit
                0x000000000800b5a8       0x2c Core/Src/stm32f4xx_hal_msp.o
                0x000000000800b5a8                HAL_RTC_MspInit
 .text.HAL_SPI_MspInit
                0x000000000800b5d4       0xf0 Core/Src/stm32f4xx_hal_msp.o
                0x000000000800b5d4                HAL_SPI_MspInit
 .text.HAL_SPI_MspDeInit
                0x000000000800b6c4       0x5c Core/Src/stm32f4xx_hal_msp.o
                0x000000000800b6c4                HAL_SPI_MspDeInit
 .text.HAL_UART_MspInit
                0x000000000800b720       0xec Core/Src/stm32f4xx_hal_msp.o
                0x000000000800b720                HAL_UART_MspInit
 .text.HAL_UART_MspDeInit
                0x000000000800b80c       0x5c Core/Src/stm32f4xx_hal_msp.o
                0x000000000800b80c                HAL_UART_MspDeInit
 .text.NMI_Handler
                0x000000000800b868        0x2 Core/Src/stm32f4xx_it.o
                0x000000000800b868                NMI_Handler
 .text.HardFault_Handler
                0x000000000800b86a        0x2 Core/Src/stm32f4xx_it.o
                0x000000000800b86a                HardFault_Handler
 .text.MemManage_Handler
                0x000000000800b86c        0x2 Core/Src/stm32f4xx_it.o
                0x000000000800b86c                MemManage_Handler
 .text.BusFault_Handler
                0x000000000800b86e        0x2 Core/Src/stm32f4xx_it.o
                0x000000000800b86e                BusFault_Handler
 .text.UsageFault_Handler
                0x000000000800b870        0x2 Core/Src/stm32f4xx_it.o
                0x000000000800b870                UsageFault_Handler
 .text.DebugMon_Handler
                0x000000000800b872        0x2 Core/Src/stm32f4xx_it.o
                0x000000000800b872                DebugMon_Handler
 .text.SysTick_Handler
                0x000000000800b874        0xc Core/Src/stm32f4xx_it.o
                0x000000000800b874                SysTick_Handler
 .text.RTC_WKUP_IRQHandler
                0x000000000800b880       0x10 Core/Src/stm32f4xx_it.o
                0x000000000800b880                RTC_WKUP_IRQHandler
 .text.EXTI1_IRQHandler
                0x000000000800b890        0xa Core/Src/stm32f4xx_it.o
                0x000000000800b890                EXTI1_IRQHandler
 .text.EXTI4_IRQHandler
                0x000000000800b89a        0xa Core/Src/stm32f4xx_it.o
                0x000000000800b89a                EXTI4_IRQHandler
 .text.EXTI9_5_IRQHandler
                0x000000000800b8a4        0xa Core/Src/stm32f4xx_it.o
                0x000000000800b8a4                EXTI9_5_IRQHandler
 *fill*         0x000000000800b8ae        0x2 
 .text.USART2_IRQHandler
                0x000000000800b8b0       0x10 Core/Src/stm32f4xx_it.o
                0x000000000800b8b0                USART2_IRQHandler
 .text.DMA2_Stream0_IRQHandler
                0x000000000800b8c0       0x10 Core/Src/stm32f4xx_it.o
                0x000000000800b8c0                DMA2_Stream0_IRQHandler
 .text.USART6_IRQHandler
                0x000000000800b8d0       0x10 Core/Src/stm32f4xx_it.o
                0x000000000800b8d0                USART6_IRQHandler
 .text.SystemInit
                0x000000000800b8e0       0x4c Core/Src/system_stm32f4xx.o
                0x000000000800b8e0                SystemInit
 .text.ft800MeasureFreq
                0x000000000800b92c       0x38 Core/Src/user.o
 .text.ft800TuneFreq
                0x000000000800b964       0x54 Core/Src/user.o
 .text.SetBacklight
                0x000000000800b9b8       0x48 Core/Src/user.o
                0x000000000800b9b8                SetBacklight
 .text.Ft_App_WrCoCmd_Buffer
                0x000000000800ba00       0x18 Core/Src/user.o
                0x000000000800ba00                Ft_App_WrCoCmd_Buffer
 .text.Ft_App_WrDlCmd_Buffer
                0x000000000800ba18       0x18 Core/Src/user.o
                0x000000000800ba18                Ft_App_WrDlCmd_Buffer
 .text.Ft_App_WrCoStr_Buffer
                0x000000000800ba30       0x34 Core/Src/user.o
                0x000000000800ba30                Ft_App_WrCoStr_Buffer
 .text.Ft_App_Flush_DL_Buffer
                0x000000000800ba64       0x24 Core/Src/user.o
                0x000000000800ba64                Ft_App_Flush_DL_Buffer
 .text.Ft_App_Flush_Co_Buffer
                0x000000000800ba88       0x24 Core/Src/user.o
                0x000000000800ba88                Ft_App_Flush_Co_Buffer
 .text.Get_UserColorHex
                0x000000000800baac       0x28 Core/Src/user.o
                0x000000000800baac                Get_UserColorHex
 .text.User_Init
                0x000000000800bad4      0x268 Core/Src/user.o
                0x000000000800bad4                User_Init
 .text.TagRegister
                0x000000000800bd3c       0x40 Core/Src/user.o
                0x000000000800bd3c                TagRegister
 .text.FlushTouchQueue
                0x000000000800bd7c       0x24 Core/Src/user.o
                0x000000000800bd7c                FlushTouchQueue
 .text.Read_Keypad
                0x000000000800bda0       0x30 Core/Src/user.o
                0x000000000800bda0                Read_Keypad
 .text.Char2Font
                0x000000000800bdd0        0xa Core/Src/user.o
                0x000000000800bdd0                Char2Font
 *fill*         0x000000000800bdda        0x2 
 .text.Ft_Gpu_Font_WH
                0x000000000800bddc       0x40 Core/Src/user.o
                0x000000000800bddc                Ft_Gpu_Font_WH
 .text.GetStringWidth
                0x000000000800be1c       0x22 Core/Src/user.o
                0x000000000800be1c                GetStringWidth
 .text.GetFont4StringWidth
                0x000000000800be3e       0x38 Core/Src/user.o
                0x000000000800be3e                GetFont4StringWidth
 *fill*         0x000000000800be76        0x2 
 .text.String2Font
                0x000000000800be78       0x30 Core/Src/user.o
                0x000000000800be78                String2Font
 .text.user_Touch_Calibrate
                0x000000000800bea8       0x74 Core/Src/user.o
                0x000000000800bea8                user_Touch_Calibrate
 .text.Check4StatusChange
                0x000000000800bf1c      0x110 Core/Src/user.o
                0x000000000800bf1c                Check4StatusChange
 .text.userSetTempUM
                0x000000000800c02c       0x30 Core/Src/user.o
                0x000000000800c02c                userSetTempUM
 .text.userGetServicePassword
                0x000000000800c05c       0x58 Core/Src/user.o
                0x000000000800c05c                userGetServicePassword
 .text.ShowWaitSetResultPopup
                0x000000000800c0b4      0x33c Core/Src/user.o
                0x000000000800c0b4                ShowWaitSetResultPopup
 .text.ExecTipoStufa
                0x000000000800c3f0       0x24 Core/Src/user.o
                0x000000000800c3f0                ExecTipoStufa
 .text.ExecTipoDef
                0x000000000800c414       0x5c Core/Src/user.o
                0x000000000800c414                ExecTipoDef
 .text.ExecUpdateLang
                0x000000000800c470       0x28 Core/Src/user.o
                0x000000000800c470                ExecUpdateLang
 .text.ExecSetTempUM
                0x000000000800c498       0x18 Core/Src/user.o
                0x000000000800c498                ExecSetTempUM
 .text.ExecBypass
                0x000000000800c4b0       0x54 Core/Src/user.o
                0x000000000800c4b0                ExecBypass
 .text.ExecBypassTra
                0x000000000800c504       0x54 Core/Src/user.o
                0x000000000800c504                ExecBypassTra
 .text.ExecTaraTC
                0x000000000800c558       0x54 Core/Src/user.o
                0x000000000800c558                ExecTaraTC
 .text.ExecSetRFid
                0x000000000800c5ac       0x2c Core/Src/user.o
                0x000000000800c5ac                ExecSetRFid
 .text.ExecLocalSetRFid
                0x000000000800c5d8       0x18 Core/Src/user.o
                0x000000000800c5d8                ExecLocalSetRFid
 .text.userVisShutDown
                0x000000000800c5f0       0x84 Core/Src/user.o
                0x000000000800c5f0                userVisShutDown
 .text.userVisLowPower
                0x000000000800c674       0x1c Core/Src/user.o
                0x000000000800c674                userVisLowPower
 .text.userVisPause
                0x000000000800c690       0x68 Core/Src/user.o
                0x000000000800c690                userVisPause
 .text.userExitPause
                0x000000000800c6f8       0x70 Core/Src/user.o
                0x000000000800c6f8                userExitPause
 .text.User_Task
                0x000000000800c768      0x16c Core/Src/user.o
                0x000000000800c768                User_Task
 .text.userStartOTLongPause
                0x000000000800c8d4       0x1c Core/Src/user.o
                0x000000000800c8d4                userStartOTLongPause
 .text.userPause
                0x000000000800c8f0      0x170 Core/Src/user.o
 .text.GetVisPercVBatt
                0x000000000800ca60       0x34 Core/Src/user.o
                0x000000000800ca60                GetVisPercVBatt
 .text.IsToView_PreCarPellet
                0x000000000800ca94       0x14 Core/Src/user.o
                0x000000000800ca94                IsToView_PreCarPellet
 .text.IsToView_Pulizia
                0x000000000800caa8       0x14 Core/Src/user.o
                0x000000000800caa8                IsToView_Pulizia
 .text.IsToView_AttivaPompa
                0x000000000800cabc       0x28 Core/Src/user.o
                0x000000000800cabc                IsToView_AttivaPompa
 .text.IsServiceReq
                0x000000000800cae4       0x10 Core/Src/user.o
                0x000000000800cae4                IsServiceReq
 .text.IsSensAriaFail
                0x000000000800caf4       0x10 Core/Src/user.o
                0x000000000800caf4                IsSensAriaFail
 .text.IsSensH2OFail
                0x000000000800cb04       0x10 Core/Src/user.o
                0x000000000800cb04                IsSensH2OFail
 .text.IsPressostH2OFail
                0x000000000800cb14       0x10 Core/Src/user.o
                0x000000000800cb14                IsPressostH2OFail
 .text.IsPressH2OAlarm
                0x000000000800cb24        0xc Core/Src/user.o
                0x000000000800cb24                IsPressH2OAlarm
 .text.IsSensPortFail
                0x000000000800cb30       0x10 Core/Src/user.o
                0x000000000800cb30                IsSensPortFail
 .text.IsFinePellet
                0x000000000800cb40       0x10 Core/Src/user.o
                0x000000000800cb40                IsFinePellet
 .text.IsPortaAperta
                0x000000000800cb50       0x10 Core/Src/user.o
                0x000000000800cb50                IsPortaAperta
 .text.userIsCrono
                0x000000000800cb60       0x14 Core/Src/user.o
                0x000000000800cb60                userIsCrono
 .text.userIsSleep
                0x000000000800cb74       0x10 Core/Src/user.o
                0x000000000800cb74                userIsSleep
 .text.userIsIdro
                0x000000000800cb84       0x10 Core/Src/user.o
                0x000000000800cb84                userIsIdro
 .text.IsCtrlPortata
                0x000000000800cb94       0x10 Core/Src/user.o
                0x000000000800cb94                IsCtrlPortata
 .text.IsCtrlLambda
                0x000000000800cba4       0x10 Core/Src/user.o
                0x000000000800cba4                IsCtrlLambda
 .text.IsFan1Info
                0x000000000800cbb4       0x24 Core/Src/user.o
                0x000000000800cbb4                IsFan1Info
 .text.IsFan2Info
                0x000000000800cbd8       0x40 Core/Src/user.o
                0x000000000800cbd8                IsFan2Info
 .text.IsPressIdro
                0x000000000800cc18       0x10 Core/Src/user.o
                0x000000000800cc18                IsPressIdro
 .text.IsWiFi   0x000000000800cc28       0x10 Core/Src/user.o
                0x000000000800cc28                IsWiFi
 .text.IsWiFiNet
                0x000000000800cc38       0x18 Core/Src/user.o
                0x000000000800cc38                IsWiFiNet
 .text.IsCtrlAria
                0x000000000800cc50       0x14 Core/Src/user.o
                0x000000000800cc50                IsCtrlAria
 .text.IsSensPellet
                0x000000000800cc64       0x10 Core/Src/user.o
                0x000000000800cc64                IsSensPellet
 .text.IsTermocoppia
                0x000000000800cc74       0x10 Core/Src/user.o
                0x000000000800cc74                IsTermocoppia
 .text.IsTempoCoclea
                0x000000000800cc84       0x14 Core/Src/user.o
                0x000000000800cc84                IsTempoCoclea
 .text.IsGiriCoclea
                0x000000000800cc98       0x10 Core/Src/user.o
                0x000000000800cc98                IsGiriCoclea
 .text.IsCoclea2
                0x000000000800cca8       0x10 Core/Src/user.o
                0x000000000800cca8                IsCoclea2
 .text.IsTOffCoclea
                0x000000000800ccb8       0x28 Core/Src/user.o
                0x000000000800ccb8                IsTOffCoclea
 .text.IsPeriodoCoclea
                0x000000000800cce0       0x28 Core/Src/user.o
                0x000000000800cce0                IsPeriodoCoclea
 .text.IsTipoFrenCoclea
                0x000000000800cd08       0x18 Core/Src/user.o
                0x000000000800cd08                IsTipoFrenCoclea
 .text.IsEsp2   0x000000000800cd20       0x28 Core/Src/user.o
                0x000000000800cd20                IsEsp2
 .text.IsEsp2Giri
                0x000000000800cd48       0x28 Core/Src/user.o
                0x000000000800cd48                IsEsp2Giri
 .text.IsTOffCoclea2
                0x000000000800cd70       0x28 Core/Src/user.o
                0x000000000800cd70                IsTOffCoclea2
 .text.IsPeriodoCoclea2
                0x000000000800cd98       0x28 Core/Src/user.o
                0x000000000800cd98                IsPeriodoCoclea2
 .text.IsTipoFrenCoclea2
                0x000000000800cdc0       0x18 Core/Src/user.o
                0x000000000800cdc0                IsTipoFrenCoclea2
 .text.IsRipristino
                0x000000000800cdd8       0x10 Core/Src/user.o
                0x000000000800cdd8                IsRipristino
 .text.IsTMaxPreAlm
                0x000000000800cde8       0x14 Core/Src/user.o
                0x000000000800cde8                IsTMaxPreAlm
 .text.IsTermostato
                0x000000000800cdfc       0x10 Core/Src/user.o
                0x000000000800cdfc                IsTermostato
 .text.IsDTempEco
                0x000000000800ce0c        0xe Core/Src/user.o
                0x000000000800ce0c                IsDTempEco
 *fill*         0x000000000800ce1a        0x2 
 .text.IsTPreA06
                0x000000000800ce1c       0x14 Core/Src/user.o
                0x000000000800ce1c                IsTPreA06
 .text.IsPot1   0x000000000800ce30       0x14 Core/Src/user.o
                0x000000000800ce30                IsPot1
 .text.IsPot2   0x000000000800ce44       0x18 Core/Src/user.o
                0x000000000800ce44                IsPot2
 .text.IsPot3   0x000000000800ce5c       0x18 Core/Src/user.o
                0x000000000800ce5c                IsPot3
 .text.IsPot4   0x000000000800ce74       0x18 Core/Src/user.o
                0x000000000800ce74                IsPot4
 .text.IsPot5   0x000000000800ce8c       0x18 Core/Src/user.o
                0x000000000800ce8c                IsPot5
 .text.IsPot6   0x000000000800cea4       0x18 Core/Src/user.o
                0x000000000800cea4                IsPot6
 .text.IsFotoresistenza
                0x000000000800cebc       0x10 Core/Src/user.o
                0x000000000800cebc                IsFotoresistenza
 .text.IsCollaudoMan
                0x000000000800cecc       0x10 Core/Src/user.o
                0x000000000800cecc                IsCollaudoMan
 .text.IsCollaudoAuto
                0x000000000800cedc       0x10 Core/Src/user.o
                0x000000000800cedc                IsCollaudoAuto
 .text.IsFan1Test
                0x000000000800ceec       0x14 Core/Src/user.o
                0x000000000800ceec                IsFan1Test
 .text.IsFan2Test
                0x000000000800cf00       0x14 Core/Src/user.o
                0x000000000800cf00                IsFan2Test
 .text.IsScuotitore
                0x000000000800cf14        0xc Core/Src/user.o
                0x000000000800cf14                IsScuotitore
 .text.IsCocleaItem
                0x000000000800cf20       0x28 Core/Src/user.o
                0x000000000800cf20                IsCocleaItem
 .text.IsPreAccHotItem
                0x000000000800cf48       0x18 Core/Src/user.o
                0x000000000800cf48                IsPreAccHotItem
 .text.IsAccBItem
                0x000000000800cf60       0x18 Core/Src/user.o
                0x000000000800cf60                IsAccBItem
 .text.IsWiFiIPvalid
                0x000000000800cf78       0x20 Core/Src/user.o
                0x000000000800cf78                IsWiFiIPvalid
 .text.VisAlmRec
                0x000000000800cf98      0x508 Core/Src/userAllarmi.o
 .text.EVE_WinList
                0x000000000800d4a0      0x664 Core/Src/userAllarmi.o
                0x000000000800d4a0                EVE_WinList
 .text.AlarmInit
                0x000000000800db04       0x2c Core/Src/userAllarmi.o
                0x000000000800db04                AlarmInit
 .text.AlarmPut
                0x000000000800db30       0x60 Core/Src/userAllarmi.o
                0x000000000800db30                AlarmPut
 .text.AlarmGet
                0x000000000800db90       0x38 Core/Src/userAllarmi.o
                0x000000000800db90                AlarmGet
 .text.IsAlmRec
                0x000000000800dbc8       0x10 Core/Src/userAllarmi.o
                0x000000000800dbc8                IsAlmRec
 .text.WinAlmRec
                0x000000000800dbd8      0x1b0 Core/Src/userAllarmi.o
                0x000000000800dbd8                WinAlmRec
 .text.Check4CmdGroup
                0x000000000800dd88       0x3c Core/Src/userAvvio.o
 .text.userVisStandby
                0x000000000800ddc4       0x5c Core/Src/userAvvio.o
 .text.ExecUnlock
                0x000000000800de20       0x40 Core/Src/userAvvio.o
 .text.userVisSetpTemp
                0x000000000800de60       0xd0 Core/Src/userAvvio.o
 .text.WinAlarm
                0x000000000800df30      0x888 Core/Src/userAvvio.o
 .text.userVisTemp
                0x000000000800e7b8      0x418 Core/Src/userAvvio.o
 .text.WinSetFan
                0x000000000800ebd0      0x93c Core/Src/userAvvio.o
 .text.WinSetIdro
                0x000000000800f50c      0x970 Core/Src/userAvvio.o
 .text.WinESM   0x000000000800fe7c      0x714 Core/Src/userAvvio.o
 .text.userVisAvvio
                0x0000000008010590       0x90 Core/Src/userAvvio.o
                0x0000000008010590                userVisAvvio
 .text.ReleaseAllBitmapAvvio
                0x0000000008010620       0x20 Core/Src/userAvvio.o
                0x0000000008010620                ReleaseAllBitmapAvvio
 .text.LoadAllBitmapAvvio
                0x0000000008010640       0xa0 Core/Src/userAvvio.o
                0x0000000008010640                LoadAllBitmapAvvio
 .text.userStandby
                0x00000000080106e0      0xb48 Core/Src/userAvvio.o
                0x00000000080106e0                userStandby
 .text.WinSetPower
                0x0000000008011228      0x5dc Core/Src/userAvvio.o
                0x0000000008011228                WinSetPower
 .text.WinSetTemp
                0x0000000008011804      0x63c Core/Src/userAvvio.o
                0x0000000008011804                WinSetTemp
 .text.userAvvio
                0x0000000008011e40     0x2468 Core/Src/userAvvio.o
                0x0000000008011e40                userAvvio
 .text.userRestartOff
                0x00000000080142a8      0x4e4 Core/Src/userAvvio.o
                0x00000000080142a8                userRestartOff
 .text.LoadAllBitmapCrono
                0x000000000801478c       0xa0 Core/Src/userCrono.o
 .text.ReleaseAllBitmapCrono
                0x000000000801482c       0x5c Core/Src/userCrono.o
 .text.userPostSetCronoPar
                0x0000000008014888       0xa4 Core/Src/userCrono.o
                0x0000000008014888                userPostSetCronoPar
 .text.userVisCrono
                0x000000000801492c        0x4 Core/Src/userCrono.o
                0x000000000801492c                userVisCrono
 .text.userToggleCronoEnable
                0x0000000008014930       0x58 Core/Src/userCrono.o
                0x0000000008014930                userToggleCronoEnable
 .text.userCrono
                0x0000000008014988      0x908 Core/Src/userCrono.o
                0x0000000008014988                userCrono
 .text.InitPassword
                0x0000000008015290       0x18 Core/Src/userInit.o
                0x0000000008015290                InitPassword
 .text.InitLogo
                0x00000000080152a8       0x34 Core/Src/userInit.o
                0x00000000080152a8                InitLogo
 .text.InitTipoDesc
                0x00000000080152dc       0x58 Core/Src/userInit.o
                0x00000000080152dc                InitTipoDesc
 .text.userVisInit
                0x0000000008015334       0xd0 Core/Src/userInit.o
                0x0000000008015334                userVisInit
 .text.userCollectParam
                0x0000000008015404       0xc0 Core/Src/userInit.o
                0x0000000008015404                userCollectParam
 .text.userInit
                0x00000000080154c4      0x250 Core/Src/userInit.o
                0x00000000080154c4                userInit
 .text.GetRealParCode
                0x0000000008015714       0x98 Core/Src/userMenu.o
 .text.EnterVisParCod
                0x00000000080157ac       0x28 Core/Src/userMenu.o
 .text.setup_menu_draw
                0x00000000080157d4      0xc44 Core/Src/userMenu.o
 .text.setup_menu_init
                0x0000000008016418       0xd4 Core/Src/userMenu.o
 .text.VisMenu  0x00000000080164ec       0xe8 Core/Src/userMenu.o
 .text.RetMenu  0x00000000080165d4       0x38 Core/Src/userMenu.o
 .text.RetMenuSettings
                0x000000000801660c       0x14 Core/Src/userMenu.o
 .text.RetMenuTest
                0x0000000008016620       0x14 Core/Src/userMenu.o
 .text.RetMenuAlarms
                0x0000000008016634       0x14 Core/Src/userMenu.o
 .text.RetMenuAttuaPot
                0x0000000008016648       0x14 Core/Src/userMenu.o
 .text.RetMenuAttuaTra
                0x000000000801665c       0x14 Core/Src/userMenu.o
 .text.RetMenuCtrl
                0x0000000008016670       0x14 Core/Src/userMenu.o
 .text.RetMenuSysCfg
                0x0000000008016684       0x14 Core/Src/userMenu.o
 .text.RetMenuTec
                0x0000000008016698       0x14 Core/Src/userMenu.o
                0x0000000008016698                RetMenuTec
 .text.RetMainMenu
                0x00000000080166ac       0x40 Core/Src/userMenu.o
 .text.userExitMenu
                0x00000000080166ec       0x44 Core/Src/userMenu.o
                0x00000000080166ec                userExitMenu
 .text.ExitMenuCronoProg
                0x0000000008016730       0xdc Core/Src/userMenu.o
                0x0000000008016730                ExitMenuCronoProg
 .text.CheckMenuAccess
                0x000000000801680c       0x40 Core/Src/userMenu.o
                0x000000000801680c                CheckMenuAccess
 .text.EnterMenu
                0x000000000801684c       0xcc Core/Src/userMenu.o
 .text.EnterMenuAttua
                0x0000000008016918       0x24 Core/Src/userMenu.o
 .text.EnterMenuLoads
                0x000000000801693c       0x24 Core/Src/userMenu.o
 .text.EnterMenuCmd
                0x0000000008016960       0x24 Core/Src/userMenu.o
 .text.EnterMenuRicette
                0x0000000008016984       0x24 Core/Src/userMenu.o
 .text.EnterMenuTec
                0x00000000080169a8       0x24 Core/Src/userMenu.o
 .text.EnterMenuTest
                0x00000000080169cc       0x24 Core/Src/userMenu.o
 .text.EnterMenuAlarms
                0x00000000080169f0       0x24 Core/Src/userMenu.o
 .text.EnterMenuSensAria
                0x0000000008016a14       0x24 Core/Src/userMenu.o
 .text.EnterMenuSensPlt
                0x0000000008016a38       0x24 Core/Src/userMenu.o
 .text.EnterMenuAlmFumi
                0x0000000008016a5c       0x24 Core/Src/userMenu.o
 .text.EnterMenuAttuaPot
                0x0000000008016a80       0x24 Core/Src/userMenu.o
 .text.EnterMenuInterp
                0x0000000008016aa4       0x24 Core/Src/userMenu.o
 .text.EnterMenuPuliz
                0x0000000008016ac8       0x24 Core/Src/userMenu.o
 .text.EnterMenuPot6
                0x0000000008016aec       0x24 Core/Src/userMenu.o
 .text.EnterMenuPot5
                0x0000000008016b10       0x24 Core/Src/userMenu.o
 .text.EnterMenuPot4
                0x0000000008016b34       0x24 Core/Src/userMenu.o
 .text.EnterMenuPot3
                0x0000000008016b58       0x24 Core/Src/userMenu.o
 .text.EnterMenuPot2
                0x0000000008016b7c       0x24 Core/Src/userMenu.o
 .text.EnterMenuPot1
                0x0000000008016ba0       0x24 Core/Src/userMenu.o
 .text.EnterMenuPB
                0x0000000008016bc4       0x24 Core/Src/userMenu.o
 .text.EnterMenuRitPot
                0x0000000008016be8       0x24 Core/Src/userMenu.o
 .text.EnterMenuRitEsp
                0x0000000008016c0c       0x24 Core/Src/userMenu.o
 .text.EnterMenuTFunz
                0x0000000008016c30       0x24 Core/Src/userMenu.o
 .text.EnterMenuParPot
                0x0000000008016c54       0x24 Core/Src/userMenu.o
 .text.EnterMenuAttuaTra
                0x0000000008016c78       0x24 Core/Src/userMenu.o
 .text.EnterMenuRaffA
                0x0000000008016c9c       0x24 Core/Src/userMenu.o
 .text.EnterMenuSpeB
                0x0000000008016cc0       0x24 Core/Src/userMenu.o
 .text.EnterMenuSpeA
                0x0000000008016ce4       0x24 Core/Src/userMenu.o
 .text.EnterMenuFireONA
                0x0000000008016d08       0x24 Core/Src/userMenu.o
 .text.EnterMenuAccB
                0x0000000008016d2c       0x24 Core/Src/userMenu.o
 .text.EnterMenuAccA
                0x0000000008016d50       0x24 Core/Src/userMenu.o
 .text.EnterMenuPreAccHot
                0x0000000008016d74       0x24 Core/Src/userMenu.o
 .text.EnterMenuPreAcc2
                0x0000000008016d98       0x24 Core/Src/userMenu.o
 .text.EnterMenuPreAcc1
                0x0000000008016dbc       0x24 Core/Src/userMenu.o
 .text.EnterMenuParTra
                0x0000000008016de0       0x24 Core/Src/userMenu.o
 .text.EnterMenuIdro
                0x0000000008016e04       0x24 Core/Src/userMenu.o
 .text.EnterMenuCtrl
                0x0000000008016e28       0x24 Core/Src/userMenu.o
 .text.EnterMenuScuot
                0x0000000008016e4c       0x24 Core/Src/userMenu.o
 .text.EnterMenuEco
                0x0000000008016e70       0x24 Core/Src/userMenu.o
 .text.EnterMenuRicTra
                0x0000000008016e94       0x24 Core/Src/userMenu.o
 .text.EnterMenuSysCfg
                0x0000000008016eb8       0x24 Core/Src/userMenu.o
 .text.EnterMenuFan3
                0x0000000008016edc       0x24 Core/Src/userMenu.o
 .text.EnterMenuFan2
                0x0000000008016f00       0x24 Core/Src/userMenu.o
 .text.EnterMenuFan1
                0x0000000008016f24       0x24 Core/Src/userMenu.o
 .text.EnterMenuFanAmb
                0x0000000008016f48       0x24 Core/Src/userMenu.o
 .text.EnterMenuCoclea
                0x0000000008016f6c       0x24 Core/Src/userMenu.o
 .text.EnterMenuBlkout
                0x0000000008016f90       0x24 Core/Src/userMenu.o
 .text.EnterMenuGen
                0x0000000008016fb4       0x24 Core/Src/userMenu.o
 .text.EnterMenuSettings
                0x0000000008016fd8       0x24 Core/Src/userMenu.o
 .text.userIsWarning
                0x0000000008016ffc       0x10 Core/Src/userMenu.o
                0x0000000008016ffc                userIsWarning
 .text.WinSetString
                0x000000000801700c      0xca8 Core/Src/userMenu.o
                0x000000000801700c                WinSetString
 .text.WinSetParam
                0x0000000008017cb4      0x64c Core/Src/userMenu.o
                0x0000000008017cb4                WinSetParam
 .text.WinSetTime
                0x0000000008018300      0x7e4 Core/Src/userMenu.o
                0x0000000008018300                WinSetTime
 .text.WinSetDate
                0x0000000008018ae4      0xbec Core/Src/userMenu.o
                0x0000000008018ae4                WinSetDate
 .text.WinPassword
                0x00000000080196d0      0x9b4 Core/Src/userMenu.o
                0x00000000080196d0                WinPassword
 .text.userVisHidPass
                0x000000000801a084       0xa8 Core/Src/userMenu.o
 .text.WinConfirm
                0x000000000801a12c      0x31c Core/Src/userMenu.o
                0x000000000801a12c                WinConfirm
 .text.ConfTaraTC
                0x000000000801a448       0x44 Core/Src/userMenu.o
 .text.ConfBypass
                0x000000000801a48c       0x34 Core/Src/userMenu.o
 .text.ConfBypassTra
                0x000000000801a4c0       0x34 Core/Src/userMenu.o
 .text.ConfTipoDef
                0x000000000801a4f4       0x34 Core/Src/userMenu.o
 .text.WinSetParWaitResult
                0x000000000801a528       0xd0 Core/Src/userMenu.o
                0x000000000801a528                WinSetParWaitResult
 .text.ConfOreSAT
                0x000000000801a5f8       0x74 Core/Src/userMenu.o
 .text.WinSetDisplay
                0x000000000801a66c      0x804 Core/Src/userMenu.o
                0x000000000801a66c                WinSetDisplay
 .text.userMenu
                0x000000000801ae70      0xeec Core/Src/userMenu.o
                0x000000000801ae70                userMenu
 .text.EnterMenuInfo
                0x000000000801bd5c       0x24 Core/Src/userMenu.o
                0x000000000801bd5c                EnterMenuInfo
 .text.RetMenuInfo
                0x000000000801bd80       0x14 Core/Src/userMenu.o
                0x000000000801bd80                RetMenuInfo
 .text.EnterMenuNetwork
                0x000000000801bd94       0x24 Core/Src/userMenu.o
                0x000000000801bd94                EnterMenuNetwork
 .text.EnterMenuWarn
                0x000000000801bdb8       0x24 Core/Src/userMenu.o
                0x000000000801bdb8                EnterMenuWarn
 .text.EnterMainMenu
                0x000000000801bddc       0x70 Core/Src/userMenu.o
                0x000000000801bddc                EnterMainMenu
 .text.EnterLocalSettings
                0x000000000801be4c       0x70 Core/Src/userMenu.o
                0x000000000801be4c                EnterLocalSettings
 .text.EnterMenuCronoProg
                0x000000000801bebc       0x28 Core/Src/userMenu.o
                0x000000000801bebc                EnterMenuCronoProg
 .text.userVisReqParCod
                0x000000000801bee4       0x3c Core/Src/userParamCode.o
                0x000000000801bee4                userVisReqParCod
 .text.userParamCode
                0x000000000801bf20     0x114c Core/Src/userParamCode.o
                0x000000000801bf20                userParamCode
 .text.userParamVis
                0x000000000801d06c      0x7cc Core/Src/userParamCode.o
                0x000000000801d06c                userParamVis
 .text.userVisReset
                0x000000000801d838       0xdc Core/Src/userReset.o
                0x000000000801d838                userVisReset
 .text.userReset
                0x000000000801d914      0x420 Core/Src/userReset.o
                0x000000000801d914                userReset
 .text.VisVersion
                0x000000000801dd34      0x134 Core/Src/userResources.o
 .text.GoToSleepOnBatteryCharge
                0x000000000801de68       0x64 Core/Src/userResources.o
 .text.userVisBattery
                0x000000000801decc       0x30 Core/Src/userResources.o
                0x000000000801decc                userVisBattery
 .text.userVisResources
                0x000000000801defc       0x38 Core/Src/userResources.o
                0x000000000801defc                userVisResources
 .text.userResources
                0x000000000801df34      0x158 Core/Src/userResources.o
                0x000000000801df34                userResources
 .text.userBattery
                0x000000000801e08c      0x3b8 Core/Src/userResources.o
                0x000000000801e08c                userBattery
 .text.HAL_InitTick
                0x000000000801e444       0x4c Drivers/STM32F4xx_HAL_Driver/Src/stm32f4xx_hal.o
                0x000000000801e444                HAL_InitTick
 .text.HAL_Init
                0x000000000801e490       0x34 Drivers/STM32F4xx_HAL_Driver/Src/stm32f4xx_hal.o
                0x000000000801e490                HAL_Init
 .text.HAL_IncTick
                0x000000000801e4c4       0x18 Drivers/STM32F4xx_HAL_Driver/Src/stm32f4xx_hal.o
                0x000000000801e4c4                HAL_IncTick
 .text.HAL_GetTick
                0x000000000801e4dc        0xc Drivers/STM32F4xx_HAL_Driver/Src/stm32f4xx_hal.o
                0x000000000801e4dc                HAL_GetTick
 .text.HAL_Delay
                0x000000000801e4e8       0x28 Drivers/STM32F4xx_HAL_Driver/Src/stm32f4xx_hal.o
                0x000000000801e4e8                HAL_Delay
 .text.ADC_Init
                0x000000000801e510      0x14c Drivers/STM32F4xx_HAL_Driver/Src/stm32f4xx_hal_adc.o
 .text.HAL_ADC_Init
                0x000000000801e65c      0x1dc Drivers/STM32F4xx_HAL_Driver/Src/stm32f4xx_hal_adc.o
                0x000000000801e65c                HAL_ADC_Init
 .text.HAL_ADC_DeInit
                0x000000000801e838       0x58 Drivers/STM32F4xx_HAL_Driver/Src/stm32f4xx_hal_adc.o
                0x000000000801e838                HAL_ADC_DeInit
 .text.HAL_ADC_Start_DMA
                0x000000000801e890      0x17c Drivers/STM32F4xx_HAL_Driver/Src/stm32f4xx_hal_adc.o
                0x000000000801e890                HAL_ADC_Start_DMA
 .text.HAL_ADC_Stop_DMA
                0x000000000801ea0c       0x78 Drivers/STM32F4xx_HAL_Driver/Src/stm32f4xx_hal_adc.o
                0x000000000801ea0c                HAL_ADC_Stop_DMA
 .text.ADC_DMAConvCplt
                0x000000000801ea84       0x62 Drivers/STM32F4xx_HAL_Driver/Src/stm32f4xx_hal_adc.o
 .text.HAL_ADC_ConvHalfCpltCallback
                0x000000000801eae6        0x2 Drivers/STM32F4xx_HAL_Driver/Src/stm32f4xx_hal_adc.o
                0x000000000801eae6                HAL_ADC_ConvHalfCpltCallback
 .text.ADC_DMAHalfConvCplt
                0x000000000801eae8        0xa Drivers/STM32F4xx_HAL_Driver/Src/stm32f4xx_hal_adc.o
 .text.ADC_DMAError
                0x000000000801eaf2       0x16 Drivers/STM32F4xx_HAL_Driver/Src/stm32f4xx_hal_adc.o
 .text.HAL_ADC_ConfigChannel
                0x000000000801eb08      0x1d0 Drivers/STM32F4xx_HAL_Driver/Src/stm32f4xx_hal_adc.o
                0x000000000801eb08                HAL_ADC_ConfigChannel
 .text.HAL_NVIC_SetPriorityGrouping
                0x000000000801ecd8       0x3c Drivers/STM32F4xx_HAL_Driver/Src/stm32f4xx_hal_cortex.o
                0x000000000801ecd8                HAL_NVIC_SetPriorityGrouping
 .text.HAL_NVIC_SetPriority
                0x000000000801ed14       0x8c Drivers/STM32F4xx_HAL_Driver/Src/stm32f4xx_hal_cortex.o
                0x000000000801ed14                HAL_NVIC_SetPriority
 .text.HAL_NVIC_EnableIRQ
                0x000000000801eda0       0x2c Drivers/STM32F4xx_HAL_Driver/Src/stm32f4xx_hal_cortex.o
                0x000000000801eda0                HAL_NVIC_EnableIRQ
 .text.HAL_NVIC_DisableIRQ
                0x000000000801edcc       0x2c Drivers/STM32F4xx_HAL_Driver/Src/stm32f4xx_hal_cortex.o
                0x000000000801edcc                HAL_NVIC_DisableIRQ
 .text.HAL_NVIC_SystemReset
                0x000000000801edf8       0x24 Drivers/STM32F4xx_HAL_Driver/Src/stm32f4xx_hal_cortex.o
                0x000000000801edf8                HAL_NVIC_SystemReset
 .text.HAL_SYSTICK_Config
                0x000000000801ee1c       0x2c Drivers/STM32F4xx_HAL_Driver/Src/stm32f4xx_hal_cortex.o
                0x000000000801ee1c                HAL_SYSTICK_Config
 .text.DMA_SetConfig
                0x000000000801ee48       0x2c Drivers/STM32F4xx_HAL_Driver/Src/stm32f4xx_hal_dma.o
 .text.DMA_CalcBaseAndBitshift
                0x000000000801ee74       0x3c Drivers/STM32F4xx_HAL_Driver/Src/stm32f4xx_hal_dma.o
 .text.DMA_CheckFifoParam
                0x000000000801eeb0       0x8e Drivers/STM32F4xx_HAL_Driver/Src/stm32f4xx_hal_dma.o
 *fill*         0x000000000801ef3e        0x2 
 .text.HAL_DMA_Init
                0x000000000801ef40      0x290 Drivers/STM32F4xx_HAL_Driver/Src/stm32f4xx_hal_dma.o
                0x000000000801ef40                HAL_DMA_Init
 .text.HAL_DMA_DeInit
                0x000000000801f1d0       0xd4 Drivers/STM32F4xx_HAL_Driver/Src/stm32f4xx_hal_dma.o
                0x000000000801f1d0                HAL_DMA_DeInit
 .text.HAL_DMA_Start_IT
                0x000000000801f2a4       0xa0 Drivers/STM32F4xx_HAL_Driver/Src/stm32f4xx_hal_dma.o
                0x000000000801f2a4                HAL_DMA_Start_IT
 .text.HAL_DMA_Abort
                0x000000000801f344       0x94 Drivers/STM32F4xx_HAL_Driver/Src/stm32f4xx_hal_dma.o
                0x000000000801f344                HAL_DMA_Abort
 .text.HAL_DMA_Abort_IT
                0x000000000801f3d8       0x26 Drivers/STM32F4xx_HAL_Driver/Src/stm32f4xx_hal_dma.o
                0x000000000801f3d8                HAL_DMA_Abort_IT
 *fill*         0x000000000801f3fe        0x2 
 .text.HAL_DMA_IRQHandler
                0x000000000801f400      0x1dc Drivers/STM32F4xx_HAL_Driver/Src/stm32f4xx_hal_dma.o
                0x000000000801f400                HAL_DMA_IRQHandler
 .text.HAL_GPIO_Init
                0x000000000801f5dc      0x2b4 Drivers/STM32F4xx_HAL_Driver/Src/stm32f4xx_hal_gpio.o
                0x000000000801f5dc                HAL_GPIO_Init
 .text.HAL_GPIO_DeInit
                0x000000000801f890      0x134 Drivers/STM32F4xx_HAL_Driver/Src/stm32f4xx_hal_gpio.o
                0x000000000801f890                HAL_GPIO_DeInit
 .text.HAL_GPIO_ReadPin
                0x000000000801f9c4       0x28 Drivers/STM32F4xx_HAL_Driver/Src/stm32f4xx_hal_gpio.o
                0x000000000801f9c4                HAL_GPIO_ReadPin
 .text.HAL_GPIO_WritePin
                0x000000000801f9ec       0x38 Drivers/STM32F4xx_HAL_Driver/Src/stm32f4xx_hal_gpio.o
                0x000000000801f9ec                HAL_GPIO_WritePin
 .text.HAL_GPIO_TogglePin
                0x000000000801fa24       0x20 Drivers/STM32F4xx_HAL_Driver/Src/stm32f4xx_hal_gpio.o
                0x000000000801fa24                HAL_GPIO_TogglePin
 .text.HAL_GPIO_EXTI_IRQHandler
                0x000000000801fa44       0x1c Drivers/STM32F4xx_HAL_Driver/Src/stm32f4xx_hal_gpio.o
                0x000000000801fa44                HAL_GPIO_EXTI_IRQHandler
 .text.I2C_IsAcknowledgeFailed
                0x000000000801fa60       0x2a Drivers/STM32F4xx_HAL_Driver/Src/stm32f4xx_hal_i2c.o
 .text.I2C_WaitOnFlagUntilTimeout
                0x000000000801fa8a       0x68 Drivers/STM32F4xx_HAL_Driver/Src/stm32f4xx_hal_i2c.o
 .text.I2C_WaitOnMasterAddressFlagUntilTimeout
                0x000000000801faf2       0x90 Drivers/STM32F4xx_HAL_Driver/Src/stm32f4xx_hal_i2c.o
 .text.I2C_WaitOnTXEFlagUntilTimeout
                0x000000000801fb82       0x4e Drivers/STM32F4xx_HAL_Driver/Src/stm32f4xx_hal_i2c.o
 .text.I2C_RequestMemoryWrite
                0x000000000801fbd0       0xd8 Drivers/STM32F4xx_HAL_Driver/Src/stm32f4xx_hal_i2c.o
 .text.I2C_RequestMemoryRead
                0x000000000801fca8      0x148 Drivers/STM32F4xx_HAL_Driver/Src/stm32f4xx_hal_i2c.o
 .text.I2C_WaitOnBTFFlagUntilTimeout
                0x000000000801fdf0       0x4e Drivers/STM32F4xx_HAL_Driver/Src/stm32f4xx_hal_i2c.o
 .text.I2C_WaitOnRXNEFlagUntilTimeout
                0x000000000801fe3e       0x5c Drivers/STM32F4xx_HAL_Driver/Src/stm32f4xx_hal_i2c.o
 *fill*         0x000000000801fe9a        0x2 
 .text.HAL_I2C_Init
                0x000000000801fe9c      0x1f8 Drivers/STM32F4xx_HAL_Driver/Src/stm32f4xx_hal_i2c.o
                0x000000000801fe9c                HAL_I2C_Init
 .text.HAL_I2C_DeInit
                0x0000000008020094       0x60 Drivers/STM32F4xx_HAL_Driver/Src/stm32f4xx_hal_i2c.o
                0x0000000008020094                HAL_I2C_DeInit
 .text.HAL_I2C_Mem_Write
                0x00000000080200f4      0x194 Drivers/STM32F4xx_HAL_Driver/Src/stm32f4xx_hal_i2c.o
                0x00000000080200f4                HAL_I2C_Mem_Write
 .text.HAL_I2C_Mem_Read
                0x0000000008020288      0x300 Drivers/STM32F4xx_HAL_Driver/Src/stm32f4xx_hal_i2c.o
                0x0000000008020288                HAL_I2C_Mem_Read
 .text.HAL_I2C_IsDeviceReady
                0x0000000008020588      0x18c Drivers/STM32F4xx_HAL_Driver/Src/stm32f4xx_hal_i2c.o
                0x0000000008020588                HAL_I2C_IsDeviceReady
 .text.HAL_I2C_GetState
                0x0000000008020714        0x6 Drivers/STM32F4xx_HAL_Driver/Src/stm32f4xx_hal_i2c.o
                0x0000000008020714                HAL_I2C_GetState
 *fill*         0x000000000802071a        0x2 
 .text.HAL_PWR_EnableWakeUpPin
                0x000000000802071c       0x28 Drivers/STM32F4xx_HAL_Driver/Src/stm32f4xx_hal_pwr.o
                0x000000000802071c                HAL_PWR_EnableWakeUpPin
 .text.HAL_PWR_DisableWakeUpPin
                0x0000000008020744       0x28 Drivers/STM32F4xx_HAL_Driver/Src/stm32f4xx_hal_pwr.o
                0x0000000008020744                HAL_PWR_DisableWakeUpPin
 .text.HAL_PWR_EnterSLEEPMode
                0x000000000802076c       0x4c Drivers/STM32F4xx_HAL_Driver/Src/stm32f4xx_hal_pwr.o
                0x000000000802076c                HAL_PWR_EnterSLEEPMode
 .text.HAL_PWR_EnterSTOPMode
                0x00000000080207b8       0x68 Drivers/STM32F4xx_HAL_Driver/Src/stm32f4xx_hal_pwr.o
                0x00000000080207b8                HAL_PWR_EnterSTOPMode
 .text.HAL_PWR_EnterSTANDBYMode
                0x0000000008020820       0x20 Drivers/STM32F4xx_HAL_Driver/Src/stm32f4xx_hal_pwr.o
                0x0000000008020820                HAL_PWR_EnterSTANDBYMode
 .text.HAL_PWREx_EnableBkUpReg
                0x0000000008020840       0x34 Drivers/STM32F4xx_HAL_Driver/Src/stm32f4xx_hal_pwr_ex.o
                0x0000000008020840                HAL_PWREx_EnableBkUpReg
 .text.HAL_PWREx_EnableFlashPowerDown
                0x0000000008020874        0xc Drivers/STM32F4xx_HAL_Driver/Src/stm32f4xx_hal_pwr_ex.o
                0x0000000008020874                HAL_PWREx_EnableFlashPowerDown
 .text.HAL_RCC_OscConfig
                0x0000000008020880      0x4a0 Drivers/STM32F4xx_HAL_Driver/Src/stm32f4xx_hal_rcc.o
                0x0000000008020880                HAL_RCC_OscConfig
 .text.HAL_RCC_GetSysClockFreq
                0x0000000008020d20       0xd8 Drivers/STM32F4xx_HAL_Driver/Src/stm32f4xx_hal_rcc.o
                0x0000000008020d20                HAL_RCC_GetSysClockFreq
 .text.HAL_RCC_ClockConfig
                0x0000000008020df8      0x214 Drivers/STM32F4xx_HAL_Driver/Src/stm32f4xx_hal_rcc.o
                0x0000000008020df8                HAL_RCC_ClockConfig
 .text.HAL_RCC_GetHCLKFreq
                0x000000000802100c        0xc Drivers/STM32F4xx_HAL_Driver/Src/stm32f4xx_hal_rcc.o
                0x000000000802100c                HAL_RCC_GetHCLKFreq
 .text.HAL_RCC_GetPCLK1Freq
                0x0000000008021018       0x20 Drivers/STM32F4xx_HAL_Driver/Src/stm32f4xx_hal_rcc.o
                0x0000000008021018                HAL_RCC_GetPCLK1Freq
 .text.HAL_RCC_GetPCLK2Freq
                0x0000000008021038       0x20 Drivers/STM32F4xx_HAL_Driver/Src/stm32f4xx_hal_rcc.o
                0x0000000008021038                HAL_RCC_GetPCLK2Freq
 .text.HAL_RCCEx_PeriphCLKConfig
                0x0000000008021058      0x2cc Drivers/STM32F4xx_HAL_Driver/Src/stm32f4xx_hal_rcc_ex.o
                0x0000000008021058                HAL_RCCEx_PeriphCLKConfig
 .text.HAL_RTC_WaitForSynchro
                0x0000000008021324       0x32 Drivers/STM32F4xx_HAL_Driver/Src/stm32f4xx_hal_rtc.o
                0x0000000008021324                HAL_RTC_WaitForSynchro
 .text.RTC_EnterInitMode
                0x0000000008021356       0x3c Drivers/STM32F4xx_HAL_Driver/Src/stm32f4xx_hal_rtc.o
                0x0000000008021356                RTC_EnterInitMode
 *fill*         0x0000000008021392        0x2 
 .text.HAL_RTC_Init
                0x0000000008021394      0x14c Drivers/STM32F4xx_HAL_Driver/Src/stm32f4xx_hal_rtc.o
                0x0000000008021394                HAL_RTC_Init
 .text.RTC_ByteToBcd2
                0x00000000080214e0       0x16 Drivers/STM32F4xx_HAL_Driver/Src/stm32f4xx_hal_rtc.o
                0x00000000080214e0                RTC_ByteToBcd2
 .text.RTC_Bcd2ToByte
                0x00000000080214f6       0x12 Drivers/STM32F4xx_HAL_Driver/Src/stm32f4xx_hal_rtc.o
                0x00000000080214f6                RTC_Bcd2ToByte
 .text.HAL_RTC_SetTime
                0x0000000008021508      0x218 Drivers/STM32F4xx_HAL_Driver/Src/stm32f4xx_hal_rtc.o
                0x0000000008021508                HAL_RTC_SetTime
 .text.HAL_RTC_GetTime
                0x0000000008021720       0x70 Drivers/STM32F4xx_HAL_Driver/Src/stm32f4xx_hal_rtc.o
                0x0000000008021720                HAL_RTC_GetTime
 .text.HAL_RTC_SetDate
                0x0000000008021790      0x174 Drivers/STM32F4xx_HAL_Driver/Src/stm32f4xx_hal_rtc.o
                0x0000000008021790                HAL_RTC_SetDate
 .text.HAL_RTC_GetDate
                0x0000000008021904       0x5c Drivers/STM32F4xx_HAL_Driver/Src/stm32f4xx_hal_rtc.o
                0x0000000008021904                HAL_RTC_GetDate
 .text.HAL_RTCEx_SetWakeUpTimer_IT
                0x0000000008021960      0x13c Drivers/STM32F4xx_HAL_Driver/Src/stm32f4xx_hal_rtc_ex.o
                0x0000000008021960                HAL_RTCEx_SetWakeUpTimer_IT
 .text.HAL_RTCEx_DeactivateWakeUpTimer
                0x0000000008021a9c       0x70 Drivers/STM32F4xx_HAL_Driver/Src/stm32f4xx_hal_rtc_ex.o
                0x0000000008021a9c                HAL_RTCEx_DeactivateWakeUpTimer
 .text.HAL_RTCEx_WakeUpTimerIRQHandler
                0x0000000008021b0c       0x3c Drivers/STM32F4xx_HAL_Driver/Src/stm32f4xx_hal_rtc_ex.o
                0x0000000008021b0c                HAL_RTCEx_WakeUpTimerIRQHandler
 .text.HAL_RTCEx_BKUPWrite
                0x0000000008021b48       0x28 Drivers/STM32F4xx_HAL_Driver/Src/stm32f4xx_hal_rtc_ex.o
                0x0000000008021b48                HAL_RTCEx_BKUPWrite
 .text.HAL_RTCEx_BKUPRead
                0x0000000008021b70       0x24 Drivers/STM32F4xx_HAL_Driver/Src/stm32f4xx_hal_rtc_ex.o
                0x0000000008021b70                HAL_RTCEx_BKUPRead
 .text.SPI_WaitFlagStateUntilTimeout
                0x0000000008021b94       0x96 Drivers/STM32F4xx_HAL_Driver/Src/stm32f4xx_hal_spi.o
 .text.SPI_CheckFlag_BSY
                0x0000000008021c2a       0x28 Drivers/STM32F4xx_HAL_Driver/Src/stm32f4xx_hal_spi.o
 *fill*         0x0000000008021c52        0x2 
 .text.HAL_SPI_Init
                0x0000000008021c54      0x1a4 Drivers/STM32F4xx_HAL_Driver/Src/stm32f4xx_hal_spi.o
                0x0000000008021c54                HAL_SPI_Init
 .text.HAL_SPI_DeInit
                0x0000000008021df8       0x68 Drivers/STM32F4xx_HAL_Driver/Src/stm32f4xx_hal_spi.o
                0x0000000008021df8                HAL_SPI_DeInit
 .text.HAL_SPI_Transmit
                0x0000000008021e60      0x1c0 Drivers/STM32F4xx_HAL_Driver/Src/stm32f4xx_hal_spi.o
                0x0000000008021e60                HAL_SPI_Transmit
 .text.HAL_SPI_TransmitReceive
                0x0000000008022020      0x24c Drivers/STM32F4xx_HAL_Driver/Src/stm32f4xx_hal_spi.o
                0x0000000008022020                HAL_SPI_TransmitReceive
 .text.HAL_SPI_Receive
                0x000000000802226c      0x168 Drivers/STM32F4xx_HAL_Driver/Src/stm32f4xx_hal_spi.o
                0x000000000802226c                HAL_SPI_Receive
 .text.UART_EndRxTransfer
                0x00000000080223d4       0x1c Drivers/STM32F4xx_HAL_Driver/Src/stm32f4xx_hal_uart.o
 .text.UART_Transmit_IT
                0x00000000080223f0       0x68 Drivers/STM32F4xx_HAL_Driver/Src/stm32f4xx_hal_uart.o
 .text.UART_SetConfig
                0x0000000008022458      0x3a0 Drivers/STM32F4xx_HAL_Driver/Src/stm32f4xx_hal_uart.o
 .text.UART_WaitOnFlagUntilTimeout
                0x00000000080227f8       0x62 Drivers/STM32F4xx_HAL_Driver/Src/stm32f4xx_hal_uart.o
 *fill*         0x000000000802285a        0x2 
 .text.HAL_UART_Init
                0x000000000802285c      0x100 Drivers/STM32F4xx_HAL_Driver/Src/stm32f4xx_hal_uart.o
                0x000000000802285c                HAL_UART_Init
 .text.HAL_UART_DeInit
                0x000000000802295c       0x54 Drivers/STM32F4xx_HAL_Driver/Src/stm32f4xx_hal_uart.o
                0x000000000802295c                HAL_UART_DeInit
 .text.HAL_UART_Transmit
                0x00000000080229b0       0xe0 Drivers/STM32F4xx_HAL_Driver/Src/stm32f4xx_hal_uart.o
                0x00000000080229b0                HAL_UART_Transmit
 .text.HAL_UART_Receive
                0x0000000008022a90       0xe4 Drivers/STM32F4xx_HAL_Driver/Src/stm32f4xx_hal_uart.o
                0x0000000008022a90                HAL_UART_Receive
 .text.HAL_UART_Transmit_IT
                0x0000000008022b74       0x48 Drivers/STM32F4xx_HAL_Driver/Src/stm32f4xx_hal_uart.o
                0x0000000008022b74                HAL_UART_Transmit_IT
 .text.HAL_UART_Receive_IT
                0x0000000008022bbc       0x52 Drivers/STM32F4xx_HAL_Driver/Src/stm32f4xx_hal_uart.o
                0x0000000008022bbc                HAL_UART_Receive_IT
 .text.UART_EndTransmit_IT
                0x0000000008022c0e       0x1a Drivers/STM32F4xx_HAL_Driver/Src/stm32f4xx_hal_uart.o
 .text.UART_Receive_IT
                0x0000000008022c28       0x92 Drivers/STM32F4xx_HAL_Driver/Src/stm32f4xx_hal_uart.o
 *fill*         0x0000000008022cba        0x2 
 .text.HAL_UART_IRQHandler
                0x0000000008022cbc      0x120 Drivers/STM32F4xx_HAL_Driver/Src/stm32f4xx_hal_uart.o
                0x0000000008022cbc                HAL_UART_IRQHandler
 .text.UART_DMAAbortOnError
                0x0000000008022ddc       0x10 Drivers/STM32F4xx_HAL_Driver/Src/stm32f4xx_hal_uart.o
 .text.makeFreeRtosPriority
                0x0000000008022dec        0xc Middlewares/Third_Party/FreeRTOS/Source/CMSIS_RTOS/cmsis_os.o
 .text.inHandlerMode
                0x0000000008022df8        0xc Middlewares/Third_Party/FreeRTOS/Source/CMSIS_RTOS/cmsis_os.o
 .text.osKernelStart
                0x0000000008022e04        0xa Middlewares/Third_Party/FreeRTOS/Source/CMSIS_RTOS/cmsis_os.o
                0x0000000008022e04                osKernelStart
 .text.osKernelRunning
                0x0000000008022e0e       0x12 Middlewares/Third_Party/FreeRTOS/Source/CMSIS_RTOS/cmsis_os.o
                0x0000000008022e0e                osKernelRunning
 .text.osKernelSysTick
                0x0000000008022e20       0x14 Middlewares/Third_Party/FreeRTOS/Source/CMSIS_RTOS/cmsis_os.o
                0x0000000008022e20                osKernelSysTick
 .text.osThreadCreate
                0x0000000008022e34       0x34 Middlewares/Third_Party/FreeRTOS/Source/CMSIS_RTOS/cmsis_os.o
                0x0000000008022e34                osThreadCreate
 .text.osDelay  0x0000000008022e68       0x12 Middlewares/Third_Party/FreeRTOS/Source/CMSIS_RTOS/cmsis_os.o
                0x0000000008022e68                osDelay
 *fill*         0x0000000008022e7a        0x2 
 .text.osTimerCreate
                0x0000000008022e7c       0x28 Middlewares/Third_Party/FreeRTOS/Source/CMSIS_RTOS/cmsis_os.o
                0x0000000008022e7c                osTimerCreate
 .text.osTimerStart
                0x0000000008022ea4       0x6c Middlewares/Third_Party/FreeRTOS/Source/CMSIS_RTOS/cmsis_os.o
                0x0000000008022ea4                osTimerStart
 .text.osTimerStop
                0x0000000008022f10       0x64 Middlewares/Third_Party/FreeRTOS/Source/CMSIS_RTOS/cmsis_os.o
                0x0000000008022f10                osTimerStop
 .text.osMutexCreate
                0x0000000008022f74        0xa Middlewares/Third_Party/FreeRTOS/Source/CMSIS_RTOS/cmsis_os.o
                0x0000000008022f74                osMutexCreate
 *fill*         0x0000000008022f7e        0x2 
 .text.osMutexWait
                0x0000000008022f80       0x74 Middlewares/Third_Party/FreeRTOS/Source/CMSIS_RTOS/cmsis_os.o
                0x0000000008022f80                osMutexWait
 .text.osMutexRelease
                0x0000000008022ff4       0x5c Middlewares/Third_Party/FreeRTOS/Source/CMSIS_RTOS/cmsis_os.o
                0x0000000008022ff4                osMutexRelease
 .text.osMutexDelete
                0x0000000008023050       0x18 Middlewares/Third_Party/FreeRTOS/Source/CMSIS_RTOS/cmsis_os.o
                0x0000000008023050                osMutexDelete
 .text.osMessageCreate
                0x0000000008023068        0xe Middlewares/Third_Party/FreeRTOS/Source/CMSIS_RTOS/cmsis_os.o
                0x0000000008023068                osMessageCreate
 *fill*         0x0000000008023076        0x2 
 .text.osMessagePut
                0x0000000008023078       0x68 Middlewares/Third_Party/FreeRTOS/Source/CMSIS_RTOS/cmsis_os.o
                0x0000000008023078                osMessagePut
 .text.osMessageGet
                0x00000000080230e0       0xa0 Middlewares/Third_Party/FreeRTOS/Source/CMSIS_RTOS/cmsis_os.o
                0x00000000080230e0                osMessageGet
 .text.osSystickHandler
                0x0000000008023180       0x10 Middlewares/Third_Party/FreeRTOS/Source/CMSIS_RTOS/cmsis_os.o
                0x0000000008023180                osSystickHandler
 .text.osThreadSuspendAll
                0x0000000008023190        0xa Middlewares/Third_Party/FreeRTOS/Source/CMSIS_RTOS/cmsis_os.o
                0x0000000008023190                osThreadSuspendAll
 .text.osThreadResumeAll
                0x000000000802319a       0x12 Middlewares/Third_Party/FreeRTOS/Source/CMSIS_RTOS/cmsis_os.o
                0x000000000802319a                osThreadResumeAll
 .text.vListInitialise
                0x00000000080231ac       0x16 Middlewares/Third_Party/FreeRTOS/Source/list.o
                0x00000000080231ac                vListInitialise
 .text.vListInitialiseItem
                0x00000000080231c2        0x6 Middlewares/Third_Party/FreeRTOS/Source/list.o
                0x00000000080231c2                vListInitialiseItem
 .text.vListInsertEnd
                0x00000000080231c8       0x18 Middlewares/Third_Party/FreeRTOS/Source/list.o
                0x00000000080231c8                vListInsertEnd
 .text.vListInsert
                0x00000000080231e0       0x34 Middlewares/Third_Party/FreeRTOS/Source/list.o
                0x00000000080231e0                vListInsert
 .text.uxListRemove
                0x0000000008023214       0x26 Middlewares/Third_Party/FreeRTOS/Source/list.o
                0x0000000008023214                uxListRemove
 .text.prvIsQueueFull
                0x000000000802323a       0x1e Middlewares/Third_Party/FreeRTOS/Source/queue.o
 .text.prvIsQueueEmpty
                0x0000000008023258       0x1a Middlewares/Third_Party/FreeRTOS/Source/queue.o
 .text.prvCopyDataToQueue
                0x0000000008023272       0x76 Middlewares/Third_Party/FreeRTOS/Source/queue.o
 .text.prvCopyDataFromQueue
                0x00000000080232e8       0x24 Middlewares/Third_Party/FreeRTOS/Source/queue.o
 .text.prvUnlockQueue
                0x000000000802330c       0x6e Middlewares/Third_Party/FreeRTOS/Source/queue.o
 *fill*         0x000000000802337a        0x2 
 .text.xQueueGenericReset
                0x000000000802337c       0x90 Middlewares/Third_Party/FreeRTOS/Source/queue.o
                0x000000000802337c                xQueueGenericReset
 .text.prvInitialiseNewQueue
                0x000000000802340c       0x1c Middlewares/Third_Party/FreeRTOS/Source/queue.o
 .text.xQueueGenericCreate
                0x0000000008023428       0x58 Middlewares/Third_Party/FreeRTOS/Source/queue.o
                0x0000000008023428                xQueueGenericCreate
 .text.xQueueGenericSend
                0x0000000008023480      0x1ac Middlewares/Third_Party/FreeRTOS/Source/queue.o
                0x0000000008023480                xQueueGenericSend
 .text.prvInitialiseMutex
                0x000000000802362c       0x18 Middlewares/Third_Party/FreeRTOS/Source/queue.o
 .text.xQueueCreateMutex
                0x0000000008023644       0x16 Middlewares/Third_Party/FreeRTOS/Source/queue.o
                0x0000000008023644                xQueueCreateMutex
 *fill*         0x000000000802365a        0x2 
 .text.xQueueGenericSendFromISR
                0x000000000802365c       0xf0 Middlewares/Third_Party/FreeRTOS/Source/queue.o
                0x000000000802365c                xQueueGenericSendFromISR
 .text.xQueueGiveFromISR
                0x000000000802374c       0xd4 Middlewares/Third_Party/FreeRTOS/Source/queue.o
                0x000000000802374c                xQueueGiveFromISR
 .text.xQueueGenericReceive
                0x0000000008023820      0x1d4 Middlewares/Third_Party/FreeRTOS/Source/queue.o
                0x0000000008023820                xQueueGenericReceive
 .text.xQueueReceiveFromISR
                0x00000000080239f4       0xc4 Middlewares/Third_Party/FreeRTOS/Source/queue.o
                0x00000000080239f4                xQueueReceiveFromISR
 .text.vQueueAddToRegistry
                0x0000000008023ab8       0x28 Middlewares/Third_Party/FreeRTOS/Source/queue.o
                0x0000000008023ab8                vQueueAddToRegistry
 .text.vQueueUnregisterQueue
                0x0000000008023ae0       0x2c Middlewares/Third_Party/FreeRTOS/Source/queue.o
                0x0000000008023ae0                vQueueUnregisterQueue
 .text.vQueueDelete
                0x0000000008023b0c       0x34 Middlewares/Third_Party/FreeRTOS/Source/queue.o
                0x0000000008023b0c                vQueueDelete
 .text.vQueueWaitForMessageRestricted
                0x0000000008023b40       0x52 Middlewares/Third_Party/FreeRTOS/Source/queue.o
                0x0000000008023b40                vQueueWaitForMessageRestricted
 *fill*         0x0000000008023b92        0x2 
 .text.prvResetNextTaskUnblockTime
                0x0000000008023b94       0x2c Middlewares/Third_Party/FreeRTOS/Source/tasks.o
 .text.prvDeleteTCB
                0x0000000008023bc0       0x12 Middlewares/Third_Party/FreeRTOS/Source/tasks.o
 .text.prvInitialiseNewTask
                0x0000000008023bd2       0x90 Middlewares/Third_Party/FreeRTOS/Source/tasks.o
 *fill*         0x0000000008023c62        0x2 
 .text.prvInitialiseTaskLists
                0x0000000008023c64       0x68 Middlewares/Third_Party/FreeRTOS/Source/tasks.o
 .text.prvAddNewTaskToReadyList
                0x0000000008023ccc       0xa8 Middlewares/Third_Party/FreeRTOS/Source/tasks.o
 .text.prvAddCurrentTaskToDelayedList
                0x0000000008023d74       0x98 Middlewares/Third_Party/FreeRTOS/Source/tasks.o
 .text.xTaskCreate
                0x0000000008023e0c       0x62 Middlewares/Third_Party/FreeRTOS/Source/tasks.o
                0x0000000008023e0c                xTaskCreate
 *fill*         0x0000000008023e6e        0x2 
 .text.vTaskStartScheduler
                0x0000000008023e70       0x94 Middlewares/Third_Party/FreeRTOS/Source/tasks.o
                0x0000000008023e70                vTaskStartScheduler
 .text.vTaskEndScheduler
                0x0000000008023f04       0x24 Middlewares/Third_Party/FreeRTOS/Source/tasks.o
                0x0000000008023f04                vTaskEndScheduler
 .text.vTaskSuspendAll
                0x0000000008023f28       0x10 Middlewares/Third_Party/FreeRTOS/Source/tasks.o
                0x0000000008023f28                vTaskSuspendAll
 .text.xTaskGetTickCount
                0x0000000008023f38        0xc Middlewares/Third_Party/FreeRTOS/Source/tasks.o
                0x0000000008023f38                xTaskGetTickCount
 .text.xTaskGetTickCountFromISR
                0x0000000008023f44       0x10 Middlewares/Third_Party/FreeRTOS/Source/tasks.o
                0x0000000008023f44                xTaskGetTickCountFromISR
 .text.xTaskIncrementTick
                0x0000000008023f54      0x138 Middlewares/Third_Party/FreeRTOS/Source/tasks.o
                0x0000000008023f54                xTaskIncrementTick
 .text.xTaskResumeAll
                0x000000000802408c      0x108 Middlewares/Third_Party/FreeRTOS/Source/tasks.o
                0x000000000802408c                xTaskResumeAll
 .text.vTaskDelay
                0x0000000008024194       0x58 Middlewares/Third_Party/FreeRTOS/Source/tasks.o
                0x0000000008024194                vTaskDelay
 .text.prvCheckTasksWaitingTermination
                0x00000000080241ec       0x5c Middlewares/Third_Party/FreeRTOS/Source/tasks.o
 .text.prvIdleTask
                0x0000000008024248       0x30 Middlewares/Third_Party/FreeRTOS/Source/tasks.o
 .text.vTaskSwitchContext
                0x0000000008024278       0xd8 Middlewares/Third_Party/FreeRTOS/Source/tasks.o
                0x0000000008024278                vTaskSwitchContext
 .text.vTaskPlaceOnEventList
                0x0000000008024350       0x40 Middlewares/Third_Party/FreeRTOS/Source/tasks.o
                0x0000000008024350                vTaskPlaceOnEventList
 .text.vTaskPlaceOnEventListRestricted
                0x0000000008024390       0x48 Middlewares/Third_Party/FreeRTOS/Source/tasks.o
                0x0000000008024390                vTaskPlaceOnEventListRestricted
 .text.xTaskRemoveFromEventList
                0x00000000080243d8       0x98 Middlewares/Third_Party/FreeRTOS/Source/tasks.o
                0x00000000080243d8                xTaskRemoveFromEventList
 .text.vTaskSetTimeOutState
                0x0000000008024470       0x3c Middlewares/Third_Party/FreeRTOS/Source/tasks.o
                0x0000000008024470                vTaskSetTimeOutState
 .text.xTaskCheckForTimeOut
                0x00000000080244ac       0x98 Middlewares/Third_Party/FreeRTOS/Source/tasks.o
                0x00000000080244ac                xTaskCheckForTimeOut
 .text.vTaskMissedYield
                0x0000000008024544        0xc Middlewares/Third_Party/FreeRTOS/Source/tasks.o
                0x0000000008024544                vTaskMissedYield
 .text.xTaskGetSchedulerState
                0x0000000008024550       0x20 Middlewares/Third_Party/FreeRTOS/Source/tasks.o
                0x0000000008024550                xTaskGetSchedulerState
 .text.vTaskPriorityInherit
                0x0000000008024570       0xa0 Middlewares/Third_Party/FreeRTOS/Source/tasks.o
                0x0000000008024570                vTaskPriorityInherit
 .text.xTaskPriorityDisinherit
                0x0000000008024610       0xcc Middlewares/Third_Party/FreeRTOS/Source/tasks.o
                0x0000000008024610                xTaskPriorityDisinherit
 .text.pvTaskIncrementMutexHeldCount
                0x00000000080246dc       0x1c Middlewares/Third_Party/FreeRTOS/Source/tasks.o
                0x00000000080246dc                pvTaskIncrementMutexHeldCount
 .text.prvGetNextExpireTime
                0x00000000080246f8       0x20 Middlewares/Third_Party/FreeRTOS/Source/timers.o
 .text.prvInsertTimerInActiveList
                0x0000000008024718       0x48 Middlewares/Third_Party/FreeRTOS/Source/timers.o
 .text.prvCheckForValidListAndQueue
                0x0000000008024760       0x5c Middlewares/Third_Party/FreeRTOS/Source/timers.o
 .text.prvInitialiseNewTimer
                0x00000000080247bc       0x50 Middlewares/Third_Party/FreeRTOS/Source/timers.o
 .text.xTimerCreateTimerTask
                0x000000000802480c       0x5c Middlewares/Third_Party/FreeRTOS/Source/timers.o
                0x000000000802480c                xTimerCreateTimerTask
 .text.xTimerCreate
                0x0000000008024868       0x32 Middlewares/Third_Party/FreeRTOS/Source/timers.o
                0x0000000008024868                xTimerCreate
 *fill*         0x000000000802489a        0x2 
 .text.xTimerGenericCommand
                0x000000000802489c       0x78 Middlewares/Third_Party/FreeRTOS/Source/timers.o
                0x000000000802489c                xTimerGenericCommand
 .text.prvSwitchTimerLists
                0x0000000008024914       0x88 Middlewares/Third_Party/FreeRTOS/Source/timers.o
 .text.prvSampleTimeNow
                0x000000000802499c       0x2c Middlewares/Third_Party/FreeRTOS/Source/timers.o
 .text.prvProcessExpiredTimer
                0x00000000080249c8       0x70 Middlewares/Third_Party/FreeRTOS/Source/timers.o
 .text.prvProcessTimerOrBlockTask
                0x0000000008024a38       0x74 Middlewares/Third_Party/FreeRTOS/Source/timers.o
 .text.prvProcessReceivedCommands
                0x0000000008024aac      0x10c Middlewares/Third_Party/FreeRTOS/Source/timers.o
 .text.prvTimerTask
                0x0000000008024bb8       0x16 Middlewares/Third_Party/FreeRTOS/Source/timers.o
 *fill*         0x0000000008024bce        0x2 
 .text.prvPortStartFirstTask
                0x0000000008024bd0       0x20 Middlewares/Third_Party/FreeRTOS/Source/portable/GCC/ARM_CM4F/port.o
 .text.vPortEnableVFP
                0x0000000008024bf0       0x14 Middlewares/Third_Party/FreeRTOS/Source/portable/GCC/ARM_CM4F/port.o
 .text.prvTaskExitError
                0x0000000008024c04       0x44 Middlewares/Third_Party/FreeRTOS/Source/portable/GCC/ARM_CM4F/port.o
 .text.pxPortInitialiseStack
                0x0000000008024c48       0x2c Middlewares/Third_Party/FreeRTOS/Source/portable/GCC/ARM_CM4F/port.o
                0x0000000008024c48                pxPortInitialiseStack
 *fill*         0x0000000008024c74        0xc 
 .text.SVC_Handler
                0x0000000008024c80       0x24 Middlewares/Third_Party/FreeRTOS/Source/portable/GCC/ARM_CM4F/port.o
                0x0000000008024c80                SVC_Handler
 .text.vPortEndScheduler
                0x0000000008024ca4        0x2 Middlewares/Third_Party/FreeRTOS/Source/portable/GCC/ARM_CM4F/port.o
                0x0000000008024ca4                vPortEndScheduler
 *fill*         0x0000000008024ca6        0x2 
 .text.vPortEnterCritical
                0x0000000008024ca8       0x54 Middlewares/Third_Party/FreeRTOS/Source/portable/GCC/ARM_CM4F/port.o
                0x0000000008024ca8                vPortEnterCritical
 .text.vPortExitCritical
                0x0000000008024cfc       0x3c Middlewares/Third_Party/FreeRTOS/Source/portable/GCC/ARM_CM4F/port.o
                0x0000000008024cfc                vPortExitCritical
 *fill*         0x0000000008024d38        0x8 
 .text.PendSV_Handler
                0x0000000008024d40       0x64 Middlewares/Third_Party/FreeRTOS/Source/portable/GCC/ARM_CM4F/port.o
                0x0000000008024d40                PendSV_Handler
 .text.xPortSysTickHandler
                0x0000000008024da4       0x2c Middlewares/Third_Party/FreeRTOS/Source/portable/GCC/ARM_CM4F/port.o
                0x0000000008024da4                xPortSysTickHandler
 .text.vPortSetupTimerInterrupt
                0x0000000008024dd0       0x2c Middlewares/Third_Party/FreeRTOS/Source/portable/GCC/ARM_CM4F/port.o
                0x0000000008024dd0                vPortSetupTimerInterrupt
 .text.xPortStartScheduler
                0x0000000008024dfc      0x104 Middlewares/Third_Party/FreeRTOS/Source/portable/GCC/ARM_CM4F/port.o
                0x0000000008024dfc                xPortStartScheduler
 .text.vPortValidateInterruptPriority
                0x0000000008024f00       0x78 Middlewares/Third_Party/FreeRTOS/Source/portable/GCC/ARM_CM4F/port.o
                0x0000000008024f00                vPortValidateInterruptPriority
 .text.prvHeapInit
                0x0000000008024f78       0x64 Middlewares/Third_Party/FreeRTOS/Source/portable/MemMang/heap_4.o
 .text.prvInsertBlockIntoFreeList
                0x0000000008024fdc       0x58 Middlewares/Third_Party/FreeRTOS/Source/portable/MemMang/heap_4.o
 .text.pvPortMalloc
                0x0000000008025034      0x13c Middlewares/Third_Party/FreeRTOS/Source/portable/MemMang/heap_4.o
                0x0000000008025034                pvPortMalloc
 .text.vPortFree
                0x0000000008025170       0x88 Middlewares/Third_Party/FreeRTOS/Source/portable/MemMang/heap_4.o
                0x0000000008025170                vPortFree
 .text.Reset_Handler
                0x00000000080251f8       0x50 startup/startup_stm32f411xe.o
                0x00000000080251f8                Reset_Handler
 .text.Default_Handler
                0x0000000008025248        0x2 startup/startup_stm32f411xe.o
                0x0000000008025248                RTC_Alarm_IRQHandler
                0x0000000008025248                EXTI2_IRQHandler
                0x0000000008025248                SPI4_IRQHandler
                0x0000000008025248                TIM1_CC_IRQHandler
                0x0000000008025248                DMA2_Stream5_IRQHandler
                0x0000000008025248                DMA1_Stream5_IRQHandler
                0x0000000008025248                PVD_IRQHandler
                0x0000000008025248                SDIO_IRQHandler
                0x0000000008025248                TAMP_STAMP_IRQHandler
                0x0000000008025248                EXTI3_IRQHandler
                0x0000000008025248                TIM1_UP_TIM10_IRQHandler
                0x0000000008025248                I2C3_ER_IRQHandler
                0x0000000008025248                EXTI0_IRQHandler
                0x0000000008025248                I2C2_EV_IRQHandler
                0x0000000008025248                DMA1_Stream2_IRQHandler
                0x0000000008025248                FPU_IRQHandler
                0x0000000008025248                DMA2_Stream2_IRQHandler
                0x0000000008025248                SPI1_IRQHandler
                0x0000000008025248                TIM1_BRK_TIM9_IRQHandler
                0x0000000008025248                DMA2_Stream3_IRQHandler
                0x0000000008025248                TIM4_IRQHandler
                0x0000000008025248                I2C1_EV_IRQHandler
                0x0000000008025248                DMA1_Stream6_IRQHandler
                0x0000000008025248                DMA1_Stream1_IRQHandler
                0x0000000008025248                TIM3_IRQHandler
                0x0000000008025248                RCC_IRQHandler
                0x0000000008025248                Default_Handler
                0x0000000008025248                EXTI15_10_IRQHandler
                0x0000000008025248                ADC_IRQHandler
                0x0000000008025248                DMA1_Stream7_IRQHandler
                0x0000000008025248                SPI5_IRQHandler
                0x0000000008025248                TIM5_IRQHandler
                0x0000000008025248                DMA2_Stream7_IRQHandler
                0x0000000008025248                I2C3_EV_IRQHandler
                0x0000000008025248                SPI2_IRQHandler
                0x0000000008025248                DMA1_Stream0_IRQHandler
                0x0000000008025248                WWDG_IRQHandler
                0x0000000008025248                TIM2_IRQHandler
                0x0000000008025248                OTG_FS_WKUP_IRQHandler
                0x0000000008025248                TIM1_TRG_COM_TIM11_IRQHandler
                0x0000000008025248                I2C2_ER_IRQHandler
                0x0000000008025248                DMA2_Stream1_IRQHandler
                0x0000000008025248                FLASH_IRQHandler
                0x0000000008025248                DMA2_Stream4_IRQHandler
                0x0000000008025248                USART1_IRQHandler
                0x0000000008025248                OTG_FS_IRQHandler
                0x0000000008025248                SPI3_IRQHandler
                0x0000000008025248                DMA1_Stream4_IRQHandler
                0x0000000008025248                I2C1_ER_IRQHandler
                0x0000000008025248                DMA2_Stream6_IRQHandler
                0x0000000008025248                DMA1_Stream3_IRQHandler
 .text.atoi     0x000000000802524a        0x8 d:/st/stm32cubeide_1.0.2/stm32cubeide/plugins/com.st.stm32cube.ide.mcu.externaltools.gnu-tools-for-stm32.7-2018-q2-update.win32_1.0.0.201904181610/tools/bin/../lib/gcc/arm-none-eabi/7.3.1/../../../../arm-none-eabi/lib/thumb/v7e-m/fpv4-sp/hard\libc_nano.a(lib_a-atoi.o)
                0x000000000802524a                atoi
 *fill*         0x0000000008025252        0x2 
 .text.__libc_init_array
                0x0000000008025254       0x48 d:/st/stm32cubeide_1.0.2/stm32cubeide/plugins/com.st.stm32cube.ide.mcu.externaltools.gnu-tools-for-stm32.7-2018-q2-update.win32_1.0.0.201904181610/tools/bin/../lib/gcc/arm-none-eabi/7.3.1/../../../../arm-none-eabi/lib/thumb/v7e-m/fpv4-sp/hard\libc_nano.a(lib_a-init.o)
                0x0000000008025254                __libc_init_array
 .text.memcmp   0x000000000802529c       0x1e d:/st/stm32cubeide_1.0.2/stm32cubeide/plugins/com.st.stm32cube.ide.mcu.externaltools.gnu-tools-for-stm32.7-2018-q2-update.win32_1.0.0.201904181610/tools/bin/../lib/gcc/arm-none-eabi/7.3.1/../../../../arm-none-eabi/lib/thumb/v7e-m/fpv4-sp/hard\libc_nano.a(lib_a-memcmp.o)
                0x000000000802529c                memcmp
 .text.memcpy   0x00000000080252ba       0x16 d:/st/stm32cubeide_1.0.2/stm32cubeide/plugins/com.st.stm32cube.ide.mcu.externaltools.gnu-tools-for-stm32.7-2018-q2-update.win32_1.0.0.201904181610/tools/bin/../lib/gcc/arm-none-eabi/7.3.1/../../../../arm-none-eabi/lib/thumb/v7e-m/fpv4-sp/hard\libc_nano.a(lib_a-memcpy-stub.o)
                0x00000000080252ba                memcpy
 .text.memset   0x00000000080252d0       0x10 d:/st/stm32cubeide_1.0.2/stm32cubeide/plugins/com.st.stm32cube.ide.mcu.externaltools.gnu-tools-for-stm32.7-2018-q2-update.win32_1.0.0.201904181610/tools/bin/../lib/gcc/arm-none-eabi/7.3.1/../../../../arm-none-eabi/lib/thumb/v7e-m/fpv4-sp/hard\libc_nano.a(lib_a-memset.o)
                0x00000000080252d0                memset
 .text.strcat   0x00000000080252e0       0x1e d:/st/stm32cubeide_1.0.2/stm32cubeide/plugins/com.st.stm32cube.ide.mcu.externaltools.gnu-tools-for-stm32.7-2018-q2-update.win32_1.0.0.201904181610/tools/bin/../lib/gcc/arm-none-eabi/7.3.1/../../../../arm-none-eabi/lib/thumb/v7e-m/fpv4-sp/hard\libc_nano.a(lib_a-strcat.o)
                0x00000000080252e0                strcat
 .text.strcpy   0x00000000080252fe       0x10 d:/st/stm32cubeide_1.0.2/stm32cubeide/plugins/com.st.stm32cube.ide.mcu.externaltools.gnu-tools-for-stm32.7-2018-q2-update.win32_1.0.0.201904181610/tools/bin/../lib/gcc/arm-none-eabi/7.3.1/../../../../arm-none-eabi/lib/thumb/v7e-m/fpv4-sp/hard\libc_nano.a(lib_a-strcpy.o)
                0x00000000080252fe                strcpy
 .text.strncpy  0x000000000802530e       0x2a d:/st/stm32cubeide_1.0.2/stm32cubeide/plugins/com.st.stm32cube.ide.mcu.externaltools.gnu-tools-for-stm32.7-2018-q2-update.win32_1.0.0.201904181610/tools/bin/../lib/gcc/arm-none-eabi/7.3.1/../../../../arm-none-eabi/lib/thumb/v7e-m/fpv4-sp/hard\libc_nano.a(lib_a-strncpy.o)
                0x000000000802530e                strncpy
 .text._strtol_l.isra.0
                0x0000000008025338       0xf6 d:/st/stm32cubeide_1.0.2/stm32cubeide/plugins/com.st.stm32cube.ide.mcu.externaltools.gnu-tools-for-stm32.7-2018-q2-update.win32_1.0.0.201904181610/tools/bin/../lib/gcc/arm-none-eabi/7.3.1/../../../../arm-none-eabi/lib/thumb/v7e-m/fpv4-sp/hard\libc_nano.a(lib_a-strtol.o)
 *fill*         0x000000000802542e        0x2 
 .text.strtol   0x0000000008025430       0x2c d:/st/stm32cubeide_1.0.2/stm32cubeide/plugins/com.st.stm32cube.ide.mcu.externaltools.gnu-tools-for-stm32.7-2018-q2-update.win32_1.0.0.201904181610/tools/bin/../lib/gcc/arm-none-eabi/7.3.1/../../../../arm-none-eabi/lib/thumb/v7e-m/fpv4-sp/hard\libc_nano.a(lib_a-strtol.o)
                0x0000000008025430                strtol
 .text.__locale_ctype_ptr_l
                0x000000000802545c        0x6 d:/st/stm32cubeide_1.0.2/stm32cubeide/plugins/com.st.stm32cube.ide.mcu.externaltools.gnu-tools-for-stm32.7-2018-q2-update.win32_1.0.0.201904181610/tools/bin/../lib/gcc/arm-none-eabi/7.3.1/../../../../arm-none-eabi/lib/thumb/v7e-m/fpv4-sp/hard\libc_nano.a(lib_a-locale.o)
                0x000000000802545c                __locale_ctype_ptr_l
 .text.__ascii_mbtowc
                0x0000000008025462       0x24 d:/st/stm32cubeide_1.0.2/stm32cubeide/plugins/com.st.stm32cube.ide.mcu.externaltools.gnu-tools-for-stm32.7-2018-q2-update.win32_1.0.0.201904181610/tools/bin/../lib/gcc/arm-none-eabi/7.3.1/../../../../arm-none-eabi/lib/thumb/v7e-m/fpv4-sp/hard\libc_nano.a(lib_a-mbtowc_r.o)
                0x0000000008025462                __ascii_mbtowc
 .text.__ascii_wctomb
                0x0000000008025486       0x1a d:/st/stm32cubeide_1.0.2/stm32cubeide/plugins/com.st.stm32cube.ide.mcu.externaltools.gnu-tools-for-stm32.7-2018-q2-update.win32_1.0.0.201904181610/tools/bin/../lib/gcc/arm-none-eabi/7.3.1/../../../../arm-none-eabi/lib/thumb/v7e-m/fpv4-sp/hard\libc_nano.a(lib_a-wctomb_r.o)
                0x0000000008025486                __ascii_wctomb
 *(.glue_7)
 .glue_7        0x00000000080254a0        0x0 linker stubs
 *(.glue_7t)
 .glue_7t       0x00000000080254a0        0x0 linker stubs
 *(.eh_frame)
 .eh_frame      0x00000000080254a0        0x0 d:/st/stm32cubeide_1.0.2/stm32cubeide/plugins/com.st.stm32cube.ide.mcu.externaltools.gnu-tools-for-stm32.7-2018-q2-update.win32_1.0.0.201904181610/tools/bin/../lib/gcc/arm-none-eabi/7.3.1/thumb/v7e-m/fpv4-sp/hard/crtbegin.o
 *(.init)
 .init          0x00000000080254a0        0x4 d:/st/stm32cubeide_1.0.2/stm32cubeide/plugins/com.st.stm32cube.ide.mcu.externaltools.gnu-tools-for-stm32.7-2018-q2-update.win32_1.0.0.201904181610/tools/bin/../lib/gcc/arm-none-eabi/7.3.1/thumb/v7e-m/fpv4-sp/hard/crti.o
                0x00000000080254a0                _init
 .init          0x00000000080254a4        0x8 d:/st/stm32cubeide_1.0.2/stm32cubeide/plugins/com.st.stm32cube.ide.mcu.externaltools.gnu-tools-for-stm32.7-2018-q2-update.win32_1.0.0.201904181610/tools/bin/../lib/gcc/arm-none-eabi/7.3.1/thumb/v7e-m/fpv4-sp/hard/crtn.o
 *(.fini)
 .fini          0x00000000080254ac        0x4 d:/st/stm32cubeide_1.0.2/stm32cubeide/plugins/com.st.stm32cube.ide.mcu.externaltools.gnu-tools-for-stm32.7-2018-q2-update.win32_1.0.0.201904181610/tools/bin/../lib/gcc/arm-none-eabi/7.3.1/thumb/v7e-m/fpv4-sp/hard/crti.o
                0x00000000080254ac                _fini
 .fini          0x00000000080254b0        0x8 d:/st/stm32cubeide_1.0.2/stm32cubeide/plugins/com.st.stm32cube.ide.mcu.externaltools.gnu-tools-for-stm32.7-2018-q2-update.win32_1.0.0.201904181610/tools/bin/../lib/gcc/arm-none-eabi/7.3.1/thumb/v7e-m/fpv4-sp/hard/crtn.o
                0x00000000080254b8                . = ALIGN (0x4)
                0x00000000080254b8                _etext = .

.vfp11_veneer   0x00000000080254b8        0x0
 .vfp11_veneer  0x00000000080254b8        0x0 linker stubs

.v4_bx          0x00000000080254b8        0x0
 .v4_bx         0x00000000080254b8        0x0 linker stubs

.iplt           0x00000000080254b8        0x0
 .iplt          0x00000000080254b8        0x0 d:/st/stm32cubeide_1.0.2/stm32cubeide/plugins/com.st.stm32cube.ide.mcu.externaltools.gnu-tools-for-stm32.7-2018-q2-update.win32_1.0.0.201904181610/tools/bin/../lib/gcc/arm-none-eabi/7.3.1/thumb/v7e-m/fpv4-sp/hard/crtbegin.o

.rodata         0x00000000080254b8     0xf668
                0x00000000080254b8                . = ALIGN (0x4)
 *(.rodata)
 .rodata        0x00000000080254b8        0x8 Core/Src/ctp.o
 .rodata        0x00000000080254c0       0x28 Core/Src/main.o
 .rodata        0x00000000080254e8       0x14 Core/Src/user.o
 *(.rodata*)
 .rodata.inpInit.str1.4
                0x00000000080254fc       0x1a Core/Src/DecodInput.o
 *fill*         0x0000000008025516        0x2 
 .rodata.inpMonitor.str1.4
                0x0000000008025518       0xa3 Core/Src/DecodInput.o
 *fill*         0x00000000080255bb        0x1 
 .rodata.Ft_Gpu_Hal_StartTransfer.str1.4
                0x00000000080255bc       0x18 Core/Src/FT_Gpu_Hal.o
 .rodata.Ft_Gpu_Hal_Transfer8.str1.4
                0x00000000080255d4       0x18 Core/Src/FT_Gpu_Hal.o
 .rodata.Ft_Gpu_HostCommand.str1.4
                0x00000000080255ec       0x24 Core/Src/FT_Gpu_Hal.o
 .rodata.OT_Handler.str1.4
                0x0000000008025610      0x149 Core/Src/OT_Plus.o
 *fill*         0x0000000008025759        0x3 
 .rodata.ReqLimits.str1.4
                0x000000000802575c       0x13 Core/Src/OT_Plus.o
 *fill*         0x000000000802576f        0x1 
 .rodata.reqAccumBmap
                0x0000000008025770        0xa Core/Src/OT_Plus.o
                0x0000000008025770                reqAccumBmap
 *fill*         0x000000000802577a        0x2 
 .rodata.reqConfigIdro
                0x000000000802577c        0xa Core/Src/OT_Plus.o
                0x000000000802577c                reqConfigIdro
 *fill*         0x0000000008025786        0x2 
 .rodata.reqEcoBmap_NFan
                0x0000000008025788        0xa Core/Src/OT_Plus.o
                0x0000000008025788                reqEcoBmap_NFan
 *fill*         0x0000000008025792        0x2 
 .rodata.reqFireFan
                0x0000000008025794        0xa Core/Src/OT_Plus.o
                0x0000000008025794                reqFireFan
 *fill*         0x000000000802579e        0x2 
 .rodata.reqISOCode
                0x00000000080257a0        0xa Core/Src/OT_Plus.o
                0x00000000080257a0                reqISOCode
 *fill*         0x00000000080257aa        0x2 
 .rodata.reqInputStato_Misure_1
                0x00000000080257ac        0xa Core/Src/OT_Plus.o
                0x00000000080257ac                reqInputStato_Misure_1
 *fill*         0x00000000080257b6        0x2 
 .rodata.reqInputStato_Misure_2
                0x00000000080257b8        0xa Core/Src/OT_Plus.o
                0x00000000080257b8                reqInputStato_Misure_2
 *fill*         0x00000000080257c2        0x2 
 .rodata.reqLimitsFireFan
                0x00000000080257c4        0xa Core/Src/OT_Plus.o
                0x00000000080257c4                reqLimitsFireFan
 *fill*         0x00000000080257ce        0x2 
 .rodata.reqLinguaDef
                0x00000000080257d0        0xa Core/Src/OT_Plus.o
                0x00000000080257d0                reqLinguaDef
 *fill*         0x00000000080257da        0x2 
 .rodata.reqLogo
                0x00000000080257dc        0xa Core/Src/OT_Plus.o
                0x00000000080257dc                reqLogo
 *fill*         0x00000000080257e6        0x2 
 .rodata.reqMaxPower
                0x00000000080257e8        0xa Core/Src/OT_Plus.o
                0x00000000080257e8                reqMaxPower
 *fill*         0x00000000080257f2        0x2 
 .rodata.reqPassword
                0x00000000080257f4        0xa Core/Src/OT_Plus.o
                0x00000000080257f4                reqPassword
 *fill*         0x00000000080257fe        0x2 
 .rodata.reqReleTermBmap
                0x0000000008025800        0xa Core/Src/OT_Plus.o
                0x0000000008025800                reqReleTermBmap
 *fill*         0x000000000802580a        0x2 
 .rodata.reqSet_Status
                0x000000000802580c       0x2c Core/Src/OT_Plus.o
 .rodata.reqSet_tab
                0x0000000008025838        0x8 Core/Src/OT_Plus.o
 .rodata.reqSoundAlarmBmap
                0x0000000008025840        0xa Core/Src/OT_Plus.o
                0x0000000008025840                reqSoundAlarmBmap
 *fill*         0x000000000802584a        0x2 
 .rodata.reqTempPx
                0x000000000802584c        0xa Core/Src/OT_Plus.o
                0x000000000802584c                reqTempPx
 *fill*         0x0000000008025856        0x2 
 .rodata.reqTermAmbBmap
                0x0000000008025858        0xa Core/Src/OT_Plus.o
                0x0000000008025858                reqTermAmbBmap
 *fill*         0x0000000008025862        0x2 
 .rodata.reqTipoDesc_1_2
                0x0000000008025864        0xa Core/Src/OT_Plus.o
                0x0000000008025864                reqTipoDesc_1_2
 *fill*         0x000000000802586e        0x2 
 .rodata.reqTipoDesc_3_4
                0x0000000008025870        0xa Core/Src/OT_Plus.o
                0x0000000008025870                reqTipoDesc_3_4
 *fill*         0x000000000802587a        0x2 
 .rodata.reqTipoDesc_5_6
                0x000000000802587c        0xa Core/Src/OT_Plus.o
                0x000000000802587c                reqTipoDesc_5_6
 *fill*         0x0000000008025886        0x2 
 .rodata.reqTipoDesc_7_8
                0x0000000008025888        0xa Core/Src/OT_Plus.o
                0x0000000008025888                reqTipoDesc_7_8
 *fill*         0x0000000008025892        0x2 
 .rodata.reqTipoStufa
                0x0000000008025894        0xa Core/Src/OT_Plus.o
                0x0000000008025894                reqTipoStufa
 *fill*         0x000000000802589e        0x2 
 .rodata.reqVerFW
                0x00000000080258a0        0xa Core/Src/OT_Plus.o
                0x00000000080258a0                reqVerFW
 *fill*         0x00000000080258aa        0x2 
 .rodata.reqWiFiBmap
                0x00000000080258ac        0xa Core/Src/OT_Plus.o
                0x00000000080258ac                reqWiFiBmap
 *fill*         0x00000000080258b6        0x2 
 .rodata.OT_DL_Handler.str1.4
                0x00000000080258b8       0x6c Core/Src/OT_Plus_data_layer.o
 .rodata.OT_PH_Send.str1.4
                0x0000000008025924        0xf Core/Src/OT_Plus_ph_layer.o
 *fill*         0x0000000008025933        0x1 
 .rodata.Coil_tab
                0x0000000008025934       0x10 Core/Src/OT_Plus_tabelle.o
                0x0000000008025934                Coil_tab
 .rodata.HoldReg2_tab
                0x0000000008025944      0x220 Core/Src/OT_Plus_tabelle.o
                0x0000000008025944                HoldReg2_tab
 .rodata.HoldReg3_tab
                0x0000000008025b64      0x410 Core/Src/OT_Plus_tabelle.o
                0x0000000008025b64                HoldReg3_tab
 .rodata.HoldReg_tab
                0x0000000008025f74      0xa48 Core/Src/OT_Plus_tabelle.o
                0x0000000008025f74                HoldReg_tab
 .rodata.InpReg_tab
                0x00000000080269bc      0x3a0 Core/Src/OT_Plus_tabelle.o
                0x00000000080269bc                InpReg_tab
 .rodata.Limits3_tab
                0x0000000008026d5c      0x30c Core/Src/OT_Plus_tabelle.o
                0x0000000008026d5c                Limits3_tab
 .rodata.LimitsReq_tab
                0x0000000008027068      0x114 Core/Src/OT_Plus_tabelle.o
                0x0000000008027068                LimitsReq_tab
 .rodata.Group_tab
                0x000000000802717c       0x30 Core/Src/User_Parametri.o
                0x000000000802717c                Group_tab
 .rodata.Param_tab
                0x00000000080271ac     0x6920 Core/Src/User_Parametri.o
                0x00000000080271ac                Param_tab
 .rodata.ShowTemp_StrInd_tab
                0x000000000802dacc        0x6 Core/Src/User_Parametri.o
                0x000000000802dacc                ShowTemp_StrInd_tab
 *fill*         0x000000000802dad2        0x2 
 .rodata.sOnOff_tab
                0x000000000802dad4        0x4 Core/Src/User_Parametri.o
                0x000000000802dad4                sOnOff_tab
 .rodata.sWeekDay_tab
                0x000000000802dad8        0xe Core/Src/User_Parametri.o
                0x000000000802dad8                sWeekDay_tab
 *fill*         0x000000000802dae6        0x2 
 .rodata.userVisPar.str1.4
                0x000000000802dae8        0xc Core/Src/User_Parametri.o
 .rodata.VisHexMsg.str1.4
                0x000000000802daf4        0xe Core/Src/Utils.o
 *fill*         0x000000000802db02        0x2 
 .rodata.CronoProfile
                0x000000000802db04       0xb4 Core/Src/crono.o
                0x000000000802db04                CronoProfile
 .rodata.vApplicationMallocFailedHook.str1.4
                0x000000000802dbb8        0xf Core/Src/freertos.o
 *fill*         0x000000000802dbc7        0x1 
 .rodata.vApplicationStackOverflowHook.str1.4
                0x000000000802dbc8       0x1e Core/Src/freertos.o
 *fill*         0x000000000802dbe6        0x2 
 .rodata.pChLogoDefault
                0x000000000802dbe8       0x11 Core/Src/languages.o
                0x000000000802dbe8                pChLogoDefault
 *fill*         0x000000000802dbf9        0x3 
 .rodata.pSetMsg
                0x000000000802dbfc        0x8 Core/Src/languages.o
                0x000000000802dbfc                pSetMsg
 .rodata.sBitmapLoadError
                0x000000000802dc04       0x18 Core/Src/languages.o
                0x000000000802dc04                sBitmapLoadError
 .rodata.sBlank
                0x000000000802dc1c       0x16 Core/Src/languages.o
                0x000000000802dc1c                sBlank
 *fill*         0x000000000802dc32        0x2 
 .rodata.sCLOSE
                0x000000000802dc34        0x6 Core/Src/languages.o
                0x000000000802dc34                sCLOSE
 *fill*         0x000000000802dc3a        0x2 
 .rodata.sDescParInit
                0x000000000802dc3c        0x5 Core/Src/languages.o
                0x000000000802dc3c                sDescParInit
 *fill*         0x000000000802dc41        0x3 
 .rodata.sESM   0x000000000802dc44        0x4 Core/Src/languages.o
                0x000000000802dc44                sESM
 .rodata.sOPEN  0x000000000802dc48        0x6 Core/Src/languages.o
                0x000000000802dc48                sOPEN
 *fill*         0x000000000802dc4e        0x2 
 .rodata.sSubMenu
                0x000000000802dc50        0x7 Core/Src/languages.o
                0x000000000802dc50                sSubMenu
 *fill*         0x000000000802dc57        0x1 
 .rodata.Check4StandbyPause.str1.4
                0x000000000802dc58       0x4d Core/Src/main.o
 *fill*         0x000000000802dca5        0x3 
 .rodata.Error_Handler.str1.4
                0x000000000802dca8        0xc Core/Src/main.o
 .rodata.Main_Task.str1.4
                0x000000000802dcb4       0x47 Core/Src/main.o
 *fill*         0x000000000802dcfb        0x1 
 .rodata.SleepOnBatteryCharge.str1.4
                0x000000000802dcfc       0x61 Core/Src/main.o
 *fill*         0x000000000802dd5d        0x3 
 .rodata.SystemOff.str1.4
                0x000000000802dd60       0x68 Core/Src/main.o
 .rodata.SystemRestart.str1.4
                0x000000000802ddc8       0x11 Core/Src/main.o
 *fill*         0x000000000802ddd9        0x3 
 .rodata.assert_failed.str1.4
                0x000000000802dddc       0x2d Core/Src/main.o
 *fill*         0x000000000802de09        0x3 
 .rodata.main.str1.4
                0x000000000802de0c       0x4e Core/Src/main.o
                                         0x5a (size before relaxing)
 *fill*         0x000000000802de5a        0x2 
 .rodata.os_mutex_def_EVEMutex
                0x000000000802de5c        0x4 Core/Src/main.o
                0x000000000802de5c                os_mutex_def_EVEMutex
 .rodata.os_mutex_def_I2CMutex
                0x000000000802de60        0x4 Core/Src/main.o
                0x000000000802de60                os_mutex_def_I2CMutex
 .rodata.os_mutex_def_printfMutex
                0x000000000802de64        0x4 Core/Src/main.o
                0x000000000802de64                os_mutex_def_printfMutex
 .rodata.str1.4
                0x000000000802de68        0xd Core/Src/main.o
 *fill*         0x000000000802de75        0x3 
 .rodata.aucCRCHi
                0x000000000802de78      0x100 Core/Src/mbcrc.o
 .rodata.aucCRCLo
                0x000000000802df78      0x100 Core/Src/mbcrc.o
 .rodata.print.str1.4
                0x000000000802e078        0x7 Core/Src/printf-stdarg.o
 *fill*         0x000000000802e07f        0x1 
 .rodata.LoadFonts.str1.4
                0x000000000802e080        0xf Core/Src/res.o
 *fill*         0x000000000802e08f        0x1 
 .rodata.res_bm_Reset.str1.4
                0x000000000802e090       0x13 Core/Src/res.o
 *fill*         0x000000000802e0a3        0x1 
 .rodata.DayMonth
                0x000000000802e0a4        0xc Core/Src/rtc.o
 .rodata.SecMonth
                0x000000000802e0b0       0x30 Core/Src/rtc.o
 .rodata.ds     0x000000000802e0e0        0x4 Core/Src/rtc.o
 .rodata.ys     0x000000000802e0e4        0x8 Core/Src/rtc.o
 .rodata.AbilPeriodoCoclea2_ENG
                0x000000000802e0ec       0x1e Core/Src/stringhe_ENG.o
 *fill*         0x000000000802e10a        0x2 
 .rodata.AbilPeriodoCoclea_ENG
                0x000000000802e10c       0x1e Core/Src/stringhe_ENG.o
 *fill*         0x000000000802e12a        0x2 
 .rodata.Abilitazione_ENG
                0x000000000802e12c        0x7 Core/Src/stringhe_ENG.o
 *fill*         0x000000000802e133        0x1 
 .rodata.AccA_ENG
                0x000000000802e134        0xb Core/Src/stringhe_ENG.o
 *fill*         0x000000000802e13f        0x1 
 .rodata.AccB_ENG
                0x000000000802e140        0xb Core/Src/stringhe_ENG.o
 *fill*         0x000000000802e14b        0x1 
 .rodata.AccDeltaTempCaldo_ENG
                0x000000000802e14c       0x11 Core/Src/stringhe_ENG.o
 *fill*         0x000000000802e15d        0x3 
 .rodata.AccFotoResistenza_ENG
                0x000000000802e160        0xe Core/Src/stringhe_ENG.o
 *fill*         0x000000000802e16e        0x2 
 .rodata.AccMaxTimeFireOn_ENG
                0x000000000802e170       0x11 Core/Src/stringhe_ENG.o
 *fill*         0x000000000802e181        0x3 
 .rodata.AccMaxTimeSpe_ENG
                0x000000000802e184       0x12 Core/Src/stringhe_ENG.o
 *fill*         0x000000000802e196        0x2 
 .rodata.AccMaxTimeWarmUp_ENG
                0x000000000802e198       0x16 Core/Src/stringhe_ENG.o
 *fill*         0x000000000802e1ae        0x2 
 .rodata.AccTempOffFumi_ENG
                0x000000000802e1b0       0x10 Core/Src/stringhe_ENG.o
 .rodata.AccTempOnFumi_ENG
                0x000000000802e1c0        0xf Core/Src/stringhe_ENG.o
 *fill*         0x000000000802e1cf        0x1 
 .rodata.AccTempSogliaFumi_ENG
                0x000000000802e1d0        0xf Core/Src/stringhe_ENG.o
 *fill*         0x000000000802e1df        0x1 
 .rodata.AccTempoInc_ENG
                0x000000000802e1e0       0x1a Core/Src/stringhe_ENG.o
 *fill*         0x000000000802e1fa        0x2 
 .rodata.AccTempoPreLoad_ENG
                0x000000000802e1fc       0x17 Core/Src/stringhe_ENG.o
 *fill*         0x000000000802e213        0x1 
 .rodata.AccTempoPreacc2_ENG
                0x000000000802e214       0x1a Core/Src/stringhe_ENG.o
 *fill*         0x000000000802e22e        0x2 
 .rodata.AccTempoPreacc_ENG
                0x000000000802e230       0x17 Core/Src/stringhe_ENG.o
 *fill*         0x000000000802e247        0x1 
 .rodata.AccTermocoppia_ENG
                0x000000000802e248        0xd Core/Src/stringhe_ENG.o
 *fill*         0x000000000802e255        0x3 
 .rodata.AlarmRecovery00_ENG
                0x000000000802e258        0x1 Core/Src/stringhe_ENG.o
 *fill*         0x000000000802e259        0x3 
 .rodata.AlarmRecovery01_ENG
                0x000000000802e25c       0x1a Core/Src/stringhe_ENG.o
 *fill*         0x000000000802e276        0x2 
 .rodata.AlarmRecovery02_ENG
                0x000000000802e278       0x11 Core/Src/stringhe_ENG.o
 *fill*         0x000000000802e289        0x3 
 .rodata.AlarmRecovery03_ENG
                0x000000000802e28c       0x17 Core/Src/stringhe_ENG.o
 *fill*         0x000000000802e2a3        0x1 
 .rodata.AlarmRecovery05_ENG
                0x000000000802e2a4       0x1e Core/Src/stringhe_ENG.o
 *fill*         0x000000000802e2c2        0x2 
 .rodata.AlarmRecovery06_ENG
                0x000000000802e2c4       0x2a Core/Src/stringhe_ENG.o
 *fill*         0x000000000802e2ee        0x2 
 .rodata.AlarmRecovery07_ENG
                0x000000000802e2f0       0x18 Core/Src/stringhe_ENG.o
 .rodata.AlarmRecovery08_ENG
                0x000000000802e308       0x10 Core/Src/stringhe_ENG.o
 .rodata.AlarmRecovery15_ENG
                0x000000000802e318       0x13 Core/Src/stringhe_ENG.o
 *fill*         0x000000000802e32b        0x1 
 .rodata.AlarmRecovery16_ENG
                0x000000000802e32c       0x2b Core/Src/stringhe_ENG.o
 *fill*         0x000000000802e357        0x1 
 .rodata.AlarmRecovery17_ENG
                0x000000000802e358       0x24 Core/Src/stringhe_ENG.o
 .rodata.AlarmSource00_ENG
                0x000000000802e37c        0x1 Core/Src/stringhe_ENG.o
 *fill*         0x000000000802e37d        0x3 
 .rodata.AlarmSource01_ENG
                0x000000000802e380       0x10 Core/Src/stringhe_ENG.o
 .rodata.AlarmSource02_ENG
                0x000000000802e390       0x10 Core/Src/stringhe_ENG.o
 .rodata.AlarmSource03_ENG
                0x000000000802e3a0       0x1d Core/Src/stringhe_ENG.o
 *fill*         0x000000000802e3bd        0x3 
 .rodata.AlarmSource04_ENG
                0x000000000802e3c0       0x17 Core/Src/stringhe_ENG.o
 *fill*         0x000000000802e3d7        0x1 
 .rodata.AlarmSource05_ENG
                0x000000000802e3d8       0x1c Core/Src/stringhe_ENG.o
 .rodata.AlarmSource06_ENG
                0x000000000802e3f4       0x19 Core/Src/stringhe_ENG.o
 *fill*         0x000000000802e40d        0x3 
 .rodata.AlarmSource07_ENG
                0x000000000802e410        0xa Core/Src/stringhe_ENG.o
 *fill*         0x000000000802e41a        0x2 
 .rodata.AlarmSource08_ENG
                0x000000000802e41c       0x16 Core/Src/stringhe_ENG.o
 *fill*         0x000000000802e432        0x2 
 .rodata.AlarmSource09_ENG
                0x000000000802e434       0x19 Core/Src/stringhe_ENG.o
 *fill*         0x000000000802e44d        0x3 
 .rodata.AlarmSource10_ENG
                0x000000000802e450       0x15 Core/Src/stringhe_ENG.o
 *fill*         0x000000000802e465        0x3 
 .rodata.AlarmSource11_ENG
                0x000000000802e468       0x14 Core/Src/stringhe_ENG.o
 .rodata.AlarmSource13_ENG
                0x000000000802e47c       0x1d Core/Src/stringhe_ENG.o
 *fill*         0x000000000802e499        0x3 
 .rodata.AlarmSource15_ENG
                0x000000000802e49c       0x13 Core/Src/stringhe_ENG.o
 *fill*         0x000000000802e4af        0x1 
 .rodata.AlarmSource16_ENG
                0x000000000802e4b0       0x1c Core/Src/stringhe_ENG.o
 .rodata.AlarmSource17_ENG
                0x000000000802e4cc       0x16 Core/Src/stringhe_ENG.o
 *fill*         0x000000000802e4e2        0x2 
 .rodata.AlarmSource18_ENG
                0x000000000802e4e4       0x1c Core/Src/stringhe_ENG.o
 .rodata.Alarm_ENG
                0x000000000802e500        0x6 Core/Src/stringhe_ENG.o
 *fill*         0x000000000802e506        0x2 
 .rodata.AllarmeFumi_ENG
                0x000000000802e508        0xc Core/Src/stringhe_ENG.o
 .rodata.AlmFumi_DurataPreAlm_ENG
                0x000000000802e514       0x1e Core/Src/stringhe_ENG.o
 *fill*         0x000000000802e532        0x2 
 .rodata.AlmFumi_GradientePreAlm_ENG
                0x000000000802e534       0x15 Core/Src/stringhe_ENG.o
 *fill*         0x000000000802e549        0x3 
 .rodata.AlmFumi_InibPreAlm_ENG
                0x000000000802e54c       0x15 Core/Src/stringhe_ENG.o
 *fill*         0x000000000802e561        0x3 
 .rodata.AlmFumi_TempAlm_ENG
                0x000000000802e564       0x12 Core/Src/stringhe_ENG.o
 *fill*         0x000000000802e576        0x2 
 .rodata.AlmFumi_TempPreAlm_ENG
                0x000000000802e578       0x16 Core/Src/stringhe_ENG.o
 *fill*         0x000000000802e58e        0x2 
 .rodata.Aria_DeltaPortAriaCombust_ENG
                0x000000000802e590       0x19 Core/Src/stringhe_ENG.o
 *fill*         0x000000000802e5a9        0x3 
 .rodata.Aria_InibAlmAriaCombust_ENG
                0x000000000802e5ac       0x21 Core/Src/stringhe_ENG.o
 *fill*         0x000000000802e5cd        0x3 
 .rodata.Aria_PortataCritica_ENG
                0x000000000802e5d0       0x14 Core/Src/stringhe_ENG.o
 .rodata.Aria_TempoAlmPorta_ENG
                0x000000000802e5e4       0x13 Core/Src/stringhe_ENG.o
 *fill*         0x000000000802e5f7        0x1 
 .rodata.Aria_TempoPreAlmAriaCombust_ENG
                0x000000000802e5f8       0x26 Core/Src/stringhe_ENG.o
 *fill*         0x000000000802e61e        0x2 
 .rodata.Aria_TempoPreAlmPorta_ENG
                0x000000000802e620       0x1d Core/Src/stringhe_ENG.o
 *fill*         0x000000000802e63d        0x3 
 .rodata.AttesaPB_ENG
                0x000000000802e640        0x9 Core/Src/stringhe_ENG.o
 *fill*         0x000000000802e649        0x3 
 .rodata.Attiva_Pompa_ENG
                0x000000000802e64c        0xb Core/Src/stringhe_ENG.o
 *fill*         0x000000000802e657        0x1 
 .rodata.Attiva_Pulizia_ENG
                0x000000000802e658        0x9 Core/Src/stringhe_ENG.o
 *fill*         0x000000000802e661        0x3 
 .rodata.AttuaEspulsore2_ENG
                0x000000000802e664        0xc Core/Src/stringhe_ENG.o
 .rodata.AttuaFan1_ENG
                0x000000000802e670       0x11 Core/Src/stringhe_ENG.o
 *fill*         0x000000000802e681        0x3 
 .rodata.AttuaFan2_ENG
                0x000000000802e684       0x11 Core/Src/stringhe_ENG.o
 *fill*         0x000000000802e695        0x3 
 .rodata.AttuaFan3_ENG
                0x000000000802e698       0x11 Core/Src/stringhe_ENG.o
 *fill*         0x000000000802e6a9        0x3 
 .rodata.AttuaGiriEsp2_ENG
                0x000000000802e6ac       0x10 Core/Src/stringhe_ENG.o
 .rodata.AttuaGiriEsp_ENG
                0x000000000802e6bc       0x10 Core/Src/stringhe_ENG.o
 .rodata.AttuaPortata_ENG
                0x000000000802e6cc        0x8 Core/Src/stringhe_ENG.o
 .rodata.AttuaPotenza_ENG
                0x000000000802e6d4        0x6 Core/Src/stringhe_ENG.o
 *fill*         0x000000000802e6da        0x2 
 .rodata.AttuaTempoOffCoclea1_ENG
                0x000000000802e6dc       0x19 Core/Src/stringhe_ENG.o
 *fill*         0x000000000802e6f5        0x3 
 .rodata.AttuaTempoOffCoclea2_ENG
                0x000000000802e6f8       0x19 Core/Src/stringhe_ENG.o
 *fill*         0x000000000802e711        0x3 
 .rodata.AttuaTempoOnCoclea1_ENG
                0x000000000802e714       0x18 Core/Src/stringhe_ENG.o
 .rodata.AttuaTempoOnCoclea2_ENG
                0x000000000802e72c       0x18 Core/Src/stringhe_ENG.o
 .rodata.AttuaTransitorie_ENG
                0x000000000802e744       0x12 Core/Src/stringhe_ENG.o
 *fill*         0x000000000802e756        0x2 
 .rodata.Attuazioni_ENG
                0x000000000802e758        0xc Core/Src/stringhe_ENG.o
 .rodata.Azzera_ENG
                0x000000000802e764        0x6 Core/Src/stringhe_ENG.o
 *fill*         0x000000000802e76a        0x2 
 .rodata.BlackoutDurata_ENG
                0x000000000802e76c       0x11 Core/Src/stringhe_ENG.o
 *fill*         0x000000000802e77d        0x3 
 .rodata.BlackoutRipristino_ENG
                0x000000000802e780       0x10 Core/Src/stringhe_ENG.o
 .rodata.Blackout_ENG
                0x000000000802e790        0x9 Core/Src/stringhe_ENG.o
 *fill*         0x000000000802e799        0x3 
 .rodata.CaricaProfilo_ENG
                0x000000000802e79c        0xd Core/Src/stringhe_ENG.o
 *fill*         0x000000000802e7a9        0x3 
 .rodata.Carichi_ENG
                0x000000000802e7ac        0x7 Core/Src/stringhe_ENG.o
 *fill*         0x000000000802e7b3        0x1 
 .rodata.Coclea2_ENG
                0x000000000802e7b4       0x1e Core/Src/stringhe_ENG.o
 *fill*         0x000000000802e7d2        0x2 
 .rodata.CodicePannello_ENG
                0x000000000802e7d4        0xd Core/Src/stringhe_ENG.o
 *fill*         0x000000000802e7e1        0x3 
 .rodata.CodiceParametri_ENG
                0x000000000802e7e4       0x10 Core/Src/stringhe_ENG.o
